:020000040800F2
:10000000E887002091020008C71E0008291E00088A
:10001000C31E000849160008414400080000000003
:10002000000000000000000000000000C5370008CC
:10003000011900080000000021030008DD38000855
:10004000AB020008AB020008AB020008AB020008DC
:10005000AB020008AB020008AB020008AB020008CC
:10006000AB020008AB020008AB020008AB020008BC
:10007000AB020008AB0200084D160008AB020008F6
:10008000AB020008AB020008AB020008AB0200089C
:10009000AB020008AB020008AB020008AB0200088C
:1000A000AB020008AB020008AB020008AB0200087C
:1000B000B13A0008AB020008AB020008AB0200082E
:1000C000AB020008AB020008AB020008AB0200085C
:1000D000AB02000875410008E94100082942000808
:1000E000AB020008AB020008AB020008AB0200083C
:1000F000AB020008AB020008AB020008AB0200082C
:10010000AB020008AB020008AB020008AB0200081B
:10011000AB020008AB020008AB020008AB0200080B
:10012000AB020008AB020008AB020008AB020008FB
:10013000AB020008AB020008AB020008AB020008EB
:10014000AB020008AB020008AB020008AB020008DB
:10015000AB020008AB020008AB020008AB020008CB
:10016000AB020008AB020008AB020008AB020008BB
:10017000AB020008AB020008AB020008AB020008AB
:10018000AB020008AB02000800F002F800F057F8DC
:100190000AA090E8000C82448344AAF10107DA45E2
:1001A00001D100F04CF8AFF2090EBAE80F0013F0DD
:1001B000010F18BFFB1A43F00103184720E70000A6
:1001C00040E70000103A24BF78C878C1FAD8520737
:1001D00024BF30C830C144BF04680C6070470000C1
:1001E0000023002400250026103A28BF78C1FBD840
:1001F000520728BF30C148BF0B60704766290EF018
:100200009081642900F03C81782900F07581632990
:1002100000F05A84732900F05F84002070471FB5F6
:100220000EF07AF900F0A9F900F070FC040000204B
:1002300000210DF07BFBE0601FBD10B510BD00F08C
:100240007DFD1146FFF7EBFF07F002FE00F09BFD7E
:1002500003B4FFF7F2FF03BC04F032FF0B49D1F8FF
:1002600000C04A685CF8043B1068184442F8040B6C
:100270008C4528BFA1F1DC0C8A4228BFA1F1DC0229
:10028000C1F800C04A6020F0004070477C81002027
:100290000948804709480047FEE7FEE7FEE7FEE71A
:1002A000FEE7FEE7FEE7FEE7FEE7FEE70448054956
:1002B000054A064B70470000ED3800088901000828
:1002C000E8810020E8870020E8830020E883002000
:1002D000EFF3108072B6704780F310887047264C99
:1002E0004FF6FF7525604FF0000484F30988234C16
:1002F0004FF001052570224C4FF08055256062B605
:10030000FEE730B41E4C4FF08055256030BC70477E
:1003100030B41B4C4FF08055256030BC704700BF97
:1003200072B6EFF3098050B11EF0100F08BF20ED38
:10033000108A203880E8F00F12490968086000B57B
:10034000114880475DF804EB104811490A780270A3
:100350000C4810490A680260106890E8F00F2030DD
:100360001EF0100F08BFB0EC108A80F309884EF021
:10037000040E62B6704700BF22ED00E0AE00002020
:1003800004ED00E0B4000020A92C0008A300002028
:10039000A4000020BC00002010B50446002111205C
:1003A000ABBE002C00D0206010BD00000FB404498B
:1003B00010B503AA029800F093FB10BC5DF814FB83
:1003C000100000202DE9F0410E4604460020206276
:1003D0002046E168884730B3252805D0D4E90121BB
:1003E0009047206A401CF2E7E168204600278847D2
:1003F000050018D0A5F14100192802D820354FF486
:1004000000673246294620462760FFF7F7FE40B1D5
:10041000012804D0F61D26F007060836D8E7361D59
:10042000D6E72846DAE7206ABDE8F08170B50C46C9
:100430000546012A05D02878800600D5EA69002300
:1004400002E0012305E05B1C934202D2E05C00283D
:10045000F9D1A869E618C01AA861286A1844286268
:100460002846AFF3008004E0D5E9012114F8010B20
:100470009047B442F8D32846AFF3008070BD000027
:100480002DE9F0410646002410687529314616A56D
:1004900010D0AFF30080002802DA404213A507E035
:1004A00031688A0701D512A502E0490704D511A5D4
:1004B000012401E0AFF3008000210A2206F12407A5
:1004C00009E0B0FBF2FCB0FBF2F302FB1C003030A1
:1004D00078541846491C0028F3D123462A46304652
:1004E000BDE8F04100F080B8000000002D000000E1
:1004F0002B0000002000000070B504460D46214688
:100500001068AFF300802188090502D50F4A7A44AC
:1005100002E00E4A7A440E32002104F1240305E081
:1005200000F00F060009965D5E54491C0028F7D1C3
:1005300020780023000704D5702D02D009B10223D2
:1005400011322046BDE8704000F04EB814E10000C2
:100550000B4910B5A1F17C020A4CC2E937123721D0
:1005600006E000EB104342F82130074B00FB03404C
:100570000B1EA1F10101F4DC10BD0120E8E7000031
:100580001C810020E119D666CD0D010010B5431C79
:1005900002E010F8011B71B18107FAD14FF001326E
:1005A00002C88C1A8C4314EAC211F9D0C01A0A0688
:1005B00003D0C01E10BDC01A10BD0A0401D0801E99
:1005C00010BD0902FCD0401E10BD70477047704737
:1005D000704710B500F09EFA006810BD10B50446D3
:1005E00000F098FA046010BD2DE9F0470D469946D9
:1005F0009246044600F124080168880604D5E069A3
:1006000021F01001216000E00120A84201DD471B1C
:1006100000E00027A1697A1902EB0900081AA0611D
:100620002078C00602D42046AFF30080002608E000
:10063000D4E901211AF806009047206A401C761C74
:1006400020624E45F4DB2078C0060AD52046AFF381
:10065000008006E0D4E9012130209047206A401C48
:100660002062381EA7F10107F4DC07E0D4E901217C
:1006700018F805009047206A401C2062281EA5F14A
:100680000105F3DC2046AFF300802078000602D598
:100690000220BDE8F0870120FBE770472DE9FF4FFE
:1006A0000C461E464FF0FF378BB0D2E90001DDF853
:1006B00060800A908A46C1F30A5505B93D4600217B
:1006C00008464FF00000BAF1000F00F4400005DAD0
:1006D00000EB80004FF4400101EA50004FEA9059CE
:1006E000B9F1010F00DDB9460A9850EA4A000ED070
:1006F00044F61050A5F2FF3545432F14B8F1000F12
:100700001ED07542291E1EDDC9F100021CE0B8F1A1
:10071000010F4FF0000001D0302103E0F24305E06B
:100720002154401CB042FBDB304600220021215402
:100730000B99C1F80880C1E900200FB0BDE8F08F27
:10074000BD1B6D1CDEE74A4600DA694206A800F0D0
:1007500083FA06AB93E8070003AB83E80700504633
:100760000A9900F059FB8DE80700A0F500501F38EA
:1007700000900398002D09DD42F21F014A4608440B
:1007800003A90390684600F0B8FD08E0A0F500500A
:100790004A461F3803A90390684600F0C2FD8DE861
:1007A00007000004000C03D04FF0FF30410800E0C8
:1007B0001046B8F1000F03D00022009215461EE04B
:1007C000751E05D400F0AAF9303262556D1EF9D5B8
:1007D000B3460122084302D000227F1C04E02078A7
:1007E000302801D100227F1E002A099786D01DE003
:1007F000112D07DA00F092F9303262556D1C50EA83
:100800000102F5D1084302D00098C8B10EE00021E2
:10081000681E05E0235C625C63542254401E491C40
:100820008142F7DBAB46A81B401E0990002004F86C
:100830000B000B98099AC0F80880C0E9002B7CE7F0
:1008400011264FF0000859E72DE9F04F884604467D
:10085000D21D22F0070191B0D1E90001CDE90A01D2
:1008600003F0F0FD02460B98C00F01D02D2007E0E9
:100870002068810701D52B2002E0202101EAC00079
:10088000032A099001D0072A05DB0346414620468A
:1008900000F0A2F90BE12078800601D5E06900E0C4
:1008A0000620B8F1650F814606D0B8F1660F18D062
:1008B000B8F1670F70D131E00020B9F1110F00904D
:1008C00001DB112301E009F101030AAA01A90CA827
:1008D000FFF7E4FEDDE90C70002609F1010583460F
:1008E00047E001204B4600904FF000470AAA01A9BB
:1008F0000CA8FFF7D3FEDDE90DB00C995D4600268C
:1009000010B909F101000D18B9EB050003D4C0F1CD
:10091000FF3609F10105A5EB09002BE0B9F1010F44
:1009200001DA4FF001090020B9F1110F009048469B
:1009300001DD112300E003460AAA01A90CA8FFF774
:10094000ADFEDDE90C704D46002683462078000799
:100950000AD4AB4500DA5D4601A8012D04DD41193A
:1009600011F8011C302907D04F4502DA17F1040FA6
:1009700004DA012082460FE06D1EEEE7002F02DC54
:10098000ED1B3E4403E0781CA84200DD7D1CB81B33
:1009900000F1010A4FF000472078000703D4AA4570
:1009A00001DB4FF0FF3A0021B7F1004F0DF1430892
:1009B0008DF8431024D002202B23002F01DA7F4230
:1009C0002D230A21021EA0F1010000DC5FB197FB7C
:1009D000F1FC97FBF1F201FB1C7C17460CF1300C8B
:1009E00008F801CDEEE7A8F10100037021880905A0
:1009F00001D5452100E06521A0F1010800F8011CA6
:100A000009980FA9A1EB0807FF1D00B101204119AA
:100A100001EBEA70A1693844081A401EA0612078F1
:100A2000C00602D42046AFF30080099828B1D4E96B
:100A300001219047206A401C20622078C00622D500
:100A40002046AFF300801EE0002E04DBB34502DD3C
:100A500001A8805D00E03020D4E901219047206AA0
:100A6000401C2062761CAAF101005FEA000A0AD14C
:100A700000F04CF8C0680168405CD4E9012190475F
:100A8000206A401C2062281EA5F10105DCDC07E07D
:100A9000D4E9012118F8010B9047206A401C20621C
:100AA000381EA7F10107F3DC2046AFF300800320D6
:100AB00011B043E610B5436913B1AFF3008001E014
:100AC000FFF7B4FC012010BD127800F124010A7078
:100AD00000224A700122EDE711684FF0FF32E9E78A
:100AE000074B70B50D467B4400F063F8044628467A
:100AF00000F020F910B14FF0FF3070BD204670BDFE
:100B0000E754000000487047848100200048704787
:100B1000A4810020004870478481002030B5B0F1E6
:100B20000A024FEA900E71F100034EEA817EB0EBAB
:100B30000E0061EB91014FEA101E4EEA017E10EBB0
:100B40000E0041EB11114FEA102E4EEA016E10EB30
:100B50000E0041EB11214FEA104E4EEA014E10EB10
:100B60000E0041EB1141401841F100014FEAD00065
:100B700040EA41704FEAD10110EB80054FEA810451
:100B800044EA907444EB01046D1944EB0404521BD5
:100B9000A3414FF0000348BF0A3200D530BD401CCE
:100BA00041F1000130BD000001694A1C0261087872
:100BB000704700B58FB0CDE901310021059105499D
:100BC0007944CDE9031011466846FFF7FBFB0FB0EF
:100BD00000BD0000E5FFFFFF2DE9F0411F46044680
:100BE00003260168072A01F4006004DB08B116A59A
:100BF00005E016A503E008B115A500E015A521F054
:100C000010002060A069C01EA0610FB1401EA0614D
:100C10002046AFF300804FB1D4E901213846904718
:100C2000206A401C2062C01C206206E0206AFAE7AD
:100C3000D4E9012115F8010B9047761EF8D2204621
:100C4000AFF30080BDE8F0814E414E006E616E0052
:100C5000494E4600696E66002DE9F047814616460A
:100C60008AB0334878440DC88DE80D003048784488
:100C7000801C03AC0DC884E80D0041F69B3008448D
:100C8000372190FBF1F290FBF1F5A5F1800501FB16
:100C900012041B3C02D56442012000E00020DFF872
:100CA00090A080460027FA44AAF1BE0A0DE0E007B2
:100CB00009D03246684607EB47010AEB810100F094
:100CC00030FB8DE8070064107F1C002CEFD1184F1B
:100CD0007F44AC3F18E0E80714D007EB04100DF197
:100CE000180A90E80E008AE80E00C068F04201D1B0
:100CF00098190890324606A903A800F012FB03AB2E
:100D000083E807006D10641C002DE4D1324669466B
:100D1000B8F1000F03A802D000F0EFFA01E000F0F4
:100D200000FBC9E90001C9F808200AB0BDE8F08756
:100D3000D4DB0000007B00F0800070477546FFF7B1
:100D4000E1FEAE4605006946534620F007008546A1
:100D500018B020B5FFF7AAFABDE820404FF0000612
:100D60004FF000074FF000084FF0000B21F0070193
:100D7000AC46ACE8C009ACE8C009ACE8C009ACE8D6
:100D8000C0098D46704710B50446AFF30080204679
:100D9000BDE81040FFF75CBA4FF0013C50F8042B5F
:100DA00051F8043B9A4221D1A2EB0C03934313EA7E
:100DB000CC1317D150F8042B51F8043B9A4215D1AB
:100DC000A2EB0C03934313EACC130BD150F8042B82
:100DD00051F8043B9A4209D1A2EB0C03934313EA66
:100DE000CC13DBD04FF00000704700BFD01A01BA1F
:100DF000B1FA81F101F0180122FA01F0CB40C1F102
:100E00002001DBB2C0B2C01A2CFA01F3D11A91430F
:100E100011EAC311E6D170475FEA400C08BF91F0B8
:100E2000000F4FEA8C234FEAC12243EA51514FEAA7
:100E30001C5018BF00F5F0404FEA300018BF41F0D9
:100E400000415FEA6C5C00F02980BCF1FF3F08BF05
:100E500040F080407047130C06BF12044FF0100C96
:100E60004FF0000C130E04BF12020CF1080C130F0C
:100E700004BF12010CF1040C930F04BF92000CF19B
:100E8000020CD30F04BF52000CF1010C11464FF0BD
:100E90000002A0F11F00A0EB0C00704711F0004F02
:100EA00008BF704731F000413FF4D5AF0B0C06BFCF
:100EB00009044FF0100C4FF0000C0B0E04BF090298
:100EC0000CF1080C0B0F04BF09010CF1040C8B0F83
:100ED00004BF89000CF1020CCB0F04BF49000CF1D8
:100EE000010CCCF12003A0EB0C0022FA03F302FA70
:100EF0000CF241EA030100F10100704720F07F4C41
:100F000080EA030023F07F47ACEB070303F57C5333
:100F100000F0004003F1FF032DE980494FEA154B33
:100F200009B44FEA144325EA0B4E24EA03480FF2B2
:100F3000042606EB132749083E785FEA320203FBDA
:100F40000667C7F5000707FB06F64FEA54374FEA76
:100F5000D64606F1020607FB066CCCF1005C4FEAB0
:100F60001C472CEA074C07FB06F40CFB06F504EBC8
:100F700015464FEA961634BF00204FF000404FEA66
:100F8000D13706FB07FC4FEA1C4C0CFB0BF7D21BBE
:100F900003FB0CF761EB07010CFB0EF7B0EB07400E
:100FA00072EB17420CFB08F734BFA2EB0742B2EB1F
:100FB000074261EB17414FEA0C444FEA910706FBE9
:100FC00007FC4FEA1C4C0CFB0BF7B0EBC74072EB75
:100FD000573203FB0CF734BFA2EBC742B2EBC74258
:100FE00061EB57310CFB0EF7B0EBC70072EB577299
:100FF0000CFB08F734BFA2EBC702B2EBC70261EBF0
:101000005771039F4FEA816141EA921104EBCC04CE
:101010004FEAD1374FEA826206FB07FC42EA9012A0
:101020004FEA80604FEA1C4C0CFB0BF7D21B03FB12
:101030000CF761EB07010CFB0EF7B0EB074072EB0E
:1010400017420CFB08F734BFA2EB0742B2EB074292
:1010500061EB17414FEA8C554FEA910704EB9C2452
:1010600006FB07FC4FEA1C4C0CFB0BF7B0EBC74030
:1010700072EB573203FB0CF734BFA2EBC742B2EB63
:10108000C74261EB57310CFB0EF7B0EBC70072EBB8
:1010900057720CFB08F734BFA2EBC702B2EBC702D2
:1010A00061EB577115EB4C254FEA816141EA9211D2
:1010B0004FEA82624FEAD13742EA901206FB07FC00
:1010C00044F100044FEA80604FEA1C4C0CFB0BF724
:1010D000D21B03FB0CF761EB07010CFB0EF7B0EB27
:1010E000074072EB17420CFB08F734BFA2EB074234
:1010F000B2EB074261EB174115EB1C154FEA81314A
:1011000041EA92414FEA823242EA90424FEA80300D
:101110004FEA0C7644F1000448EA03434EEA0B48D8
:101120004FF0000EB2EB080C71EB030724BF6246D0
:1011300039464EEB0E0E4FF0000B0018524149415C
:101140004BEB0B0BB2EB080C71EB03077BF1000BC5
:1011500024BF624639464EEB0E0E4FF0000B0018CE
:10116000524149414BEB0B0BB2EB080C71EB0307FF
:101170007BF1000B24BF624639464EEB0E0E51EA5E
:10118000020718BF46F0010616EB0E7655F1000275
:1011900054F1000103D5BDE88901BDE80088BDE830
:1011A0008901BDE80048B619524141EB0101A3F1A4
:1011B0000103704780807F7E7D7C7B7A79787776AB
:1011C00076757473727171706F6E6E6D6C6C6B6A24
:1011D0006A696868676666656464636362616160C2
:1011E000605F5F5E5E5D5D5C5C5B5B5A5A5959583F
:1011F00058575756565555555454535352525251A9
:10120000515050504F4F4F4E4E4D4D4D4C4C4C4BFE
:101210004B4B4A4A4A494949484848474747474645
:101220004646454545444444444343434342424281
:1012300042414141002B26D4770021D01CB54FEA12
:10124000370703B44FF010004FF010014FF00000CB
:101250000FBCBDE810400BF1010BBBF1010F08BF43
:101260005FEA170722BF12F1010211F101014FF0ED
:10127000004143F1000300F0004043EA00007047E2
:10128000F9D35708DAE746EA064613F1400F4FEA6A
:1012900016461FDD13F1200FDFBF16430A4600215B
:1012A00020335B42C8D0C3F1200746EA064602FA63
:1012B00007F74FEA164646EA0706C3F1200722FA67
:1012C00003F201FA07F721FA03F14FF0000342EAB3
:1012D0000702B1E746EA020646EA06464FEA164624
:1012E00046EA0106BCBF46EA0646360C4FF000034C
:1012F0004FF000024FF000019EE72DE9C0489346F1
:1013000030B491E8380007C831EA400C48BF34EAED
:10131000430C03D5FFF7F2FDFFF78CFFF0BCBDE8EF
:1013200000882DE9C048934630B491E8380007C8DA
:1013300010F0804F08BF13F0804F03D100F005F884
:10134000FFF778FFF0BCBDE8008820F07F4780EA17
:10135000030023F07F4C07EB0C03A3F57C5300F054
:101360000040A3F1FE0392F0000F00F0B38095F06F
:10137000000F00F077802DE901494FEA11404FEA54
:10138000144621EA004800FB06FC24EA064708FB55
:1013900006F607FB08F800FB07F718EB06484CEBCE
:1013A000164C4FEA124B18EB07484FEA15464CEB28
:1013B000174022EA0B4E0BFB06FC25EA06470EFB04
:1013C00006F607FB0EFE0BFB07F71EEB064E4CEB7B
:1013D000164C4FF000061EEB074E4CEB174B18EB6C
:1013E0000B0840F1000018EB0E0B58EB000840F121
:1013F00000008F1A4FF000013CBFC943661B14BFA9
:10140000B5EB040C00213CBFC943F61B4FEA17445F
:101410004EEA8E0E27EA04454FEA1C4704FB07629A
:101420002CEA074C05FB07F70CFB05F604FB0CFC4C
:1014300016EB074642EB174216EB0C4642EB1C42FA
:101440001BEB060658EB0202414146EA9E0601D517
:10145000BDE80189B619524141EB0101A3F1010335
:10146000BDE801894FEA14454FEA114724EA0546D1
:1014700021EA074C05FB07F406FB07F70CFB06F116
:1014800005FB0CFC11EB074144EB17444FEA1247F4
:1014900011EB0C4144EB1C4422EA074C05FB07F21C
:1014A00006FB07F70CFB06F605FB0CFC16EB0746E4
:1014B00042EB174216EB0C4642EB1C456A1854F1FE
:1014C000000148BF7047B619524141EB0101A3F139
:1014D0000103704795F0000F37D04FEA11424FEAF1
:1014E000144721EA024624EA074C02FB07F106FBF7
:1014F00007F70CFB06F402FB0CFC14EB074441EB72
:1015000017414FEA154714EB0C4441EB1C4125EA07
:10151000074C02FB07F506FB07F70CFB06F602FB80
:101520000CFC16EB074645EB174516EB0C4645EB56
:101530001C42121951F1000148BF7047B6195241BF
:1015400041EB0101A3F1010370474FEA14454FEA53
:10155000114724EA054621EA074C05FB07F106FB83
:1015600007F70CFB06F24FF0000605FB0CFC12EB34
:10157000074241EB174112EB0C4251EB1C4148BFB3
:101580007047921841EB0101A3F10103704700007D
:1015900008B500F0D7FE6946002000F0DBFC1A49D0
:1015A00008606946002000F0D5FC18490860142145
:1015B000174800F039FF174908603C23164A0021FC
:1015C000164801F06BF80F23154A0021154801F069
:1015D00065F80A23144A0021144801F05FF80B2330
:1015E000134A0021134801F059F81F23124A002121
:1015F000124801F053F81523114A0021114801F057
:101600004DF801F025F808BD6C00002070000020A6
:10161000F0460020640000205C190020C17D000815
:101620005C1A0020A95F00085C1D0020C95000085A
:101630005C1F0020DD7A00085C250020557F000833
:101640005C2700200180000800BFFEE710B50849B4
:10165000084800F0F5F850B10549064800F010F8C8
:10166000054B012211460548006800F0CFFD10BD72
:101670000080001858600240000000206C0000202C
:101680000246094B9A4201D2084801E00648103848
:1016900001F000531BB1064B0B40C36002E0044B4A
:1016A0000B408360704700001064024000600240FD
:1016B0007D0F7D0F21B1026842F00102026003E05C
:1016C000026822F00102026070470000016821F008
:1016D000010101600021016041608160C160016120
:1016E000212141614A49884204D13D21484A103AAA
:1016F00091608CE046491831884205D14FF47461FD
:10170000434A103A916082E041493031884205D124
:101710004FF474113E4A103A916078E03C494831E8
:10172000884205D14FF07461394A103A91606EE0F9
:1017300037496031884204D13649354A103AD16080
:1017400065E033497831884204D13349304A103A50
:10175000D1605CE02E499031884204D12F492C4A57
:10176000103AD16053E02A49A831884205D14FF0A0
:101770003D51274A103AD16049E02949884204D1B5
:101780003D21274A083A116041E025491831884235
:1017900005D14FF47461224A083A116037E02049BC
:1017A0003031884205D14FF474111D4A083A116056
:1017B0002DE01B494831884205D14FF07461184A29
:1017C000083A116023E016496031884204D111497A
:1017D000134A121F11601AE011497831884204D16E
:1017E0000D490F4A121F116011E00D4990318842D6
:1017F00004D10A490A4A121F116008E00849A831B9
:10180000884204D14FF03D51054A121F11607047C4
:10181000106002403D000020400F002000003D20ED
:10182000106402400146486880B2704701460020BB
:101830000A6802F400220AB1012000E0002070478B
:1018400070B50246002000240025124EB24201D29B
:10185000114B01E00F4B103B104E0E4036B11E26CF
:1018600006EAD124166806EA040502E0566906F085
:10187000800501F000560EB15C6800E01C68084E5F
:10188000344004EA010616B10DB1012000E0002049
:1018900070BD000010640240006002403C0F3C0F2D
:1018A0007D0F7D0F10B500220268134B1A40CC68E3
:1018B0000B6823434C6923438C692343CC6923433E
:1018C0000C6A23434C6A23438C6A23434C6B2343A7
:1018D0008C6B23431A430260426922F00702D1E96C
:1018E0000B3423431A4342610B6943604B688360A6
:1018F0008B68C36010BD00003F801CF041607047E2
:101900007047F0B50A4600210023002400BF3DE0E7
:10191000012505FA01F3156805EA03049C4234D158
:1019200005684F000326BE40B543056015794E009B
:10193000B5400668354305601579012D02D015794B
:10194000022D16D185684F000326BE40B543856041
:1019500055794E00B5408668354385604568012657
:101960008E40B5434560456896798E40B6B23543A2
:101970004560C5684F000326BE40B543C560D579B4
:101980004E00B540C6683543C560491C1029BFD319
:10199000F0BDF0B5002300244D07ED0E02FA05F36B
:1019A000CE1000F1200555F826504E07F70E0F26F1
:1019B000BE40B543CF1000F1200646F82750CE10A8
:1019C00000F1200555F8265045EA0304CE1000F139
:1019D000200545F82640F0BD4183704701837047DC
:1019E0002DE9F04385B00346164600240025002764
:1019F0000020002212E213F802C0BCF12C0F04D028
:101A000013F802C0BCF12A0F7DD10D2D7CD2DFE886
:101A100005F07B0741468A8FDADFF9F8F7F6F50023
:101A20009DF801C0ACF1300C9DF80080A8F13008A1
:101A300008EB88080CEB480C4FEA0C699DF803C0D2
:101A4000ACF1300C9DF80280A8F1300808EB880852
:101A50000CEB480C09EB0C499DF805C0ACF1300CBF
:101A60009DF80480A8F1300808EB88080CEB480CBE
:101A700009EB0C299DF808C0ACF1300C9DF80780EB
:101A8000A8F1300808EB88080CEB480CCC44C1F8EE
:101A900000C0A2E19DF800C081F804C09DE19DF85E
:101AA00005C0ACF1300C4FF47A781CFB08F89DF8B7
:101AB00006C0ACF1300C0CEBCC0909EB0C1C08EBAC
:101AC0008C089DF807C0ACF1300C0CEB8C0C08EBCB
:101AD0004C089DF808C0ACF1300CC444C1F808C0F3
:101AE0009DF800C0ACF1300C4FF416781CFB08F8E0
:101AF0009DF801C0ACF1300CCCEB0C1C08EB8C0851
:101B00009DF802C001E07CE166E1ACF1300C0CEB29
:101B10008C0C08EB4C089DF803C0ACF1300CC444AD
:101B2000A1F806C059E19DF800C081F80CC054E14D
:101B30009DF806C0ACF1300C4FF47A781CFB08F825
:101B40009DF807C0ACF1300C0CEBCC0909EB0C1C78
:101B500008EB8C089DF808C0ACF1300C0CEB8C0C39
:101B600008EB4C089DF809C0ACF1300CC444C1F836
:101B700010C09DF800C0ACF1300C41F270781CFB35
:101B800008F89DF801C0ACF1300CCCEB0C1C0CEB50
:101B90008C0C08EBCC089DF802C0ACF1300CCCEBFF
:101BA0000C1C08EB8C089DF803C0ACF1300C0CEB5E
:101BB0008C0C08EB4C089DF804C0ACF1300CC4440C
:101BC000A1F80EC009E19DF800C081F814C004E13D
:101BD000002003E000F1010C0CF0FF001DF800C034
:101BE000BCF12E0F01D00428F4DB042856DA0128BA
:101BF00009D0022816D003284ED12BE0E7E0E1E01F
:101C0000DFE0B2E04BE09DF802C0ACF1300C9DF893
:101C10000080A8F1300808EB88080CEB480CA1F80C
:101C200016C03AE09DF800C0ACF1300C4FF06408EB
:101C30001CFB08F89DF801C0ACF1300C0CEB8C0CCF
:101C400008EB4C089DF803C0ACF1300CC444A1F87B
:101C500016C022E09DF800C0ACF1300C4FF47A7849
:101C60001CFB08F89DF801C0ACF1300C0CEBCC0962
:101C700009EB0C1C08EB8C089DF802C0ACF1300C91
:101C80000CEB8C0C08EB4C089DF804C0ACF1300C4C
:101C9000C444A1F816C000E000BF00BF9DE00020D2
:101CA00003E000F1010C0CF0FF001DF800C0BCF1D6
:101CB0002E0F01D00428F4DB042851DA012804D0C7
:101CC000022811D0032849D126E09DF802C0ACF1CA
:101CD000300C9DF80080A8F1300808EB88080CEB68
:101CE000480CA1F818C03AE09DF800C0ACF1300CE7
:101CF0004FF064081CFB08F89DF801C0ACF1300CF3
:101D00000CEB8C0C08EB4C089DF803C0ACF1300CCC
:101D1000C444A1F818C022E09DF800C0ACF1300C1A
:101D20004FF47A781CFB08F89DF801C0ACF1300C38
:101D30000CEBCC0909EB0C1C08EB8C089DF802C0DD
:101D4000ACF1300C0CEB8C0C08EB4C089DF804C08B
:101D5000ACF1300CC444A1F818C000E000BF03E0AF
:101D60004FF0000CA1F818C037E09DF801C0ACF1AD
:101D7000300C9DF80080A8F1300808EB88080CEBC7
:101D8000480C4FEA0C499DF803C0ACF1300C9DF8AB
:101D90000280A8F1300808EB88080CEB480C09EB2E
:101DA0000C299DF805C0ACF1300C9DF80480A8F119
:101DB000300808EB88080CEB480CCC44C1F81CC078
:101DC0000BE00AE09DF800C081F824C005E09DF812
:101DD00000C081F820C000E000BF00BF07E04FF066
:101DE000000C0DF804C0A4F1010C0CF0FF04002C51
:101DF000F5D1A4468DF800C005F1010C0CF0FF05EB
:101E000008E013F80290A44604F1010808F0FF046A
:101E10000DF80C9002F1010C1FFA8CF2B242FFF6A1
:101E2000EAAD05B0BDE8F08300BFFEE71CB50121B7
:101E3000042001F023FC4FF47070009003208DF813
:101E4000050000208DF8060001208DF807008DF8B0
:101E5000040069460A48FFF754FD0420009003205F
:101E60008DF8050000208DF8060001208DF8070090
:101E70008DF8040069460248FFF743FD1CBD0000D1
:101E80000008024030B50246002000BF09E02225CC
:101E90002B23434302F18404234483F82A50431C38
:101EA000D8B20328F3DB002008E022242B2343438D
:101EB00001EB430383F85540431CD8B20A28F4DBF6
:101EC00030BD00BFFEE7704770B5002100230F2230
:101ED000C4781CB3174C246804F4E064C4F5E064CF
:101EE000C4F30721C1F10404E3B20A4144789C40E1
:101EF000E1B28478144021430C07210E0E4C057882
:101F00006155047804F01F050124AC4005786D117B
:101F1000AD0005F1E025C5F8004109E0047804F0C2
:101F20001F050124AC40054D0678761145F8264082
:101F300070BD00000CED00E000E400E080E100E096
:101F400002490143024A1160704700000000FA058F
:101F50000CED00E02DE9F04106460D460027134840
:101F6000007820B1102028700020BDE8F081FEF735
:101F7000AFF907460E48046884B1006840680C4910
:101F800008600520207026810020606009A0E060C4
:101F90003846FEF7A1F90020287004E03846FEF725
:101FA0009BF9722028702046DFE70000A100002086
:101FB000900000203F0000002DE9F04F89B0054659
:101FC0000F4691469A46129E002002908C48007857
:101FD00028B102203070002009B0BDE8F08F894898
:101FE000007818B10D2030700020F5E7287805281A
:101FF00003D0012030700020EEE709F0800BBBF128
:10200000000F04D009F07F094FF0010801E04FF004
:102010000008FEF75DF90290B9F1000F4AD0B9F15E
:10202000010F68D0B9F1020F03D0B9F1030F76D1D7
:1020300020E0288900EA0704BC420FD1B8F1010F63
:1020400002D12889A04328816F480068048502983E
:10205000FEF742F9002030702046BDE74B463A4675
:1020600004A92846CDF800A000F078FF0298FEF7FA
:1020700033F969E0288900EA07047CB1B8F1010F5F
:1020800002D12889A04328815F480068048502980E
:10209000FEF722F90020307020469DE74B463A4675
:1020A00004A92846CDF800A000F058FF0298FEF7DA
:1020B00013F949E0288927EA0004BC420FD1B8F19E
:1020C000010F02D12889204328814F4800680485E8
:1020D0000298FEF701F90020307020467CE74B465D
:1020E0003A4604A92846CDF800A000F037FF029830
:1020F000FEF7F2F828E0288927EA000484B1B8F155
:10210000010F02D12889204328813F4800680485B7
:102110000298FEF7E1F80020307020465CE70BE003
:102120004B463A4604A92846CDF800A000F016FF19
:102130000298FEF7D1F807E00298FEF7CDF80024E8
:102140006F203070204647E700BF01F0FDF8FEF732
:10215000BFF802902C48006890F8310020B32A485C
:10216000006890F83100039000202749096881F841
:10217000310004A800F09EFF00202349096881F87F
:1021800030000298FEF7A8F800240398012805D033
:10219000022802D10E20307003E000BF0A20307008
:1021A00000BF00BF204617E717480068048DB8F14C
:1021B000010F1ED1B9F1000F0ED0B9F1010F0CD0F3
:1021C000B9F1020F03D0B9F1030F0AD100E000BF4B
:1021D0002889A04328810BE000BF2889204328815B
:1021E00006E00298FEF778F86F2030700020F3E6E2
:1021F00000BF0298FEF770F8002030702046EBE632
:10220000A1000020A2000020B40000202DE9FC5F06
:102210000446894692461E460020009020780528F4
:1022200004D0012030700020BDE8FC9FFEF750F87C
:102230000090BAF1000F03D0BAF1010F0AD104E007
:10224000208920EA090020810BE0208940EA09006A
:10225000208106E00098FEF73FF8712030700020E2
:10226000E2E700BF4FF0000B656855E0A87C40B383
:10227000012838D0022802D0032844D111E0208957
:10228000298A00EA0107288AB84209D13946284636
:1022900000F0E2FE8046B8F1010F01D14FF0010BD2
:1022A00038E02089298A00EA01074FB139462846DB
:1022B00000F0D2FE8046B8F1010F01D14FF0010BC2
:1022C00028E0288A218920EA0107288AB84209D112
:1022D0003946284600F0C0FE8046B8F1010F01D112
:1022E0004FF0010B16E0288A218920EA01074FB13F
:1022F0003946284600F0B0FE8046B8F1010F01D102
:102300004FF0010B06E00098FDF7E6FF6F203070FC
:10231000002089E700BF2D68002DA7D10098FDF7A8
:10232000DBFFBBF1010F01D101F00EF8FDF7D0FF8B
:102330000090208901900098FDF7CEFF00203070BA
:10234000019871E710B500F013F800F0EFFE00F00F
:1023500017FF00F037FF00F0BFFE00F051FE00F065
:10236000CBFF00F06FFF00F095FF00F002F810BD0A
:102370007047704706480078012808D10548007862
:10238000FF2804D203480078401C024908707047B7
:10239000AE000020A100002010B500241A480078EB
:1023A000012830D1FDF794FF04461848007820B189
:1023B00016480078401E1549087014480078F8B98E
:1023C00013480078E0B900F0F9FF12481249097883
:1023D00050F82100114908600F4800781049097829
:1023E00088420DD00D480068806B401C0B4909687D
:1023F00088630C480068401C0A490860FDF788FFA4
:102400002046FDF769FF10BDAE000020A1000020AE
:10241000A2000020387B0020A4000020BC00002087
:10242000A3000020880000202DE9F04106460F4659
:102430004FF000081F48007810B10020BDE8F0817F
:10244000FDF746FF80461C480568006820B11A4821
:1024500000684068184908604046FDF73DFF3DB3FD
:10246000FDF736FF804615480468C4B1006800686F
:10247000124908604046FDF72FFF666006EB8700B3
:10248000A060E6602661A7820020E082022028701A
:10249000002028816C60284600F052FD08E00648C4
:1024A00000686860044805604046FDF715FF002598
:1024B0002846C3E7A10000208C000020C8000020AF
:1024C0002DE9F0470746884615464FF00009387851
:1024D000022804D0012028700020BDE8F0873C4885
:1024E000007818B1022028700020F6E739480078FB
:1024F00018B10D2028700020EFE7FDF7E9FE8146B6
:102500007C68E08A98B12169081D20610E68E08A24
:10251000401EE082A1682069884201D16068206184
:102520004846FDF7D9FE002028703046D5E72A48F6
:10253000006890F8300040F004002749096881F8ED
:10254000300000202449096881F8310022480068E1
:10255000C0F82C80384600F0B5FC4846FDF7BCFEBC
:1025600000F0F2FEFDF7B4FE81461B48006890F8CB
:10257000310020B101280DD002280AD105E016480B
:102580000068066A002028700DE000260E202870E2
:1025900009E000BF39461048006800F07DFC0026C5
:1025A0000A20287000BF00BF00200B49096881F88D
:1025B00030000949096881F8310007490968C86194
:1025C0000549096808624846FDF786FE304684E7FB
:1025D000A1000020A2000020B40000202DE9F0415D
:1025E00005460E4600272878022802D00120BDE8C3
:1025F000F081FDF76DFE0746A87A60B10023042242
:102600003146284600F006FC3846FDF765FE00F02E
:102610009BFE0020EBE76C68E08AA18A884204DB1D
:102620003846FDF759FE1E20E1E7E168081DE0602D
:102630000E60E08A401CE082D4E90210884201D199
:102640006068E0603846FDF747FE0020CFE70000F5
:1026500010B50B48007890B900F0B0FE094800783A
:102660000949087009480749097850F821000849C4
:1026700008600846006807490860FDF730FE10BD95
:10268000AE000020A4000020A3000020387B002022
:10269000BC000020B4000020704700002DE9FE4F70
:1026A00006460F4690461C464FF00009FDF710FE07
:1026B00081461F48007828B14846FDF70DFE3C20B2
:1026C000BDE8FE8F1B4850F8240060BB012019496B
:1026D00041F824004846FDF7FFFD002342463946F5
:1026E000304600F0B5F98246002000900190034684
:1026F000024651460290204600F076FE054635B966
:102700000D48007801280CD100F01EFE09E0FDF70D
:10271000DFFD81460020074941F824004846FDF7C7
:10272000DBFD2846CCE74846FDF7D6FD2820C7E765
:10273000A1000020387B0020AE0000202DE9F04FE2
:1027400085B081468A4693461C46DDE90F78129D86
:1027500000200390FDF7BCFD03902348007830B1C2
:102760000398FDF7B9FD3C2005B0BDE8F08F1F4888
:1027700050F8240088BB01201C4941F8240003982C
:10278000FDF7AAFD2A464146384600F049FF2B4690
:102790005A465146484600F05BF904901198CDE93D
:1027A000008002953A4620460E9B049900F01CFEDC
:1027B000064636B90E48007801280CD100F0C4FD59
:1027C00009E0FDF785FD03900020084941F8240049
:1027D0000398FDF781FD3046C6E7FFE70398FDF754
:1027E0007BFD2820C0E70000A1000020387B0020EE
:1027F000AE000020704700002DE9F041054600279B
:102800004748007810B14020BDE8F0813F2D01D14C
:102810003E20F9E7FDF75CFD0746FF2D03D1414857
:10282000006890F83250404850F8254024B93846A6
:10283000FDF752FD4320E7E7012C04D13846FDF7B0
:102840004BFD3D20E0E714F8340F3849085C61780F
:1028500088432178354A505414F834091146085CED
:1028600030B994F8361032480078884330490870FF
:10287000E06918B12046E16900F00EFB666A16B106
:10288000304600F017FC0020E06284F8300084F845
:10289000310028480078FF2804D226480078401CE0
:1028A000244908703846FDF717FD00F0B2FAFDF72D
:1028B0000FFD07461F48007820B11E480078401ED3
:1028C0001C490870204600F041F81B480078401E63
:1028D000194908700020144941F82500A06930B951
:1028E00000206169886115496069086005E0D4E9E4
:1028F00005014861D4E905108861114800686061EC
:102900000F4804600FA0E0643846FDF7E5FC0E4870
:102910000078012801D100F017FD002074E70000C5
:10292000A1000020B4000020387B0020A600002079
:10293000A5000020A2000020AF000020C000002061
:10294000B80000203F000000AE0000207047704734
:102950002DE9F04106460F4614464FF00008154891
:10296000007818B112202070BDE8F081FDF7B0FCAE
:102970008046FF2E03D11048006890F832600F485F
:1029800050F826502DB94046FDF7A6FC4320207094
:10299000EAE7012D05D14046FDF79EFC432020705B
:1029A000E2E7EF644046FDF797FC0020207000BF8F
:1029B000DAE70000A1000020B4000020387B0020EE
:1029C000704770472DE9F04707460D464FF0000A63
:1029D000002028606860FDF77BFC8246FF2F03D152
:1029E0001948006890F83270184850F827402CB900
:1029F0005046FDF771FC4320BDE8F087012C04D15F
:102A00005046FDF769FC4320F6E7207C00F001000A
:102A100020B95046FDF760FC4520EDE70026D4F8CC
:102A20000C90D4F808805046FDF756FC00E0761C68
:102A300058F8041B0029FAD0B0002860A9EB060062
:102A4000800068600020D7E7B4000020387B0020B9
:102A500070B5044610460026051F28462E604FF428
:102A60008056051F28462E601526051F28462E6015
:102A70001426051F28462E601326051F28462E60A3
:102A80001226051F28462E601126051F28462E6097
:102A90001026051F28462E600926051F28462E6091
:102AA0000826051F28462E600726051F28462E608B
:102AB0000626051F28462E600526051F28462E607F
:102AC0000426051F28462E600326051F28462E6073
:102AD0000226051F28462E600126051F28462E6067
:102AE0000026051F28462E604FF080750560051FE3
:102AF00028462C60414E051F28462E604FF01236A6
:102B0000051F28462E604FF00336051F28462E600D
:102B10004FF00236051F28462E607610051F284606
:102B20002E60051F284629603126051F28462E6085
:102B30003026051F28462E602926051F28462E60B0
:102B40002826051F28462E602726051F28462E60AA
:102B50002626051F28462E602526051F28462E609E
:102B60002426051F28462E602326051F28462E6092
:102B70002226051F28462E602126051F28462E6086
:102B80002026051F28462E601926051F28462E6080
:102B90001826051F28462E601726051F28462E607A
:102BA0001626051F28462E604FF01136051F2846B1
:102BB0002E604FF01036051F28462E604FF0093664
:102BC000051F28462E604FF00836051F28462E6048
:102BD0004FF00736051F28462E604FF00636051FBA
:102BE00028462E604FF00536051F28462E604FF010
:102BF0000436051F28462E6070BD000045350008CC
:102C00002DE9F04105464FF00008FDF761FB8046D5
:102C1000FF2D05D12048006890F83250012608E0C9
:102C20001D48006890F83200A84201D1012600E05A
:102C300000261A4850F825402CB94046FDF74CFBB9
:102C40004820BDE8F081012C04D14046FDF744FB4B
:102C50004320F6E794F834701148C05D94F83510BD
:102C600088430F49C8550846C05D30B994F83610FE
:102C70000C48007888430B49087094F8300040F005
:102C8000080084F830004046FDF726FB012E01D1F4
:102C900000F05AFB0020D4E7B4000020387B00206D
:102CA000A6000020A50000207047000070B5054672
:102CB00000261748007800B170BD1648007800B1B2
:102CC000FAE71DB3FDF704FB06461348006890F8C9
:102CD00034401248005D1049096891F83510884366
:102CE0000E4908550846005D40B90B48006890F849
:102CF00036100B4800788843094908700648006878
:102D0000C5623046FDF7E8FA00F01EFB00BFD3E7CE
:102D1000A1000020A2000020B4000020A600002096
:102D2000A500002070B5002600F072F8FDF7D0FA7B
:102D3000064631480068401C2F4908603046FDF7C0
:102D4000CBFA2E480078012853D12D48007820B1C5
:102D5000012804D0022809D103E001250BE0002559
:102D600009E0012501202649087004E00125002022
:102D70002349087000BF00BF05B970BD2148046831
:102D800033E0FDF7A5FA0646E06A50B3E06A401E5C
:102D9000E062E06A28BB94F8300000F0370040B1F0
:102DA00014F8300F00F0C800207001206070303C33
:102DB00002E0002084F8310094F8300000F00800B0
:102DC00078B93434A0781049097808430E4908705E
:102DD00020780E49085C6178084314F834190B4ACE
:102DE000505464693046FDF777FA94F832003F2872
:102DF000C7D100BFC1E70000CC000020AE0000201A
:102E0000C4000020C0000020A5000020A600002073
:102E1000704770472DE9F04F05460F46904699469A
:102E2000A87A19490E5C05F10B00805D11F800B01D
:102E30000BEBC60000F0FF0A144850F82A400020AF
:102E40002034E0602760207C20EA0800207484F8A9
:102E50001190207C203C00F0080068B994F83600FE
:102E60000B49097808430A4908700A48805D94F8BC
:102E700035100843074988552946204600F00CF8CC
:102E80005046BDE8F08F000026E50008387B0020A2
:102E9000A5000020A600002010B590F8342001F114
:102EA0000B039B5C90F83540A34301F10B04A35442
:102EB00023469B5C23B98B7A90F83640A3438B72F0
:102EC00010BD000010B51B4A1268D061194A126883
:102ED00092F8343000F10B02D25C164B1B6893F869
:102EE00035301A43134B1B6893F8344000F10B0341
:102EF0001A55827A0F4B1B6893F836301A43827248
:102F00000C4A126892F834100B4A525C094B1B6849
:102F100093F835309A43084B5A541A46525C42B9DA
:102F2000044A126892F83630044A12789A43034BE6
:102F30001A7010BDB4000020A6000020A5000020DB
:102F4000014600228A72002005E0002301F10B02F5
:102F50001354421CD0B20828F7D37047F0B514467A
:102F6000059E244F3F6897F8307047F02007DFF840
:102F700084C0DCF800C08CF830700027DFF874C023
:102F8000DCF800C08CF831701A4F3F68FE62194FB0
:102F90003F6879620C828B74164F3F688F60476878
:102FA0000F6000274F60C860456805B169604160E7
:102FB000104F3F6897F834200F4FBF5CDFF834C0E4
:102FC000DCF800C09CF835C027EA0C07DFF828C001
:102FD0000CF802706746BF5C5FB9064F3F6897F810
:102FE00036C0064F3F7827EA0C07DFF810C08CF890
:102FF0000070F0BDB4000020A6000020A500002055
:103000002DE9F0415021114800F06CF900250DE048
:10301000681C86B20D4800EB051400EB0617002073
:10302000207067600AA0E060681C85B2042DEFD3B1
:10303000064800EB051400202070606004A0E060EA
:10304000024804490860BDE8F0810000E8760020ED
:103050003F00000090000020F0B506460F46B4681F
:103060000020283460602780207A00F0DF00207282
:1030700000206072207A283C88B93434A0780B494B
:10308000097808430949087020780949085C617883
:10309000084314F83419064A5054012500E000256D
:1030A000304600F007F82846F0BD0000A5000020DB
:1030B000A600002030B501464A6808682AB9CC68E5
:1030C000606028B10025456002E0106000B14260F8
:1030D0008B6800255D6230BD70B5C821114800F0D5
:1030E00001F900230FE0581C85B203EB83000D4962
:1030F00001EB800405EB850001EB800600202070C9
:103100006660581C83B2092BEDD303EB830005499D
:1031100001EB8004002020706060084602490860CE
:1031200070BD0000207600208C00002000200A499D
:1031300008600A4908700A4908700A4908700A4973
:1031400008700A4908600A4908600A4908600A4983
:1031500008600A4908707047CC000020A1000020D8
:10316000A2000020AF000020AE0000208800002058
:10317000B00000209C00002098000020A00000204B
:1031800000210A4A1170002004E00021084A11546D
:10319000411CC8B20828F8D30021064A1170064A1B
:1031A0001170064A1160064A11607047A5000020A0
:1031B000A6000020A3000020A4000020BC000020E6
:1031C000B400002070B54FF47C71194800F08AF803
:1031D0004FF48071174800F085F8002413E0601C5C
:1031E000C5B2C4EBC40000EB4000114901EB800301
:1031F000C5EBC50000EB400001EB80065E610EA050
:10320000D864601CC4B20B2CE9D3C4EBC40000EB3F
:103210004000074901EB80030020586106A0D864F4
:1032200000200649086002480549086070BD00009A
:10323000387C0020387B00203F000000C0000020C8
:10324000B800002000B587B00320002180220A4B7F
:10325000CDE90132CDE903104FF6FF703F23074A55
:1032600000900748FFF76AFA06AA06A13F20FFF779
:103270006FFB07B000BD000038790020347B0020D0
:103280001D35000875432F4F532D49492049646C63
:103290006500000000B587B00320002180220A4BA2
:1032A000CDE90132CDE903104FF6FE703E23074A07
:1032B00000900748FFF742FA06AA06A13E20FFF752
:1032C00047FB07B000BD00003877002034790020AC
:1032D0005D35000875432F4F532D494920537461C4
:1032E0007400000004E0002200F8012B4A1E91B295
:1032F0000029F8D1704700002DE9F04178211048ED
:10330000FFF7F0FF00240DE0601C86B204EB4400E0
:103310000B4901EBC00506EB460001EBC0072F602F
:10332000601C84B2042CEFD304EB4400044901EB8D
:10333000C00500202860084602490860BDE8F08109
:1033400028800020C800002010B50024FCF7C0FF32
:10335000044613480078F8B912480078E0B900F044
:103360002DF811481149097850F8210010490860DA
:103370000E4800780F49097888420DD00C48006843
:10338000806B401C0A49096888630B480068401C30
:1033900009490860FCF7B5FF2046FCF79DFF10BD0A
:1033A000A1000020A2000020387B0020A400002003
:1033B000BC000020A3000020880000200649074A26
:1033C0001278885C0649095C034A515C01EBC00134
:1033D000044A11707047000026E50008A50000208F
:1033E000A6000020A40000202DE9F84F05460F4656
:1033F00090469946DDE90AAB00200090FCF768FF93
:1034000000903F480468002C74D0183454F8040C21
:103410003B4908600098FCF75FFF44F8187CA576EC
:10342000002020766076606144F814BC44F80CAC4F
:1034300044F8108C0C9824F8080C24F8069C002002
:10344000E077E810207705F00700E076217F012083
:103450008840A077E17E012088406077002060608E
:10346000E060A0602062A0626062E062206325A04C
:103470006063183C002606E0002104F1500040F88B
:103480002610701CC6B2002EF6D02046FFF704F9B5
:103490002046FFF7AFF9FCF71BFF00901A4840F8F1
:1034A00025401A48006860610020A0611748006844
:1034B00010B1164800688461144804603434A07860
:1034C0001349097808431249087020781149085CAB
:1034D0006178084314F834190E4A50540E480078A5
:1034E000401C0D4908700098FCF7F6FE0020BDE86E
:1034F000F88FFFE70098FCF7EFFE4220F7E70000A7
:10350000B80000203F000000387B0020C0000020F1
:10351000A5000020A6000020AF000020002400BF6E
:1035200000BFFCF7D5FE044605480068401C04496E
:1035300008602046FCF7D0FEFFF709FAF1E700002B
:10354000B000002010B504480068FFF739FAFF20EA
:10355000FFF752F910BD0000B4000020002400BFA6
:1035600002E0C820FFF7A2FB194800780028F8D035
:10357000184800686421B0FBF1F01649086008465D
:10358000006828B9002014490870FF20FFF738FBB5
:1035900000BFFCF79DFE0446104800681049086013
:1035A00000200E4908602046FCF796FE0C48006893
:1035B00008490968B0FBF1F0C0F1640006490870E1
:1035C000FFF7FFF900F00EF86420FFF76FFBE0E76C
:1035D000A00000209800002094000020B0000020EF
:1035E0009C0000207CB5002514E069462846FFF7C2
:1035F000E9F9064666B9094850F8254044B1012C5E
:1036000006D0D4E9020100EB810060640198A06457
:10361000681CC5B23F2DE8D97CBD0000387B002076
:1036200002F0010343B102F002032BB102E0491E94
:10363000002308C00029FAD17047000010B50446E5
:1036400000BF0548008800F040000028F9D021465E
:10365000014800F0F1FE10BD0010014010B5044615
:1036600000BF0548008800F040000028F9D021463E
:10367000014800F0E1FE10BD0048004029B1064AB3
:1036800012680243044B1A6004E0034A1268824342
:10369000014B1A60704700003038024029B1064AD9
:1036A00012680243044B1A6004E0034A1268824322
:1036B000014B1A60704700004038024029B1064AA9
:1036C00012680243044B1A6004E0034A1268824302
:1036D000014B1A607047000044380240F0B50021E9
:1036E00000220024022500260223324F3F6807F003
:1036F0000C0121B1042905D0082937D105E02E4F4E
:10370000076036E02D4F076033E02A4F3F1F3F68C8
:10371000C7F38056274F3F1F3F6807F03F036EB146
:10372000264FB7FBF3F7DFF88CC0ACF1040CDCF8E4
:1037300000C0CCF3881C07FB0CF40CE01E4FB7FB59
:10374000F3F7DFF870C0ACF1040CDCF800C0CCF388
:10375000881C07FB0CF4174F3F1F3F68C7F3014756
:103760007F1C7D00B4FBF5F7076002E0124F076095
:1037700000BF00BF0F4F3F6807F0F0010909104F6D
:103780007A5C0768D74047600A4F3F6807F4E0510A
:10379000890A0B4F7A5C4768D7408760054F3F68BE
:1037A00007F46041490B064F7A5C4768D740C76011
:1037B000F0BD0000083802400024F40000127A0036
:1037C00078000020704700000CB5002001900090A8
:1037D0003448006840F480303249086000BF314806
:1037E000006800F4003000900198401C019000989F
:1037F00018B90198B0F5A04FF1D12A48006800F43B
:10380000003010B10120009001E0002000900098ED
:10381000012846D123484030006840F080502149BB
:10382000403108602048006840F440401E4908606C
:103830001C48083000681B490831086008460068C9
:1038400040F4004008600846006840F4A05008605A
:103850001648091F0860081F006840F08070091FA3
:10386000086000BF0F48006800F000700028F9D021
:1038700040F205700E4908600A480830006820F0E0
:1038800003000849083108600846006840F002005B
:10389000086000BF03480830006800F00C000828EA
:1038A000F8D10CBD003802400070004008544007B9
:1038B000003C0240042808D14FF0E021096941F0A2
:1038C00004014FF0E022116107E04FF0E0210969A7
:1038D00021F004014FF0E0221161704710B5FEF7AE
:1038E00049FDFFF71FFAFEF757FD10BD10B515484B
:1038F000006840F47000134908601348006840F005
:1039000001001149086000200F49083108600E4885
:1039100000680E4908400C4908600D48091D086000
:10392000081F006820F48020091F08600020064955
:103930000C310860FFF748FF4FF000600149803903
:10394000086010BD88ED00E000380240FFFFF6FE81
:103950001030002470B504466FF00400FFF7AAFF92
:10396000E11704EB5171CD104FF47A7045434FF0DD
:10397000E020006940F002004FF0E02108610846B5
:103980004561006940F00100086170BDF0B50C466A
:10399000154600210022068C4FF6FE773E40068435
:1039A000018B028C4FF60C7631407E1C06EA031622
:1039B0002E4331434FF6F576324044F00106324350
:1039C00001830284F0BDF0B50C46154600210022AB
:1039D0000026078C4FF6EF7C07EA0C070784018B63
:1039E000028C4FF6FF7707EA041640F6FF4739408E
:1039F0004FF6FF7707EA033739434FF6FF7707EAB9
:103A0000052739434FF65F773A4046F010073A43AF
:103A100001830284F0BDF0B50C461546002100225A
:103A20000026078C4FF6FF6C07EA0C070784818B92
:103A3000028C4FF6FF7707EA04264FF60C773940E1
:103A40004FF6FF7707EA03172F4339434FF2FF572B
:103A50003A4046F480773A4381830284F0BDF0B562
:103A60000C461546002100220026078C4EF6FF7CEE
:103A700007EA0C070784818B028C4FF6FF7707EA71
:103A8000043640F6FF4739404FF6FF7707EA05272F
:103A900039434FF6FF7707EA0337394345F6FF7797
:103AA0003A4046F480573A4381830284F0BD0000D7
:103AB00010B50421080700F0A0F868B109A0FCF7D0
:103AC00075FC00210A48FDF7F5FD0A4B012211465D
:103AD00009480068FEF79AFB0521880700F07EF888
:103AE00010BD00000D0A2A2A2A2A0D0A0000000033
:103AF000886002403C0000207000002010B50121C9
:103B00000846FFF7CBFD01210846FFF7C7FD01205E
:103B10002C49086002200871032048710020887138
:103B2000C8712948FDF7EDFE012200212648FDF766
:103B300030FF4FF0FF3025494860532008800020B7
:103B4000488008814FF0804000F042F904210807C6
:103B500000F008F94021080600F0F2F88021C805BD
:103B600000F0F7F800201A4908804880012088807A
:103B70000020C88008814FF0804000F04FF80020FE
:103B80001449088042F2107088600020888101206A
:103B90004880800700F082F801220421080700F025
:103BA00074F80121880700F01CF81C200A490870ED
:103BB00004204870002088700120C8700846FEF775
:103BC00083F910BD3400002000000240A00C00204A
:103BD000AC0C0020B80C002030000020CA43028248
:103BE000704721B1028842F00102028004E002889D
:103BF0004FF6FE731A400280704730B5024600202F
:103C000000230024158A05EA0103958905EA0104C9
:103C100013B10CB1012000E0002030BD70B50546A5
:103C20000C46208850B92389A28861882846FFF76E
:103C3000ADFEE188284600F09EF825E020880428A3
:103C40000AD12389A28861882846FFF7BCFEE18853
:103C5000284600F099F817E0208808280AD123891F
:103C6000A28861882846FFF7D6FEE188284600F042
:103C700098F809E02389A28861882846FFF7EFFEBB
:103C8000E188284600F096F870BD1AB183890B438D
:103C9000838102E083898B438381704770B5002460
:103CA00000220023058C4FF6EF7635400584028C08
:103CB0008388048B48F6FF752C404FF6FF452C4057
:103CC0000D884FF6FF7606EA05252C434FF6DF7583
:103CD0002A408D8906EA05152A434D8806EA05150E
:103CE0002A43154DA84202D0144DA8421DD14FF6CB
:103CF0007F752A40CD894FF6FF7606EA05152A43DF
:103D00004FF6BF752A408D8806EA05152A434FF6FF
:103D1000FF352B404FF2FF752B400D8A06EA8505D3
:103D20002B434D8A06EA85052B43838004838D68E7
:103D30008563028470BD0000000001400004014062
:103D40000A46002101894FF68F7319401143018102
:103D5000704702894FF67F731A40028102890A4335
:103D60000281704702894FF6F8731A400281028976
:103D70000A4302817047028B4FF6F3731A400283A5
:103D8000028B0A4302837047028B4FF2FF331A40C3
:103D90000283028B4FF6FF7303EA01231A43028367
:103DA0007047828B4FF6F3731A408283828B0A43EB
:103DB00082837047828B4FF2FF331A408283828B5B
:103DC0004FF6FF7303EA01231A4382837047000012
:103DD00000220288184B98420ED0184B98420BD004
:103DE000B0F1804F08D0164B984205D0154B984241
:103DF00002D0154B984204D14FF68F731A404B886E
:103E00001A43124B984207D0114B984204D04FF6F8
:103E1000FF431A400B891A4302804B68C3620B8828
:103E20000385054B984202D0044B984201D18B7A0E
:103E30000386012383827047000001400004014093
:103E40000004004000080040000C0040001000404A
:103E50000014004010B5044601210846FFF70EFC8F
:103E600001211020FFF72AFC072209213748FDF71E
:103E700090FD07220A213548FDF78BFD4FF4C06005
:103E800033490860022008714871002088710120C0
:103E9000C8712E48FDF735FD2E48046000202D49DD
:103EA0008880C880088188810C2048812A4800F0D9
:103EB00059FA0121284800F0F1F901224021264851
:103EC00000F0F8F9012240F22441234800F025FADD
:103ED00025202249087002204870002088700120A7
:103EE000C8700846FDF7F0FF01218805FFF7C6FB03
:103EF0001B48FDF7EBFB4FF000601A4908601648BD
:103F0000001D4860184888600020C86014200861BF
:103F1000002048614FF4806088610020C861086219
:103F20004FF4807048624FF4403088620420C862C9
:103F3000032008630020486388630948FDF7B2FC4A
:103F400001210748FDF7B6FB10BD0000000002404C
:103F5000040000205C010020001001400C00002043
:103F6000406402406C0100203401002010B504467A
:103F700001210846FFF782FB01214804FFF78EFB71
:103F8000072202212E48FDF704FD072203212C48B9
:103F9000FDF7FFFC0C202B490860022008714871D6
:103FA000002088710120C8712548FDF7AAFC264829
:103FB0000460002024498880C880088188810C2002
:103FC0004881224800F0CEF90121204800F066F92E
:103FD000012240211D4800F06DF901214805FFF73D
:103FE0004DFB1B48FDF772FB4FF00060194908605C
:103FF0001648001D4860184888600020C8604FF4CB
:1040000080600861002048614FF480608861002072
:10401000C86108624FF4807048624FF44030886293
:104020000420C862032008630020486388630848AE
:10403000FDF738FC01210648FDF73CFB10BD0000F0
:104040000000024014000020FC0900200044004051
:10405000886002400C0A0020A801002010B5044628
:1040600001210220FFF70AFB01218804FFF716FB5C
:1040700007220B213748FDF78CFC07220A2135481F
:10408000FDF787FC4FF44060334908600220087157
:104090004871002088710120C8712E48FDF731FC5D
:1040A0002E48046000202D498880C88008818881BE
:1040B0000C2048812A4800F055F90121284800F0D9
:1040C000EDF801224021264800F0F4F8012240F2E8
:1040D0002441234800F021F92720224908700420B8
:1040E0004870002088700120C8700846FDF7ECFE7B
:1040F00001218805FFF7C2FA1B48FDF7E7FA4FF0E8
:1041000000601A4908601648001D48601848886019
:104110000020C86014200861002048614FF48060CE
:1041200088610020C86108624FF4807048624FF4D3
:10413000403088620420C86203200863002048637E
:1041400088630948FDF7AEFB01210748FDF7B2FA85
:1041500010BD00000004024024000020540C002088
:10416000004800402C00002028600240640C002021
:10417000480A002070B5002540F22441144800F0A0
:10418000A2F810B300211348FDF794FA10480588EF
:1041900085881048FDF746FBC0F1140529460EA09E
:1041A000FCF704F9002406E00D48015D0DA0FCF7C2
:1041B000FDF8601C84B2AC42F6D314210548FDF72B
:1041C0009DFB01210348FDF775FA00BF70BD00009B
:1041D00000100140406402400D0A25640D0A0000F1
:1041E000340100202563200010B540F224410A4824
:1041F00000F069F868B108480488001D0488074881
:10420000FDF710FBC0F5806084B2214604A0FCF7E6
:10421000CDF800BF10BD000000440040886002409F
:104220000D0A25640D0A000070B5002540F22441F6
:10423000144800F048F818B300211348FDF73AFA83
:1042400010480588001D05880F48FDF7EBFAC0F1FE
:10425000140529460DA0FCF7A9F8002406E00D4836
:10426000015D0DA0FCF7A2F8601C84B2AC42F6D34D
:1042700014210548FDF742FB01210348FDF71AFA16
:1042800000BF70BD00480040286002400D0A256450
:104290000D0A0000480A00202563200021B1828910
:1042A00042F40052828104E082894DF6FF731A4085
:1042B000828170471AB1838A0B43838202E0838A2A
:1042C0008B438382704770B502460024002300258B
:1042D000002040F66A16B14200D100BFC1F342157A
:1042E00001F01F03012606FA03F3012D02D196897E
:1042F000334006E0022D02D1168A334001E0968A4F
:1043000033400C12012606FA04F41688344013B127
:104310000CB1012000E0002070BDF0B50346002480
:1043200000260025002040F66A17B94200D100BFE0
:104330001846C1F3421401F01F06012707FA06F5DB
:10434000012C01D10C3004E0022C01D1103000E02E
:1043500014301AB107682F43076002E00768AF43C3
:104360000760F0BD2DE9FF4705460E460024A14633
:1043700000BFA046B08900B100BF2C8A24F440548D
:10438000F08804432C82AC8941F20C608443B088ED
:1043900031890843718908430443AC81AC8A24F411
:1043A0004074B0890443AC826846FFF797F920480F
:1043B000854202D01F48854202D1DDF80C9001E011
:1043C000DDF80890A88900F4004040B109EBC9006D
:1043D00000EB091031684900B0FBF1F707E009EB89
:1043E000C90000EB091031688900B0FBF1F76420C7
:1043F000B7FBF0F004012009642101FB1078A889C3
:1044000000F4004040B1322000EBC800B0FBF1F0F6
:1044100000F00700044308E0322000EB081064219C
:10442000B0FBF1F000F00F0004432C81BDE8FF87E2
:104430000010014000140140C1F30802828070475F
:1044400000BFFEE703B401984100009850EAC12084
:1044500018BF04204A0D18BF40F0010040F2FF725F
:10446000B2EB515F08BF40F00200012808BF0520F1
:1044700002B070470000000010B5B94A2DED020BE4
:104480002DED0C8B82B00F9921F000409FEDB6CB43
:1044900090422CDBA0F140530E9AA3F17F631A43A4
:1044A0000FD0B349884202DC16D10E98A0B19DED21
:1044B0000E0B02B0BDEC0C8B02B0BDE8104000F05A
:1044C000D3BD0029C1BF9FEDAC0B02B0BDEC0C8B7E
:1044D00002B0C8BF10BD16E00120FCF77FF802B0A3
:1044E000BDEC0C8B02B0BDE8104000F0C9BDA44A81
:1044F0009FEDA59B9FEDA6AB90425EDAA6499FED8E
:10450000A8CB814208DBB0EE4C0AF0EE6C0A02B098
:10451000BDEC0C8B02B010BD9DED0E0B53EC102BBF
:1045200051EC100B09F002FD41EC180B9E480621DE
:10453000B0EE480AF0EE680A784400F081FC53ECD3
:10454000182B51EC100B09F0F1FC41EC1B0B9748B8
:10455000B0EE480AF0EE680A0421784400F070FCDE
:1045600053EC182B51EC100B09F0E0FC53EC192B19
:1045700009F0FEF941EC100B51EC1B0B53EC102B26
:1045800009F0AAFA41EC100B53EC102B9DED0E0B29
:1045900051EC100B09F0CAFC53EC1A2B09F0FAFD90
:1045A0009DED0E1B53EC112B09F0F4FD53EC1C2B6D
:1045B00009F0F0FD41EC100BA9E79FED7D8B9FED1D
:1045C0007EBB9DED0E0B002953EC192B51EC100B0B
:1045D00052DA09F0CDF953EC182B09F0A7FC41ECA5
:1045E000180B77480621B0EE480AF0EE680A7844C6
:1045F00000F026FC53EC182B51EC100B09F096FC44
:1046000041EC1D0B6F48B0EE480AF0EE680A042139
:10461000784400F015FC53EC182B51EC100B09F00A
:1046200085FC53EC192B09F0A3F941EC190B51EC63
:10463000180B03F0F9FD41EC180B53EC192B51EC5E
:104640001D0B09F049FA53EC182B09F06FFC53ECE1
:104650001A2B09F077FE41EC100B51EC180B53ECC0
:10466000102B09F085F953EC1B2B09F05FFC53EC80
:104670001C2B09F08FFD6DE009F08CFD53EC182B1D
:1046800009F054FC41EC180B03F0CEFD41EC1A0B81
:1046900000208DED00AB00909DED000B51EC1A0B4E
:1046A00053EC102B09F064F99DED000B41EC1C0B51
:1046B00053EC102B51EC100B09F038FC53EC182B79
:1046C00009F068FD53EC1C2B09F006FA41EC1C0BB9
:1046D0003D48B0EE480AF0EE680A0621784400F042
:1046E000AFFB53EC182B51EC100B09F01FFC41EC05
:1046F0001D0B3648B0EE480AF0EE680A04217844F3
:1047000000F09EFB53EC182B51EC100B09F00EFC43
:1047100053EC192B09F02CF941EC100B51EC1D0B4B
:1047200053EC102B09F0D8F953EC1A2B09F0FEFBCF
:1047300053EC1C2B09F01CF941EC100B53EC102B23
:104740009DED000B51EC100B09F012F953EC1B2BF3
:1047500009F0ECFB41EC100BD9E600000000000072
:104760000000F03F00000000182D4454FB210940D8
:104770000000F07F000000000000000000000000CA
:104780000000E03F00000000000000000000F03FDB
:10479000075C143326A6913C0000603C000000003A
:1047A000182D4454FB21F93F14A1000022A1000060
:1047B000000000000000E03F00000000000000409A
:1047C0005EA000006CA00000709F00007E9F0000B3
:1047D00010B52F499FED2C1B2DED020B84B00598D1
:1047E00020F000408842D8BF9DED040B2DDD294903
:1047F000884209D1049840B94FF00100FBF7EEFE62
:1048000000F03EFC06B010BD05DB9DED040B00F092
:104810002BFC06B010BD68469DED040B00F03CF883
:1048200010F0030004BF9DED021B9DED000B0CD0AA
:1048300001280ED09DED021B9DED000B022817D024
:10484000012000F079FB06B010BD00F041FA06B07F
:1048500010BD9DED021B9DED000B012000F06CFBD7
:1048600051EC100B09F078F806B041EC100B10BDBC
:1048700000F02EFA51EC100B09F06EF806B041EC86
:10488000100B10BD00000000000000000000000040
:10489000FB21E93F0000F07F2DE9F14F04462DEDAB
:1048A000020B2DED088B8AB09FEDE70B80ED020B1C
:1048B000139EE74826F0004585420ADC9DED120B69
:1048C000002084ED000B0AB0BDEC088B03B0BDE8FE
:1048D000F08FE0489FEDE0AB9FEDE1BBA84247DDE4
:1048E000E14F9FEDE39B9FEDE48B9DED120B53ECAD
:1048F0001A2B51EC100B002E1CDD09F023FD41ECAE
:10490000100BBD4208D053EC1B2B51EC100B09F0DF
:1049100019FDC4E900010BE053EC192B51EC100B0D
:1049200009F010FD53EC182B09F00CFDC4E900014F
:104930000120C8E709F01CF841EC100BBD4208D07B
:1049400053EC1B2B51EC100B09F012F8C4E90001D9
:104950000BE053EC192B51EC100B09F009F853EC58
:10496000182B09F005F8C4E900014FF0FF30AAE761
:10497000C348A84279DB9DED120B51EC100B01F0FE
:1049800007FB41EC180B9FEDC00B53EC102B09F00B
:10499000CDFA9FEDBF1B53EC112B08F0E9FF09F096
:1049A0002FFA074609F05BFA41EC190B53EC1A2B6E
:1049B00009F0BCFA53EC182B09F0ECFB41EC180B96
:1049C00053EC1B2B51EC190B09F0B0FADFF8C8A21D
:1049D00041EC100B4FEA15580125FA4453EC102B0B
:1049E00051EC180B09F0AEFC032DC4E900013DD0D9
:1049F000C1F30A5005EB4511A8EB000011398142C3
:104A000034DA0AEB051BB0EE48AA9BED000BF0EE82
:104A100068AA53EC102B51EC190B09F087FA41EC02
:104A20001B0B51EC1A0B53EC1B2B09F08BFC41ECCC
:104A3000180B51EC1A0B53EC182B09F083FC53ECB8
:104A40001B2B09F07FFC9BED020B41EC1A0B53EC86
:104A5000102B51EC190B09F069FA53EC1A2B09F0E1
:104A600071FC41EC100B6D1CB8E70EE0002EA8BFE6
:104A70003846BFF628AF94ED000B51EC100B08F050
:104A80006BFFC4E9000178421DE7C6F3130040F450
:104A9000801EC6F30A50A0F2F530471100F01F0542
:104AA000C5F12000DDF848B008900020069007907E
:104AB0000520EC467949002D07EB0002794408BF38
:104AC00051F8221009D051F8223001EB8201AB409D
:104AD0004A68089922FA01F11943A1FB0E26A1FBAD
:104AE0000B131A449A4234BF0123002303EB060838
:104AF0000CEB8003D3E901A60E448E4234BF0121A2
:104B0000002192448A4411B1924502D903E09245B2
:104B100001D2012100E00021C3E901A641444CF883
:104B20002010011EA0F10100C4DC029800F1005029
:104B3000850F0298DDE903678000DDF8148009F035
:104B40008EF941EC1A0B304609F0A0F99FED541B89
:104B500053EC112B09F0EAF941EC1B0B384609F034
:104B600095F99FED511B53EC112B09F0DFF941EC46
:104B7000180B404609F08AF99FED4D1B53EC112BA1
:104B800009F0D4F941EC190B51EC180B53EC192B2B
:104B900008F0EEFE53EC1B2B08F0EAFE53EC1A2B48
:104BA00008F0E6FECDE90801002008909DED080B15
:104BB00053EC1A2B51EC100B09F0C4FB53EC1B2BDC
:104BC00009F0C0FB53EC182B09F0BCFB53EC192B7C
:104BD00009F0E0FA9FED381B53EC112B09F0A6F910
:104BE0009FED370B41EC180B53EC102B9DED080B90
:104BF00051EC100B09F09AF953EC182B08F0B8FEA1
:104C00009FED310B41EC180B53EC102B9DED080B75
:104C100051EC100B09F08AF953EC182B08F0A8FEA0
:104C200041EC100B139810F0004F06D06D4251EC80
:104C3000100B08F091FE41EC100B284684ED000BA0
:104C400041E600000000000000000000000000003D
:104C5000FB21E93F7CD9024000004054FB21F93F91
:104C60003163621A61B4D03DFB21F93F00000000BE
:104C70000000601A61B4D03D7370032E8A19A33B03
:104C8000FB2139410000000083C8C96D305FE43F5B
:104C9000000000000000E03FF29C0000409C00008B
:104CA000000000000000103E000000000000103C6A
:104CB000000000000000103A182D4454FB21F93D7B
:104CC0003326A611460B113C00000054FB21F93D90
:104CD00010B52DED040B2DED088B82B0B0EE419A8E
:104CE000F0EE619A0B9820F000449FED4BABB4F1CD
:104CF000795F11DA9DED0A0B51EC100B09F080F889
:104D0000002801BFB0EE4A0AF0EE6A0A02B0BDEC1C
:104D1000088B04BF04B010BD9DED0A0B53EC102BA3
:104D200051EC100B09F002F941EC180B3C4806213C
:104D3000B0EE480AF0EE680A784400F081F853ECCF
:104D4000182B51EC100B09F0F1F89DED0A0B41EC1A
:104D50001B0B53EC192B51EC100B09F0E7F841EC4D
:104D6000190B53EC1B2B51EC180B09F0DFF853EC2B
:104D7000192B09F0E7FA9FED2C0B41EC190B53ECC2
:104D8000102B51EC180B09F0D1F841EC100B28480E
:104D9000844210DA53EC192B51EC100B09F0D2FAC3
:104DA00053EC1A2B09F0F6F941EC100B02B0BDECF4
:104DB000088B04B010BD1F48A042BCBF9FED1E1B56
:104DC0008DED001B06DBA4F5001001900020009083
:104DD0009DED001B51EC100B53EC112B09F0B2FAB6
:104DE0009DED000B41EC180B53EC102B51EC1A0B02
:104DF00009F0A8FA41EC1A0B53EC192B51EC180BE3
:104E000009F0A0FA53EC1A2B09F0C4F941EC100B8D
:104E1000CCE7000000000000000000000000F03FB0
:104E20006499000000000000000000000000E03F66
:104E30003333D33F0000E93F000000000000D23FC1
:104E400070B504462DED028B4D1E00EBC500B0EE93
:104E5000408AF0EE608A90ED000B35F0060017D026
:104E600053EC182B51EC100B09F060F841EC100BCF
:104E70006D1E04EBC50090ED001B51EC100B53ECC4
:104E8000112B08F075FD41EC100B35F00600E7D151
:104E9000022D36D0042D1CD0062D1CBFBDEC028B7C
:104EA00070BD53EC182B51EC100B09F03FF894ED4A
:104EB0000A1B53EC112B08F05BFD53EC182B09F087
:104EC00035F894ED081B53EC112B08F051FD41EC23
:104ED000100B53EC182B51EC100B09F027F894ED44
:104EE000061B53EC112B08F043FD53EC182B09F073
:104EF0001DF894ED040B53EC102B08F039FD41EC38
:104F0000100B53EC182B51EC100B09F00FF894ED2B
:104F1000021B53EC112B08F02BFD53EC182B09F05E
:104F200005F894ED001B53EC112B08F021FDBDECAE
:104F3000028B41EC100B70BD31B504462DED040B16
:104F40002DED0A8BB0EE41BAF0EE61BA0B989DEDF3
:104F50000A0B20F00040B0F1795F0DDA51EC100B34
:104F6000FFF770FA042808BF00F09AF89DED0A0BCD
:104F7000BDEC0A8B05B030BD53EC102B51EC100B7F
:104F800008F0D4FF41EC180B9DED0A0B53EC182BE5
:104F900051EC100B08F0CAFF41EC190B2C48B0EE95
:104FA000480AF0EE680A05217844FFF749FF9FEDB3
:104FB0002ACBB0EE40AAF0EE60AA9CB353EC1C2BB7
:104FC00051EC190B08F0B2FF41EC1C0B53EC1A2BFF
:104FD00051EC190B08F0AAFF9FED210B41EC190BC6
:104FE00053EC102B51EC1B0B08F0A0FF53EC192BCA
:104FF00009F0A8F953EC182B08F098FF53EC1B2B81
:1050000009F0A0F953EC1C2B09F09CF99DED0A1B4B
:1050100053EC112B09F0BEF8BDEC0A8B05B041EC46
:10502000100B30BDFFE753EC1A2B51EC180B08F0B6
:105030007DFF53EC1C2B08F09BFC53EC192B08F064
:1050400075FF9DED0A1B53EC112B08F091FCE3E773
:10505000EC97000000000000495555555555C5BF57
:10506000000000000000E03F10B553EC102B51ECA5
:10507000100B08F07DFC41EC100B10BD000000008F
:105080009FED050B10B553EC102B51EC100B08F0F5
:1050900023FD41EC100B10BD0000000000000000DB
:1050A0009FED050B10B553EC102B51EC100B08F0D5
:1050B0003DFF41EC100B10BD00000000000000108F
:1050C000014600BF704700001CB500BF00242EE061
:1050D00001A8002382220121009015480068FCF7F6
:1050E0006BFF1448FCF7A2FB01280CD1002404E05C
:1050F0001149085DFEF7A2FA641C322CF8D3612036
:10510000FEF79CFA0BE0002404E00C49085DFEF772
:1051100095FA641C322CF8D36220FEF78FFA074907
:1051200007480068FDF75AFA0320FDF7BFFDCFE7F7
:105130006C00002058600240D000002002010020D6
:105140006000002010B52DED088BB0EE408AF0EE27
:10515000608AB0EE419AF0EE619A9FED0E0BB0EED0
:1051600040AAF0EE60AA53EC192B51EC180B09F091
:10517000E9F841EC1B0B9FED090B53EC102B08F0E9
:10518000D5FE41EC1A0BB0EE4A0AF0EE6A0ABDEC0D
:10519000088B10BD000000000000000000000000AF
:1051A00000004E4000B52DED108B9BB0B0EE408A54
:1051B000F0EE608AB0EE41CAF0EE61CAB0EE429AFB
:1051C000F0EE629AB0EE43DAF0EE63DA9FEDE50BB3
:1051D0008DED180B53EC1D2B51EC1C0B09F0B2F8A4
:1051E00041EC1A0B53EC1A2B51EC180B08F0D2FFC0
:1051F00053EC192BCDE90E019DED0E0B51EC100B6C
:1052000009F0A0F89FEDD90B53EC102BCDE910015C
:105210009DED100B51EC100B08F088FE9FEDD50BA7
:1052200053EC102BCDE912019DED120B51EC100B3C
:1052300008F052FC41EC1F0BB0EE4F0AF0EE6F0A83
:10524000FFF7C6FAB0EE40EAF0EE60EA9FEDCB0B56
:1052500053EC102B51EC1E0B08F03EFC53EC1A2BB8
:10526000CDE9160151EC180B08F094FF53EC192B03
:10527000CDE90A019DED0A0B51EC100B08F078FB0B
:105280009FEDBA0B53EC102BCDE90C019DED0C0BEF
:1052900051EC100B08F04AFE9FEDB60B53EC102BAF
:1052A000CDE90E019DED0E0B51EC100B08F014FC36
:1052B00041EC1F0BB0EE4F0AF0EE6F0AFFF788FAD1
:1052C000B0EE40EAF0EE60EA9FEDAC0B53EC102B31
:1052D00051EC1E0B08F000FC53EC1A2BCDE9120127
:1052E00051EC180B08F044FB53EC192BCDE90601E7
:1052F0009DED060B51EC100B09F024F841EC1F0B4F
:105300009FED9A0B53EC102B08F010FE9FED990BBC
:1053100053EC102BCDE908019DED080B51EC100B5F
:1053200008F0DAFB41EC1E0BB0EE4E0AF0EE6E0A0E
:10533000FFF74EFA8DED0A0B9FED900B53EC102BFF
:105340009DED0A0B51EC100B08F0C6FB53EC1A2B29
:10535000CDE90E0151EC180B08F00AFB53EC192BA8
:10536000CDE902019DED020B51EC100B08F000FBA2
:105370009FED7E0B53EC102BCDE904019DED040B4A
:1053800051EC100B08F0D2FD41EC1F0B9FED790B97
:1053900053EC102B08F0A0FB41EC1E0BB0EE4E0AB4
:1053A000F0EE6E0AFFF714FA8DED060B9FED730B0E
:1053B00053EC102B9DED060B51EC100B08F08CFB01
:1053C00053EC192BCDE90A0151EC180B08F0D0FA77
:1053D00041EC1F0B9FED650B53EC102B08F0A6FD65
:1053E00041EC1E0B9FED630B53EC102B08F074FB8C
:1053F000CDE900019DED000BFFF7EAF98DED020B01
:105400009FED600B53EC102B9DED020B51EC100B3C
:1054100008F062FB53EC192BCDE9060151EC180B97
:1054200008F090FF41EC1F0B9FED500B53EC102B3D
:1054300008F07CFD9FED4F0B53EC102BCDE90001E4
:105440009DED000B51EC100B08F046FB41EC1E0BE0
:10545000B0EE4E0AF0EE6E0AFFF7BAF98DED020BD0
:105460009FED480B53EC102B9DED020B51EC100BF4
:1054700008F032FBCDE904019DED060B53EC102B37
:105480009DED040B51EC100B08F05CFFCDE9080119
:105490009DED0A0B53EC102B9DED080B51EC100BFE
:1054A00008F066FACDE90C019DED0E0B53EC102BC4
:1054B0009DED0C0B51EC100B08F05AFACDE91001E0
:1054C0009DED120B53EC102B9DED100B51EC100BBE
:1054D00008F04EFACDE914019DED160B53EC102B9C
:1054E0009DED140B51EC100B08F042FA41EC1B0B34
:1054F0009FED260B53EC102B51EC1B0B08F014FE08
:1055000006D29FED220BB0EE40BAF0EE60BA0EE08C
:105510009FED200B53EC102B51EC1B0B08F0CAFC39
:1055200005D29FED1C0BB0EE40BAF0EE60BAB0EEC3
:105530004B0AF0EE6B0AFEF79FFFB0EE40EAF0EE8A
:1055400060EA9FED160B53EC102B51EC1E0B08F08C
:10555000EDFCCDE918019DED180B1BB0BDEC108BD7
:1055600000BD000000000000000000004AD8124DFD
:10557000FB210940000000000080664000000000A0
:10558000000010400000000000000040000000008B
:105590000000F03F000000000000F0BF000000002D
:1055A00000E0AA402DE9F0472DED048B05460C469E
:1055B00090461E460C9F4FF00009B8F1010F50D1E4
:1055C000B4F5003F17D9C4F58029484608F05EFCC1
:1055D00041EC190B9FED4E0B53EC102B08F07CFAAD
:1055E00041EC180B9FED4C0B53EC102B08F0D2FD47
:1055F000C7E900010CE0204608F048FC41EC180B1C
:105600009FED430B53EC102B08F066FAC7E900013D
:10561000B5F5803F17D9C5F50039484608F036FC86
:1056200041EC190B9FED3A0B53EC102B08F054FA98
:1056300041EC180B9FED380B53EC102B08F0AAFD32
:10564000C6E9000160E0284608F020FC41EC180B98
:105650009FED2F0B53EC102B08F03EFAC6E900012A
:1056600052E0B8F1040F4FD1B4F1006F17D9C4F173
:105670008059484608F00AFC41EC190B9FED280BB5
:1056800053EC102B08F028FA41EC180B9FED220B7D
:1056900053EC102B08F07EFDC7E900010CE020461A
:1056A00008F0F4FB41EC180B9FED1D0B53EC102B95
:1056B00008F012FAC7E90001B5F1806F17D9C5F1FA
:1056C0000069484608F0E2FB41EC190B9FED140B12
:1056D00053EC102B08F000FA41EC180B9FED0E0B69
:1056E00053EC102B08F056FDC6E900010CE02846EB
:1056F00008F0CCFB41EC180B9FED090B53EC102B81
:1057000008F0EAF9C6E90001BDEC048BBDE8F087BA
:105710000000000000C08240000000000000000007
:1057200000000000804F22412DE9F84304460E4658
:10573000002000908046814600250027304602F078
:10574000C8FC00BF72E02178E81C814235DA20787D
:10575000401B012810D1042086F88300601C405DA6
:1057600080088DF80000601C405D8007800E8DF879
:1057700001004FF002084DE0022086F88300601C13
:10578000405D80088DF80000601C405D8007800E41
:105790008DF801009DF80120601C691C405C02EB43
:1057A0001010C0B28DF80100601C405C0007800E34
:1057B0008DF802004FF003082CE0601C405D80086B
:1057C0008DF80000601C405D8007800E8DF80100A0
:1057D0009DF80120601C691C405C02EB1010C0B2F7
:1057E0008DF80100601C405C0007800E8DF80200FF
:1057F0009DF80220601CA91C405C02EB9010C0B216
:105800008DF80200601C405C00F03F008DF8030042
:105810004FF0040806F10A00C2196946404600F03C
:1058200025FB07EB0800C7B2E81CC5B22078A842E8
:1058300089DC86F88270BDE8F8832DE9F8430446D8
:105840000E46002000908046814600250027304605
:1058500002F03FFC00BF6BE094F82810E81C814286
:1058600031DA94F82800401B01280ED1042086F874
:105870008300605D80088DF80000605D8007800E09
:105880008DF801004FF0020846E0022086F8830000
:10589000605D80088DF80000605D8007800E8DF8E7
:1058A00001009DF80110681C205C01EB1010C0B2D3
:1058B0008DF80100681C205C0007800E8DF8020046
:1058C0004FF0030828E0605D80088DF80000605DFF
:1058D0008007800E8DF801009DF80110681C205C87
:1058E00001EB1010C0B28DF80100681C205C0007AD
:1058F000800E8DF802009DF80210A81C205C01EBC0
:105900009010C0B28DF80200A81C205C00F03F008F
:105910008DF803004FF0040806F10A00C219694629
:10592000404600F0A3FA07EB0800C7B2E81CC5B276
:1059300094F82800A8428FDC86F8827094F8290039
:105940003072BDE8F8832DE9F04105460C46164655
:105950000027324604F58A71284600F01FF80746F2
:10596000324604F58A71284602F0E2FC21462846B8
:1059700000F0BAF8074604F5A071284602F064FE6C
:1059800004F54071284600F0E9F9074604F5407136
:10599000284603F041FA3846BDE8F0812DE9F84F7A
:1059A00004460B4616464FF0000800229146002799
:1059B0009246002100258C4600200090B9F1780F16
:1059C00000D3FF2232BB002122E0A07D01EB410B7E
:1059D00003F1020E0EEB4B0B9BF803B0584515D1AB
:1059E000E07D01EB410B0EEB4B0B9BF804B05845EF
:1059F0000CD1207E01EB410B0EEB4B0B9BF805B05D
:105A0000584503D1012088401043C2B2481CC1B29E
:105A10000529DADB002A4FD000214BE042FA01F0E1
:105A200000F00100F0B30098401CC0B200901820B4
:105A300001EB410B03F1020E0EEB4B0B8BF8030055
:105A4000002501EB410B981C30F81BC026E00CEB45
:105A500005004FEAE07B00EB5B7BCBF3CF070CEB61
:105A600005004FEAE07B00EB5B7B4FEAEB0BA0EB22
:105A7000CB0BCBF1070B0BF0FF0A06F5E170C05D15
:105A80004FF0010B0BFA0AFB80EA0B0000F0FF0B52
:105A900006F5E17000F807B0681CC5B201EB410BD8
:105AA000981C00E004E000EB4B008078A842CEDCBC
:105AB000481CC1B20529B1DB00210CE001EB410B10
:105AC000981C00EB4B00C078182802D04FF011084A
:105AD00003E0481CC1B20529F0DB00BF83F8288031
