:020000040800F2
:1000000018AE0020CD020008A3200008052000083B
:100010009F200008451700088550000800000000D8
:100020000000000000000000000000006F43000816
:10003000DD1A0008000000005D0300088544000888
:10004000E7020008E7020008E7020008E7020008EC
:10005000E7020008E7020008E7020008E7020008DC
:10006000E7020008E7020008E7020008E7020008CC
:10007000E7020008E702000849170008E702000845
:10008000E7020008E7020008E7020008E7020008AC
:10009000E7020008E7020008E7020008E70200089C
:1000A000E7020008E7020008E7020008E70200088C
:1000B00059460008E7020008E7020008E7020008C6
:1000C000E7020008E7020008E7020008E70200086C
:1000D000E7020008994D00082D4E00086D4E0008FB
:1000E000E7020008E7020008E7020008E70200084C
:1000F000E7020008E7020008E70200088517000889
:10010000E7020008E7020008E7020008E70200082B
:10011000E7020008E7020008E7020008E70200081B
:10012000E7020008E7020008E7020008E70200080B
:10013000E7020008E7020008E7020008E7020008FB
:10014000E7020008E7020008E7020008E7020008EB
:10015000E7020008E7020008B5170008E7020008F8
:10016000E7020008E7020008E7020008E7020008CB
:10017000E7020008E7020008E7020008E7020008BB
:10018000E7020008E702000800F002F800F074F847
:100190000AA090E8000C82448344AAF10107DA45E2
:1001A00001D100F069F8AFF2090EBAE80F0013F0C0
:1001B000010F18BFFB1A43F00103184710F90000A4
:1001C00030F900000A444FF0000C10F8013B13F026
:1001D000070408BF10F8014B1D1108BF10F8015BA0
:1001E000641E05D010F8016B641E01F8016BF9D193
:1001F00013F0080F1EBF10F8014BAD1C0C1B09D1EA
:100200006D1E58BF01F801CBFAD505E014F8016B5B
:1002100001F8016B6D1EF9D59142D6D370470000ED
:100220000023002400250026103A28BF78C1FBD8FF
:10023000520728BF30C148BF0B60704766290FF0D6
:10024000F081642900F03A81782900F073816329F4
:1002500000F08A84002070471FB50FF0DDF900F030
:10026000AAF900F0A3FC0400002000210EF0DEFB40
:10027000E0601FBD10B510BD00F0B0FD1146FFF7E6
:10028000EBFF08F0F3FC00F0CEFD03B4FFF7F2FF44
:1002900003BC05F035FD00000B49D1F800C04A68E9
:1002A0005CF8043B1068184442F8040B8C4528BFE6
:1002B000A1F1DC0C8A4228BFA1F1DC02C1F800C028
:1002C0004A6020F000407047ACA7002009488047F2
:1002D00009480047FEE7FEE7FEE7FEE7FEE7FEE728
:1002E000FEE7FEE7FEE7FEE704480549054A064B40
:1002F00070470000954400088901000818A80020F4
:1003000018AE002018AA002018AA0020EFF31080D1
:1003100072B6704780F310887047264C4FF6FF7511
:1003200025604FF0000484F30988234C4FF0010549
:100330002570224C4FF08055256062B6FEE730B440
:100340001E4C4FF08055256030BC704730B41B4CBC
:100350004FF08055256030BC704700BF72B6EFF398
:10036000098050B11EF0100F08BF20ED108A203810
:1003700080E8F00F12490968086000B5114880470D
:100380005DF804EB104811490A7802700C481049D6
:100390000A680260106890E8F00F20301EF0100F1D
:1003A00008BFB0EC108A80F309884EF0040E62B6E4
:1003B000704700BF22ED00E05601002004ED00E090
:1003C0005C010020313400084B0100204C0100206A
:1003D0006401002010B5044600211120ABBE002CA2
:1003E00000D0206010BD00000FB4044910B503AA6E
:1003F000029800F0C5FB10BC5DF814FB280000203B
:100400002DE9F0410E460446002020622046E168B6
:10041000884730B3252805D0D4E901219047206AC8
:10042000401CF2E7E168204600278847050018D005
:10043000A5F14100192802D820354FF40067324653
:10044000294620462760FFF7F9FE40B1012804D075
:10045000F61D26F007060836D8E7361DD6E72846EB
:10046000DAE7206ABDE8F08170B50C460546012A3E
:1004700005D02878800600D5EA69002302E0012330
:1004800005E05B1C934202D2E05C0028F9D1A86928
:10049000E618C01AA861286A184428622846AFF3F3
:1004A000008004E0D5E9012114F8010B9047B44223
:1004B000F8D32846AFF3008070BD00002DE9F0416D
:1004C0000646002410687529314616A510D0AFF3F2
:1004D0000080002802DA404213A507E031688A074D
:1004E00001D512A502E0490704D511A5012401E0B8
:1004F000AFF3008000210A2206F1240709E0B0FBD7
:10050000F2FCB0FBF2F302FB1C00303078541846CA
:10051000491C0028F3D123462A463046BDE8F04165
:1005200000F0B2B8000000002D0000002B00000019
:100530002000000070B504460D4621461068AFF358
:1005400000802188090502D50F4A7A4402E00E4A4C
:100550007A440E32002104F1240305E000F00F0676
:100560000009965D5E54491C0028F7D120780023CD
:10057000000704D5702D02D009B1022311322046A4
:10058000BDE8704000F080B8D8F100000B4910B50C
:10059000A1F17C020A4CC2E93712372106E000EBD8
:1005A000104342F82130074B00FB03400B1EA1F122
:1005B0000101F4DC10BD0120E8E700004CA7002099
:1005C000E119D666CD0D010010B5431C02E010F80C
:1005D000011B71B18107FAD14FF0013202C88C1AA8
:1005E0008C4314EAC211F9D0C01A0A0603D0C01E07
:1005F00010BDC01A10BD0A0401D0801E10BD090232
:10060000FCD0401E10BD10B5203AC0F00B80B1E800
:100610001850203AA0E81850B1E81850A0E8185037
:10062000BFF4F5AF5FEA027C24BFB1E81850A0E840
:10063000185044BF18C918C0BDE810405FEA827C5A
:1006400024BF51F8043B40F8043B08BF7047D20771
:1006500028BF31F8023B48BF11F8012B28BF20F812
:10066000023B48BF00F8012B704770477047704746
:10067000704710B500F09EFA006810BD10B5044632
:1006800000F098FA046010BD2DE9F0470D46994638
:100690009246044600F124080168880604D5E06902
:1006A00021F01001216000E00120A84201DD471B7C
:1006B00000E00027A1697A1902EB0900081AA0617D
:1006C0002078C00602D42046AFF30080002608E060
:1006D000D4E901211AF806009047206A401C761CD4
:1006E00020624E45F4DB2078C0060AD52046AFF3E1
:1006F000008006E0D4E9012130209047206A401CA8
:100700002062381EA7F10107F4DC07E0D4E90121DB
:1007100018F805009047206A401C2062281EA5F1A9
:100720000105F3DC2046AFF300802078000602D5F7
:100730000220BDE8F0870120FBE770472DE9FF4F5D
:100740000C461E464FF0FF378BB0D2E90001DDF8B2
:1007500060800A908A46C1F30A5505B93D460021DA
:1007600008464FF00000BAF1000F00F4400005DA2F
:1007700000EB80004FF4400101EA50004FEA90592D
:10078000B9F1010F00DDB9460A9850EA4A000ED0CF
:1007900044F61050A5F2FF3545432F14B8F1000F71
:1007A0001ED07542291E1EDDC9F100021CE0B8F101
:1007B000010F4FF0000001D0302103E0F24305E0CB
:1007C0002154401CB042FBDB304600220021215462
:1007D0000B99C1F80880C1E900200FB0BDE8F08F87
:1007E000BD1B6D1CDEE74A4600DA694206A800F030
:1007F00083FA06AB93E8070003AB83E80700504693
:100800000A9900F059FB8DE80700A0F500501F3849
:1008100000900398002D09DD42F21F014A4608446A
:1008200003A90390684600F0B8FD08E0A0F5005069
:100830004A461F3803A90390684600F0C2FD8DE8C0
:1008400007000004000C03D04FF0FF30410800E027
:100850001046B8F1000F03D00022009215461EE0AA
:10086000751E05D400F0AAF9303262556D1EF9D517
:10087000B3460122084302D000227F1C04E0207806
:10088000302801D100227F1E002A099786D01DE062
:10089000112D07DA00F092F9303262556D1C50EAE2
:1008A0000102F5D1084302D00098C8B10EE0002142
:1008B000681E05E0235C625C63542254401E491CA0
:1008C0008142F7DBAB46A81B401E0990002004F8CC
:1008D0000B000B98099AC0F80880C0E9002B7CE750
:1008E00011264FF0000859E72DE9F04F88460446DD
:1008F000D21D22F0070191B0D1E90001CDE90A0132
:1009000004F0C2FB02460B98C00F01D02D2007E077
:100910002068810701D52B2002E0202101EAC000D8
:10092000032A099001D0072A05DB034641462046E9
:1009300000F0A2F90BE12078800601D5E06900E023
:100940000620B8F1650F814606D0B8F1660F18D0C1
:10095000B8F1670F70D131E00020B9F1110F0090AC
:1009600001DB112301E009F101030AAA01A90CA886
:10097000FFF7E4FEDDE90C70002609F1010583466E
:1009800047E001204B4600904FF000470AAA01A91A
:100990000CA8FFF7D3FEDDE90DB00C995D460026EB
:1009A00010B909F101000D18B9EB050003D4C0F12D
:1009B000FF3609F10105A5EB09002BE0B9F1010FA4
:1009C00001DA4FF001090020B9F1110F00904846FB
:1009D00001DD112300E003460AAA01A90CA8FFF7D4
:1009E000ADFEDDE90C704D460026834620780007F9
:1009F0000AD4AB4500DA5D4601A8012D04DD41199A
:100A000011F8011C302907D04F4502DA17F1040F05
:100A100004DA012082460FE06D1EEEE7002F02DCB3
:100A2000ED1B3E4403E0781CA84200DD7D1CB81B92
:100A300000F1010A4FF000472078000703D4AA45CF
:100A400001DB4FF0FF3A0021B7F1004F0DF14308F1
:100A50008DF8431024D002202B23002F01DA7F428F
:100A60002D230A21021EA0F1010000DC5FB197FBDB
:100A7000F1FC97FBF1F201FB1C7C17460CF1300CEA
:100A800008F801CDEEE7A8F10100037021880905FF
:100A900001D5452100E06521A0F1010800F8011C05
:100AA00009980FA9A1EB0807FF1D00B1012041190A
:100AB00001EBEA70A1693844081A401EA061207851
:100AC000C00602D42046AFF30080099828B1D4E9CB
:100AD00001219047206A401C20622078C00622D560
:100AE0002046AFF300801EE0002E04DBB34502DD9C
:100AF00001A8805D00E03020D4E901219047206A00
:100B0000401C2062761CAAF101005FEA000A0AD1AB
:100B100000F04CF8C0680168405CD4E901219047BE
:100B2000206A401C2062281EA5F10105DCDC07E0DC
:100B3000D4E9012118F8010B9047206A401C20627B
:100B4000381EA7F10107F3DC2046AFF30080032035
:100B500011B043E610B5436913B1AFF3008001E073
:100B6000FFF782FC012010BD127800F124010A7009
:100B700000224A700122EDE711684FF0FF32E9E7E9
:100B8000074B70B50D467B4400F063F804462846D9
:100B900000F020F910B14FF0FF3070BD204670BD5D
:100BA0004F61000000487047B4A70020004870471C
:100BB000D4A7002000487047B4A7002030B5B0F19A
:100BC0000A024FEA900E71F100034EEA817EB0EB0B
:100BD0000E0061EB91014FEA101E4EEA017E10EB10
:100BE0000E0041EB11114FEA102E4EEA016E10EB90
:100BF0000E0041EB11214FEA104E4EEA014E10EB70
:100C00000E0041EB1141401841F100014FEAD000C4
:100C100040EA41704FEAD10110EB80054FEA8104B0
:100C200044EA907444EB01046D1944EB0404521B34
:100C3000A3414FF0000348BF0A3200D530BD401C2D
:100C400041F1000130BD000001694A1C02610878D1
:100C5000704700B58FB0CDE90131002105910549FC
:100C60007944CDE9031011466846FFF7C9FB0FB080
:100C700000BD0000E5FFFFFF2DE9F0411F460446DF
:100C800003260168072A01F4006004DB08B116A5F9
:100C900005E016A503E008B115A500E015A521F0B3
:100CA00010002060A069C01EA0610FB1401EA061AD
:100CB0002046AFF300804FB1D4E901213846904778
:100CC000206A401C2062C01C206206E0206AFAE70D
:100CD000D4E9012115F8010B9047761EF8D2204681
:100CE000AFF30080BDE8F0814E414E006E616E00B2
:100CF000494E4600696E66002DE9F047814616466A
:100D00008AB0334878440DC88DE80D0030487844E7
:100D1000801C03AC0DC884E80D0041F69B300844EC
:100D2000372190FBF1F290FBF1F5A5F1800501FB75
:100D300012041B3C02D56442012000E00020DFF8D1
:100D400090A080460027FA44AAF1BE0A0DE0E00711
:100D500009D03246684607EB47010AEB810100F0F3
:100D600030FB8DE8070064107F1C002CEFD1184F7A
:100D70007F44AC3F18E0E80714D007EB04100DF1F6
:100D8000180A90E80E008AE80E00C068F04201D10F
:100D900098190890324606A903A800F012FB03AB8D
:100DA00083E807006D10641C002DE4D132466946CB
:100DB000B8F1000F03A802D000F0EFFA01E000F054
:100DC00000FBC9E90001C9F808200AB0BDE8F087B6
:100DD00034EC0000007B00F0800070477546FFF7A0
:100DE000E1FEAE4605006946534620F00700854601
:100DF00018B020B5FFF778FABDE820404FF00006A4
:100E00004FF000074FF000084FF0000B21F00701F2
:100E1000AC46ACE8C009ACE8C009ACE8C009ACE835
:100E2000C0098D46704710B50446AFF300802046D8
:100E3000BDE81040FFF729BA4FF0013C50F8042BF1
:100E400051F8043B9A4221D1A2EB0C03934313EADD
:100E5000CC1317D150F8042B51F8043B9A4215D10A
:100E6000A2EB0C03934313EACC130BD150F8042BE1
:100E700051F8043B9A4209D1A2EB0C03934313EAC5
:100E8000CC13DBD04FF00000704700BFD01A01BA7E
:100E9000B1FA81F101F0180122FA01F0CB40C1F161
:100EA0002001DBB2C0B2C01A2CFA01F3D11A91436F
:100EB00011EAC311E6D170475FEA400C08BF91F018
:100EC000000F4FEA8C234FEAC12243EA51514FEA07
:100ED0001C5018BF00F5F0404FEA300018BF41F039
:100EE00000415FEA6C5C00F02980BCF1FF3F08BF65
:100EF00040F080407047130C06BF12044FF0100CF6
:100F00004FF0000C130E04BF12020CF1080C130F6B
:100F100004BF12010CF1040C930F04BF92000CF1FA
:100F2000020CD30F04BF52000CF1010C11464FF01C
:100F30000002A0F11F00A0EB0C00704711F0004F61
:100F400008BF704731F000413FF4D5AF0B0C06BF2E
:100F500009044FF0100C4FF0000C0B0E04BF0902F7
:100F60000CF1080C0B0F04BF09010CF1040C8B0FE2
:100F700004BF89000CF1020CCB0F04BF49000CF137
:100F8000010CCCF12003A0EB0C0022FA03F302FACF
:100F90000CF241EA030100F10100704720F07F4CA0
:100FA00080EA030023F07F47ACEB070303F57C5393
:100FB00000F0004003F1FF032DE980494FEA154B93
:100FC00009B44FEA144325EA0B4E24EA03480FF212
:100FD000042606EB132749083E785FEA320203FB3A
:100FE0000667C7F5000707FB06F64FEA54374FEAD6
:100FF000D64606F1020607FB066CCCF1005C4FEA10
:101000001C472CEA074C07FB06F40CFB06F504EB27
:1010100015464FEA961634BF00204FF000404FEAC5
:10102000D13706FB07FC4FEA1C4C0CFB0BF7D21B1D
:1010300003FB0CF761EB07010CFB0EF7B0EB07406D
:1010400072EB17420CFB08F734BFA2EB0742B2EB7E
:10105000074261EB17414FEA0C444FEA910706FB48
:1010600007FC4FEA1C4C0CFB0BF7B0EBC74072EBD4
:10107000573203FB0CF734BFA2EBC742B2EBC742B7
:1010800061EB57310CFB0EF7B0EBC70072EB5772F8
:101090000CFB08F734BFA2EBC702B2EBC70261EB4F
:1010A0005771039F4FEA816141EA921104EBCC042E
:1010B0004FEAD1374FEA826206FB07FC42EA901200
:1010C0004FEA80604FEA1C4C0CFB0BF7D21B03FB72
:1010D0000CF761EB07010CFB0EF7B0EB074072EB6E
:1010E00017420CFB08F734BFA2EB0742B2EB0742F2
:1010F00061EB17414FEA8C554FEA910704EB9C24B2
:1011000006FB07FC4FEA1C4C0CFB0BF7B0EBC7408F
:1011100072EB573203FB0CF734BFA2EBC742B2EBC2
:10112000C74261EB57310CFB0EF7B0EBC70072EB17
:1011300057720CFB08F734BFA2EBC702B2EBC70231
:1011400061EB577115EB4C254FEA816141EA921131
:101150004FEA82624FEAD13742EA901206FB07FC5F
:1011600044F100044FEA80604FEA1C4C0CFB0BF783
:10117000D21B03FB0CF761EB07010CFB0EF7B0EB86
:10118000074072EB17420CFB08F734BFA2EB074293
:10119000B2EB074261EB174115EB1C154FEA8131A9
:1011A00041EA92414FEA823242EA90424FEA80306D
:1011B0004FEA0C7644F1000448EA03434EEA0B4838
:1011C0004FF0000EB2EB080C71EB030724BF624630
:1011D00039464EEB0E0E4FF0000B001852414941BC
:1011E0004BEB0B0BB2EB080C71EB03077BF1000B25
:1011F00024BF624639464EEB0E0E4FF0000B00182E
:10120000524149414BEB0B0BB2EB080C71EB03075E
:101210007BF1000B24BF624639464EEB0E0E51EABD
:10122000020718BF46F0010616EB0E7655F10002D4
:1012300054F1000103D5BDE88901BDE80088BDE88F
:101240008901BDE80048B619524141EB0101A3F103
:101250000103704780807F7E7D7C7B7A797877760A
:1012600076757473727171706F6E6E6D6C6C6B6A83
:101270006A69686867666665646463636261616021
:10128000605F5F5E5E5D5D5C5C5B5B5A5A5959589E
:101290005857575656555555545453535252525108
:1012A000515050504F4F4F4E4E4D4D4D4C4C4C4B5E
:1012B0004B4B4A4A4A4949494848484747474746A5
:1012C00046464545454444444443434343424242E1
:1012D00042414141002B26D4770021D01CB54FEA72
:1012E000370703B44FF010004FF010014FF000002B
:1012F0000FBCBDE810400BF1010BBBF1010F08BFA3
:101300005FEA170722BF12F1010211F101014FF04C
:10131000004143F1000300F0004043EA0000704741
:10132000F9D35708DAE746EA064613F1400F4FEAC9
:1013300016461FDD13F1200FDFBF16430A460021BA
:1013400020335B42C8D0C3F1200746EA064602FAC2
:1013500007F74FEA164646EA0706C3F1200722FAC6
:1013600003F201FA07F721FA03F14FF0000342EA12
:101370000702B1E746EA020646EA06464FEA164683
:1013800046EA0106BCBF46EA0646360C4FF00003AB
:101390004FF000024FF000019EE72DE9C048934650
:1013A00030B491E8380007C831EA400C48BF34EA4D
:1013B000430C03D5FFF7F2FDFFF78CFFF0BCBDE84F
:1013C00000882DE9C048934630B491E8380007C83A
:1013D00010F0804F08BF13F0804F03D100F005F8E4
:1013E000FFF778FFF0BCBDE8008820F07F4780EA77
:1013F000030023F07F4C07EB0C03A3F57C5300F0B4
:101400000040A3F1FE0392F0000F00F0B38095F0CE
:10141000000F00F077802DE901494FEA11404FEAB3
:10142000144621EA004800FB06FC24EA064708FBB4
:1014300006F607FB08F800FB07F718EB06484CEB2D
:10144000164C4FEA124B18EB07484FEA15464CEB87
:10145000174022EA0B4E0BFB06FC25EA06470EFB63
:1014600006F607FB0EFE0BFB07F71EEB064E4CEBDA
:10147000164C4FF000061EEB074E4CEB174B18EBCB
:101480000B0840F1000018EB0E0B58EB000840F180
:1014900000008F1A4FF000013CBFC943661B14BF08
:1014A000B5EB040C00213CBFC943F61B4FEA1744BF
:1014B0004EEA8E0E27EA04454FEA1C4704FB0762FA
:1014C0002CEA074C05FB07F70CFB05F604FB0CFCAC
:1014D00016EB074642EB174216EB0C4642EB1C425A
:1014E0001BEB060658EB0202414146EA9E0601D577
:1014F000BDE80189B619524141EB0101A3F1010395
:10150000BDE801894FEA14454FEA114724EA054630
:1015100021EA074C05FB07F406FB07F70CFB06F175
:1015200005FB0CFC11EB074144EB17444FEA124753
:1015300011EB0C4144EB1C4422EA074C05FB07F27B
:1015400006FB07F70CFB06F605FB0CFC16EB074643
:1015500042EB174216EB0C4642EB1C456A1854F15D
:10156000000148BF7047B619524141EB0101A3F198
:101570000103704795F0000F37D04FEA11424FEA50
:10158000144721EA024624EA074C02FB07F106FB56
:1015900007F70CFB06F402FB0CFC14EB074441EBD1
:1015A00017414FEA154714EB0C4441EB1C4125EA67
:1015B000074C02FB07F506FB07F70CFB06F602FBE0
:1015C0000CFC16EB074645EB174516EB0C4645EBB6
:1015D0001C42121951F1000148BF7047B61952411F
:1015E00041EB0101A3F1010370474FEA14454FEAB3
:1015F000114724EA054621EA074C05FB07F106FBE3
:1016000007F70CFB06F24FF0000605FB0CFC12EB93
:10161000074241EB174112EB0C4251EB1C4148BF12
:101620007047921841EB0101A3F1010370470000DC
:1016300008B500F075FF6946002000F079FD2949E2
:1016400008606946002000F073FD2749086001200A
:1016500001F0FAFA254908601421254801F0E0F963
:10166000244908601421244801F0DAF9234908606C
:101670006946092000F0C8FF214908603C23214A3F
:101680000021214801F0CEFB1423204A00212048EC
:1016900001F0C8FB0A231F4A00211F4801F0C2FBCA
:1016A0000B231E4A00211E4801F0BCFB0C231D4ADF
:1016B00000211D4801F0B6FB0D231C4A00211C48E7
:1016C00001F0B0FB0E231B4A00211B4801F0AAFBCE
:1016D0000F231A4A00211A4801F0A4FB01F07CFBF9
:1016E00008BD0000080100200C01002010010020AE
:1016F000784D002000010020685D002004010020DA
:1017000014010020E41D0020DD8B0008E41E0020F1
:10171000B16C0008E4210020C55D0008E42300202E
:1017200005890008E4250020095D0008E42900205F
:101730007D8D0008E42B0020455D0008E42D00208D
:101740008588000800BFFEE710B50A490A4800F086
:1017500047F970B100F0FEFE0649074800F048F86E
:10176000064B012211460648006800F03DFE00F0DD
:1017700003FF10BD008000185860024000000020E8
:101780000801002010B50949094800F029F958B1AD
:1017900000F0E0FE0021064800F044F80349044848
:1017A00000F026F800F0E8FE10BD000000800028E0
:1017B000B860024010B50B490B4800F011F978B140
:1017C00000F0C8FE0749084800F012F8002106485A
:1017D00000F028F80548006801F0D2FA00F0CCFECD
:1017E00010BD000000800028B864024010010020F5
:1017F0000246094B9A4201D2084801E006481038D7
:1018000001F000531BB1064B0B40C36002E0044BD8
:101810000B4083607047000010640240006002408B
:101820007D0F7D0F21B1026842F00102026003E0EA
:10183000026822F00102026070470000016821F096
:10184000010101600021016041608160C1600161AE
:10185000212141614A49884204D13D21484A103A38
:1018600091608CE046491831884205D14FF474618B
:10187000434A103A916082E041493031884205D1B3
:101880004FF474113E4A103A916078E03C49483177
:10189000884205D14FF07461394A103A91606EE088
:1018A00037496031884204D13649354A103AD1600F
:1018B00065E033497831884204D13349304A103ADF
:1018C000D1605CE02E499031884204D12F492C4AE6
:1018D000103AD16053E02A49A831884205D14FF02F
:1018E0003D51274A103AD16049E02949884204D144
:1018F0003D21274A083A116041E0254918318842C4
:1019000005D14FF47461224A083A116037E020494A
:101910003031884205D14FF474111D4A083A1160E4
:101920002DE01B494831884205D14FF07461184AB7
:10193000083A116023E016496031884204D1114908
:10194000134A121F11601AE011497831884204D1FC
:101950000D490F4A121F116011E00D499031884264
:1019600004D10A490A4A121F116008E00849A83147
:10197000884204D14FF03D51054A121F1160704753
:10198000106002403D000020400F002000003D207C
:101990001064024021B1026842F48022026003E038
:1019A000026822F480220260704722B1036843F487
:1019B0000023036003E0036823F400230360016154
:1019C00070470146486880B27047014600200A68A7
:1019D00002F400220AB1012000E00020704700005C
:1019E00070B50246002000240025124EB24201D2FA
:1019F000114B01E00F4B103B104E0E4036B11E262E
:101A000006EAD124166806EA040502E0566906F0E3
:101A1000800501F000560EB15C6800E01C68084EBD
:101A2000344004EA010616B10DB1012000E00020A7
:101A300070BD000010640240006002403C0F3C0F8B
:101A40007D0F7D0F10B501F080034BB122B14369CA
:101A500043F08003436103E0436923F08003436163
:101A600080290BD02AB1036801F01E0423430360D0
:101A700004E0036801F01E04A343036010BD0000EE
:101A800010B500220268134B1A40CC680B68234340
:101A90004C6923438C692343CC6923430C6A234359
:101AA0004C6A23438C6A23434C6B23438C6B234344
:101AB0001A430260426922F00702D1E90B34234342
:101AC0001A4342610B6943604B6883608B68C36053
:101AD00010BD00003F801CF0416070477047F0B5BA
:101AE0000A4600210023002400BF3DE0012505FA3D
:101AF00001F3156805EA03049C4234D105684F00E0
:101B00000326BE40B543056015794E00B540066812
:101B1000354305601579012D02D01579022D16D1B6
:101B200085684F000326BE40B543856055794E0059
:101B3000B540866835438560456801268E40B543CB
:101B40004560456896798E40B6B235434560C568B4
:101B50004F000326BE40B543C560D5794E00B54061
:101B6000C6683543C560491C1029BFD3F0BDF0B528
:101B7000002300244D07ED0E02FA05F3CE1000F10C
:101B8000200555F826504E07F70E0F26BE40B543E8
:101B9000CF1000F1200646F82750CE1000F12005A6
:101BA00055F8265045EA0304CE1000F1200545F80B
:101BB0002640F0BD41837047018370472DE9F04313
:101BC00085B0034616460024002500270020002289
:101BD00012E213F802C0BCF12C0F04D013F802C0BB
:101BE000BCF12A0F7DD10D2D7CD2DFE805F07B07FB
:101BF00041468A8FDADFF9F8F7F6F5009DF801C063
:101C0000ACF1300C9DF80080A8F1300808EB880892
:101C10000CEB480C4FEA0C699DF803C0ACF1300C9A
:101C20009DF80280A8F1300808EB88080CEB480CFE
:101C300009EB0C499DF805C0ACF1300C9DF804800F
:101C4000A8F1300808EB88080CEB480C09EB0C29CC
:101C50009DF808C0ACF1300C9DF80780A8F1300861
:101C600008EB88080CEB480CCC44C1F800C0A2E19A
:101C70009DF800C081F804C09DE19DF805C0ACF15D
:101C8000300C4FF47A781CFB08F89DF806C0ACF1D4
:101C9000300C0CEBCC0909EB0C1C08EB8C089DF804
:101CA00007C0ACF1300C0CEB8C0C08EB4C089DF829
:101CB00008C0ACF1300CC444C1F808C09DF800C0A5
:101CC000ACF1300C4FF416781CFB08F89DF801C0FD
:101CD000ACF1300CCCEB0C1C08EB8C089DF802C06E
:101CE00001E07CE166E1ACF1300C0CEB8C0C08EB14
:101CF0004C089DF803C0ACF1300CC444A1F806C0F8
:101D000059E19DF800C081F80CC054E19DF806C06F
:101D1000ACF1300C4FF47A781CFB08F89DF807C042
:101D2000ACF1300C0CEBCC0909EB0C1C08EB8C086B
:101D30009DF808C0ACF1300C0CEB8C0C08EB4C0897
:101D40009DF809C0ACF1300CC444C1F810C09DF836
:101D500000C0ACF1300C41F270781CFB08F89DF823
:101D600001C0ACF1300CCCEB0C1C0CEB8C0C08EB78
:101D7000CC089DF802C0ACF1300CCCEB0C1C08EB8D
:101D80008C089DF803C0ACF1300C0CEB8C0C08EB0C
:101D90004C089DF804C0ACF1300CC444A1F80EC04E
:101DA00009E19DF800C081F814C004E1002003E0BF
:101DB00000F1010C0CF0FF001DF800C0BCF12E0F6B
:101DC00001D00428F4DB042856DA012809D00228BF
:101DD00016D003284ED12BE0E7E0E1E0DFE0B2E0EF
:101DE0004BE09DF802C0ACF1300C9DF80080A8F1EA
:101DF000300808EB88080CEB480CA1F816C03AE054
:101E00009DF800C0ACF1300C4FF064081CFB08F8E2
:101E10009DF801C0ACF1300C0CEB8C0C08EB4C08BD
:101E20009DF803C0ACF1300CC444A1F816C022E008
:101E30009DF800C0ACF1300C4FF47A781CFB08F828
:101E40009DF801C0ACF1300C0CEBCC0909EB0C1C7B
:101E500008EB8C089DF802C0ACF1300C0CEB8C0C3C
:101E600008EB4C089DF804C0ACF1300CC444A1F858
:101E700016C000E000BF00BF9DE0002003E000F1BD
:101E8000010C0CF0FF001DF800C0BCF12E0F01D0BA
:101E90000428F4DB042851DA012804D0022811D0E8
:101EA000032849D126E09DF802C0ACF1300C9DF822
:101EB0000080A8F1300808EB88080CEB480CA1F86A
:101EC00018C03AE09DF800C0ACF1300C4FF0640847
:101ED0001CFB08F89DF801C0ACF1300C0CEB8C0C2D
:101EE00008EB4C089DF803C0ACF1300CC444A1F8D9
:101EF00018C022E09DF800C0ACF1300C4FF47A78A5
:101F00001CFB08F89DF801C0ACF1300C0CEBCC09BF
:101F100009EB0C1C08EB8C089DF802C0ACF1300CEE
:101F20000CEB8C0C08EB4C089DF804C0ACF1300CA9
:101F3000C444A1F818C000E000BF03E04FF0000C5B
:101F4000A1F818C037E09DF801C0ACF1300C9DF845
:101F50000080A8F1300808EB88080CEB480C4FEA29
:101F60000C499DF803C0ACF1300C9DF80280A8F13B
:101F7000300808EB88080CEB480C09EB0C299DF89D
:101F800005C0ACF1300C9DF80480A8F1300808EBD6
:101F900088080CEB480CCC44C1F81CC00BE00AE0EC
:101FA0009DF800C081F824C005E09DF800C081F8CC
:101FB00020C000E000BF00BF07E04FF0000C0DF8AC
:101FC00004C0A4F1010C0CF0FF04002CF5D1A446D0
:101FD0008DF800C005F1010C0CF0FF0508E013F8C6
:101FE0000290A44604F1010808F0FF040DF80C90DB
:101FF00002F1010C1FFA8CF2B242FFF6EAAD05B015
:10200000BDE8F08300BFFEE71CB50121042001F00C
:10201000FBFE4FF47070009003208DF80500002047
:102020008DF8060001208DF807008DF80400694640
:102030000A48FFF754FD0420009003208DF80500A6
:1020400000208DF8060001208DF807008DF80400AF
:1020500069460248FFF743FD1CBD0000000802402E
:1020600030B50246002000BF09E022252B23434360
:1020700002F18404234483F82A50431CD8B2032875
:10208000F3DB002008E022242B23434301EB43032E
:1020900083F85540431CD8B20A28F4DB30BD00BF9A
:1020A000FEE7704770B5002100230F22C4781CB3EF
:1020B000174C246804F4E064C4F5E064C4F3072119
:1020C000C1F10404E3B20A4144789C40E1B284784F
:1020D000144021430C07210E0E4C057861550478FD
:1020E00004F01F050124AC4005786D11AD0005F129
:1020F000E025C5F8004109E0047804F01F0501243B
:10210000AC40054D0678761145F8264070BD0000BC
:102110000CED00E000E400E080E100E00249014352
:10212000024A1160704700000000FA050CED00E063
:102130002DE9F04106460D4600271348007820B1EE
:10214000102028700020BDE8F081FEF7DFF8074678
:102150000E48046884B1006840680C490860052096
:10216000207026810020606009A0E0603846FEF7FC
:10217000D1F80020287004E03846FEF7CBF8722032
:1021800028702046DFE700004901002038010020C8
:102190003F0000002DE9F04F89B005460F469146FB
:1021A0009A46129E002002908C48007828B10220A6
:1021B0003070002009B0BDE8F08F8948007818B170
:1021C0000D2030700020F5E72878052803D0012085
:1021D00030700020EEE709F0800BBBF1000F04D057
:1021E00009F07F094FF0010801E04FF00008FEF709
:1021F0008DF80290B9F1000F4AD0B9F1010F68D003
:10220000B9F1020F03D0B9F1030F76D120E028898C
:1022100000EA0704BC420FD1B8F1010F02D12889AE
:10222000A04328816F48006804850298FEF772F881
:10223000002030702046BDE74B463A4604A92846A8
:10224000CDF800A001F04EFA0298FEF763F869E0BD
:10225000288900EA07047CB1B8F1010F02D128896E
:10226000A04328815F48006804850298FEF752F871
:102270000020307020469DE74B463A4604A9284688
:10228000CDF800A001F02EFA0298FEF743F849E0DD
:10229000288927EA0004BC420FD1B8F1010F02D10E
:1022A0002889204328814F48006804850298FEF75A
:1022B00031F80020307020467CE74B463A4604A9AE
:1022C0002846CDF800A001F00DFA0298FEF722F89A
:1022D00028E0288927EA000484B1B8F1010F02D16F
:1022E0002889204328813F48006804850298FEF72A
:1022F00011F80020307020465CE70BE04B463A4670
:1023000004A92846CDF800A001F0ECF90298FEF7E8
:1023100001F807E00298FDF7FDFF00246F20307000
:10232000204647E700BF01F0E5FBFDF7EFFF029015
:102330002C48006890F8310020B32A48006890F8D3
:102340003100039000202749096881F8310004A872
:1023500001F074FA00202349096881F830000298DE
:10236000FDF7D8FF00240398012805D0022802D1E8
:102370000E20307003E000BF0A20307000BF00BFA5
:10238000204617E717480068048DB8F1010F1ED1E9
:10239000B9F1000F0ED0B9F1010F0CD0B9F1020F55
:1023A00003D0B9F1030F0AD100E000BF2889A04390
:1023B00028810BE000BF28892043288106E002988D
:1023C000FDF7A8FF6F2030700020F3E600BF0298F1
:1023D000FDF7A0FF002030702046EBE64901002009
:1023E0004A0100205C0100202DE9FC5F044689467B
:1023F00092461E46002000902078052804D0012037
:1024000030700020BDE8FC9FFDF780FF0090BAF11E
:10241000000F03D0BAF1010F0AD104E0208920EAAD
:10242000090020810BE0208940EA0900208106E0B4
:102430000098FDF76FFF712030700020E2E700BFC9
:102440004FF0000B656855E0A87C40B3012838D0F8
:10245000022802D0032844D111E02089298A00EA09
:102460000107288AB84209D13946284601F0B8F94F
:102470008046B8F1010F01D14FF0010B38E02089FF
:10248000298A00EA01074FB13946284601F0A8F928
:102490008046B8F1010F01D14FF0010B28E0288AE6
:1024A000218920EA0107288AB84209D139462846FD
:1024B00001F096F98046B8F1010F01D14FF0010B00
:1024C00016E0288A218920EA01074FB139462846BB
:1024D00001F086F98046B8F1010F01D14FF0010BF0
:1024E00006E00098FDF716FF6F203070002089E7A6
:1024F00000BF2D68002DA7D10098FDF70BFFBBF1A1
:10250000010F01D101F0F6FAFDF700FF00902089DC
:1025100001900098FDF7FEFE00203070019871E7F1
:1025200010B500F015F801F0C5F901F0EDF901F072
:102530000DFA01F095F901F027F901F0A1FA01F087
:10254000B1FA01F043FA01F069FA00F002F810BDA7
:102550007047704706480078012808D10548007880
:10256000FF2804D203480078401C024908707047D5
:10257000560100204901002010B500241A480078B7
:10258000012830D1FDF7C2FE04461848007820B17A
:1025900016480078401E1549087014480078F8B9AC
:1025A00013480078E0B901F0DFFA124812490978BF
:1025B00050F82100114908600F4800781049097847
:1025C00088420DD00D480068806B401C0B4909689B
:1025D00088630C480068401C0A490860FDF7B6FE95
:1025E0002046FDF797FE10BD56010020490100204E
:1025F0004A01002050A100204C010020640100206D
:102600004B010020300100202DE9F04105460E4627
:1026100000271F48007820B1102030700020BDE84E
:10262000F081FDF773FE07461A4850F8250030B1D7
:102630003846FDF76FFE282030700020EFE70120BC
:10264000144941F82500144804684CB9002041F8A9
:1026500025003846FDF75EFE042030702046DEE798
:102660000D48006840680C4908603846FDF752FE86
:1026700004202070FF2040EA0520208100206060B7
:10268000204601F021F8002030702046C7E7000006
:102690004901002050A10020340100202DE9F74F0E
:1026A00082B005461746002001902878042804D0FF
:1026B0000120387005B0BDE8F08F8048007810B177
:1026C00002203870F6E77E48007810B10D2038708F
:1026D000F0E7FDF71BFE019028894FEA2029287AB0
:1026E000FF281FD1288900F47F4028812889754957
:1026F000096891F8321008432881724800686860C0
:102700007048006890F83200484505DC0198FDF7F4
:1027100001FE7820387004E00198FDF7FBFD0020F1
:102720003870C7E795F808B06C6894F832004845EF
:102730007ADD6448006890F83200584574DA94F8FD
:102740003480614810F8080094F835100840B0B1A2
:102750005D4810F8080094F8351088435A4901F88C
:102760000800084610F8080030B994F836105748A9
:1027700000788843554908704FF0010A19E0E6696E
:10278000AEB194F8348006F10B0010F8080094F80C
:102790003510884306F10B0101F80800084610F8CF
:1027A000080020B9B07A94F836108843B0724FF020
:1027B000000A04F8329F2078C010A070207800F042
:1027C00007006070A17801208840207161780120A5
:1027D0008840E070323CBAF1010F10D13434A07857
:1027E0003A49097808433949087020783649085C25
:1027F0006178084314F83419334A505411E0E669FB
:102800007EB1B07A3434A1780843B072217806F1F1
:102810000B00405C6178084314F8342906F10B0181
:1028200088542B4840F829402648006890F830002A
:1028300040F010002349096881F830000020214948
:10284000096881F831001F4903980968C862284661
:1028500000F0FCFE0198FDF75DFD01F04BF9FDF77E
:1028600055FD01901748006890F8310020B101280B
:1028700009D0022806D102E0002038700BE00E20BB
:10288000387008E000BF29460E48006800F0C8FE16
:102890000A20387000BF00BF00200A49096881F88B
:1028A00030000849096881F8310006490968C861A3
:1028B0000198FDF72FFD00BFFCE600004901002054
:1028C0004A0100205C0100204E0100204D01002043
:1028D00050A100202DE9F041044600272C48007843
:1028E00010B10520BDE8F0812078042801D0012036
:1028F000F8E7FDF70BFD074620890612257A2549E2
:1029000060680968884204D03846FDF703FD6420FA
:10291000E8E72048006890F83200B04204D1294628
:102920001C48006800F03AF801201B4941F82600D5
:10293000A07A08B3002310221946204600F02EFE8C
:102940000546208900F47F4020812089284320818A
:10295000114850F825006060B54206DC3846FDF7A6
:10296000D9FC01F0C7F87820BCE73846FDF7D2FC67
:1029700001F0C0F80020B5E7208940F0FF00208179
:10298000002060603846FDF7C5FC0020AAE7000083
:10299000490100205C01002050A1002030B590F8D2
:1029A00034201B4B9B5C90F83540A343184CA35438
:1029B00023469B5C33B990F83640164B1B78A343F3
:1029C000144C237000F8321F134B1970C1F3C2036B
:1029D000837001F00703437084780123A3400371DF
:1029E00044780123A340C37003790A4C247823431D
:1029F000084C23708378064CE35CC47823438478C6
:102A00003238034D2B55054B43F8210030BD0000F3
:102A10004E0100204D0100204B01002050A100205C
:102A20002DE9F04106460F464FF000081F48007898
:102A300010B10020BDE8F081FDF768FC80461C481D
:102A40000568006820B11A480068406818490860A5
:102A50004046FDF75FFC3DB3FDF758FC8046154846
:102A60000468C4B100680068124908604046FDF778
:102A700051FC666006EB8700A060E6602661A782D5
:102A80000020E08202202870002028816C60284607
:102A900000F01AFE08E00648006868600448056017
:102AA0004046FDF737FC00252846C3E749010020D2
:102AB00034010020740100202DE9F04707468846C4
:102AC00015464FF000093878022804D001202870FC
:102AD0000020BDE8F0873C48007818B1022028703B
:102AE0000020F6E73948007818B10D202870002042
:102AF000EFE7FDF70BFC81467C68E08A98B121691D
:102B0000081D20610E68E08A401EE082A1682069ED
:102B1000884201D1606820614846FDF7FBFB002038
:102B200028703046D5E72A48006890F8300040F019
:102B300004002749096881F8300000202449096809
:102B400081F8310022480068C0F82C80384600F037
:102B50007DFD4846FDF7DEFB00F0CCFFFDF7D6FB20
:102B600081461B48006890F8310020B101280DD043
:102B700002280AD105E016480068066A002028707D
:102B80000DE000260E20287009E000BF39461048ED
:102B9000006800F045FD00260A20287000BF00BF35
:102BA00000200B49096881F830000949096881F85B
:102BB000310007490968C861054909680862484643
:102BC000FDF7A8FB304684E7490100204A010020B8
:102BD0005C0100202DE9F04105460E4600272878CB
:102BE000022802D00120BDE8F081FDF78FFB0746E7
:102BF000A87A60B1002304223146284600F0CEFCBA
:102C00003846FDF787FB00F075FF0020EBE76C68A6
:102C1000E08AA18A884204DB3846FDF77BFB1E2050
:102C2000E1E7E168081DE0600E60E08A401CE08298
:102C3000D4E90210884201D16068E0603846FDF7AF
:102C400069FB0020CFE7000070B5054600260F485D
:102C5000007808B1002070BDFDF758FB06460C480F
:102C60000468006820B10A480068406808490860A4
:102C70003046FDF74FFB3CB103202070258100203A
:102C80006060204600F020FD2046E4E74901002076
:102C9000340100202DE9F04105460E461446002778
:102CA0002878032803D001202070BDE8F081314846
:102CB000007810B102202070F7E72F48007810B19B
:102CC0000D202070F1E7FDF721FB0746288940B170
:102CD0002889401E28813846FDF71CFB0020207003
:102CE000E3E72648006890F8300040F001002349EF
:102CF000096881F8300000202049096881F8310016
:102D00001E480068C662284600F0A0FC3846FDF761
:102D100001FB00F0EFFEFDF7F9FA074617480068DF
:102D200090F8310020B1012809D0022806D102E034
:102D3000002020700BE00E20207008E000BF294624
:102D40000E48006800F06CFC0A20207000BF00BF35
:102D500000200A49096881F830000849096881F8AB
:102D6000310006490968C8613846FDF7D3FA00BF4B
:102D70009BE70000490100204A0100205C0100207F
:102D800070B5044600252078032801D0012070BDCD
:102D9000FDF7BCFA0546A07A60B10023012219466E
:102DA000204600F0FBFB2846FDF7B4FA00F0A2FE37
:102DB0000020ECE720894FF6FF71884207D2208976
:102DC000401C20812846FDF7A5FA0020DFE72846B1
:102DD000FDF7A0FA3320DAE710B50B48007890B978
:102DE00000F0C2FE094800780949087009480749FF
:102DF000097850F82100084908600846006807492A
:102E00000860FDF78AFA10BD560100204C01002031
:102E10004B01002050A10020640100205C01002033
:102E2000704700002DE9FE4F06460F4690461C46AF
:102E30004FF00009FDF76AFA81461F48007828B173
:102E40004846FDF767FA3C20BDE8FE8F1B4850F866
:102E5000240060BB0120194941F824004846FDF7D1
:102E600059FA002342463946304600F0B5F9824609
:102E700000200090019003460246514602902046F1
:102E800000F088FE054635B90D48007801280CD1C0
:102E900000F030FE09E0FDF739FA814600200749CD
:102EA00041F824004846FDF735FA2846CCE7484665
:102EB000FDF730FA2820C7E74901002050A1002083
:102EC000560100202DE9F04F85B081468A46934691
:102ED0001C46DDE90F78129D00200390FDF716FADD
:102EE00003902348007830B10398FDF713FA3C2093
:102EF00005B0BDE8F08F1F4850F8240088BB0120C2
:102F00001C4941F824000398FDF704FA2A4641467B
:102F1000384600F05BFF2B465A465146484600F0C3
:102F20005BF904901198CDE9008002953A4620465D
:102F30000E9B049900F02EFE064636B90E48007826
:102F400001280CD100F0D6FD09E0FDF7DFF9039070
:102F50000020084941F824000398FDF7DBF93046CA
:102F6000C6E7FFE70398FDF7D5F92820C0E7000082
:102F70004901002050A100205601002070470000A8
:102F80002DE9F041054600274748007810B1402060
:102F9000BDE8F0813F2D01D13E20F9E7FDF7B6F9FC
:102FA0000746FF2D03D14148006890F83250404851
:102FB00050F8254024B93846FDF7ACF94320E7E73F
:102FC000012C04D13846FDF7A5F93D20E0E714F8BF
:102FD000340F3849085C617888432178354A505469
:102FE00014F834091146085C30B994F836103248A8
:102FF0000078884330490870E06918B12046E169DB
:1030000000F00EFB666A16B1304600F017FC002097
:10301000E06284F8300084F8310028480078FF2806
:1030200004D226480078401C244908703846FDF731
:1030300071F900F0B2FAFDF769F907461F48007808
:1030400020B11E480078401E1C490870204600F040
:1030500041F81B480078401E1949087000201449A7
:1030600041F82500A06930B90020616988611549DF
:103070006069086005E0D4E905014861D4E90510FC
:1030800088611148006860610F4804600FA0E06427
:103090003846FDF73FF90E480078012801D100F0CD
:1030A00029FD002074E70000490100205C01002098
:1030B00050A100204E0100204D0100204A010020B7
:1030C0005701002068010020600100203F0000003F
:1030D00056010020704770472DE9F04106460F4623
:1030E00014464FF000081548007818B112202070DF
:1030F000BDE8F081FDF70AF98046FF2E03D11048A4
:10310000006890F832600F4850F826502DB94046BC
:10311000FDF700F943202070EAE7012D05D1404674
:10312000FDF7F8F843202070E2E7EF644046FDF732
:10313000F1F80020207000BFDAE70000490100200C
:103140005C01002050A10020704770472DE9F04736
:1031500007460D464FF0000A002028606860FDF722
:10316000D5F88246FF2F03D11948006890F83270D5
:10317000184850F827402CB95046FDF7CBF84320AB
:10318000BDE8F087012C04D15046FDF7C3F8432079
:10319000F6E7207C00F0010020B95046FDF7BAF8B0
:1031A0004520EDE70026D4F80C90D4F8088050466E
:1031B000FDF7B0F800E0761C58F8041B0029FAD09F
:1031C000B0002860A9EB0600800068600020D7E707
:1031D0005C01002050A1002070B504461046002676
:1031E000051F28462E604FF48056051F28462E6086
:1031F0001526051F28462E601426051F28462E601A
:103200001326051F28462E601226051F28462E600D
:103210001126051F28462E601026051F28462E6001
:103220000926051F28462E600826051F28462E6001
:103230000726051F28462E600626051F28462E60F5
:103240000526051F28462E600426051F28462E60E9
:103250000326051F28462E600226051F28462E60DD
:103260000126051F28462E600026051F28462E60D1
:103270004FF080750560051F28462C60414E051FE4
:1032800028462E604FF01236051F28462E604FF05C
:103290000336051F28462E604FF00236051F2846CC
:1032A0002E607610051F28462E60051F28462960CF
:1032B0003126051F28462E603026051F28462E6021
:1032C0002926051F28462E602826051F28462E6021
:1032D0002726051F28462E602626051F28462E6015
:1032E0002526051F28462E602426051F28462E6009
:1032F0002326051F28462E602226051F28462E60FD
:103300002126051F28462E602026051F28462E60F0
:103310001926051F28462E601826051F28462E60F0
:103320001726051F28462E601626051F28462E60E4
:103330004FF01136051F28462E604FF01036051F3E
:1033400028462E604FF00936051F28462E604FF0A4
:103350000836051F28462E604FF00736051F284601
:103360002E604FF00636051F28462E604FF00536BA
:10337000051F28462E604FF00436051F28462E6094
:1033800070BD0000F13C00082DE9F04105464FF00A
:103390000008FCF7BBFF8046FF2D05D120480068E0
:1033A00090F83250012608E01D48006890F832007D
:1033B000A84201D1012600E000261A4850F8254015
:1033C0002CB94046FCF7A6FF4820BDE8F081012C4F
:1033D00004D14046FCF79EFF4320F6E794F8347092
:1033E0001148C05D94F8351088430F49C855084608
:1033F000C05D30B994F836100C48007888430B490A
:10340000087094F8300040F0080084F8300040461E
:10341000FCF780FF012E01D100F06CFB0020D4E707
:103420005C01002050A100204E0100204D01002031
:103430007047000070B5054600261748007800B1B7
:1034400070BD1648007800B1FAE71DB3FCF75EFFC7
:1034500006461348006890F834401248005D104951
:10346000096891F8351088430E4908550846005DF3
:1034700040B90B48006890F836100B480078884334
:103480000949087006480068C5623046FCF742FFEB
:1034900000F030FB00BFD3E7490100204A010020C3
:1034A0005C0100204E0100204D01002070B5002677
:1034B00000F072F8FCF72AFF064631480068401C0D
:1034C0002F4908603046FCF725FF2E480078012878
:1034D00053D12D48007820B1012804D0022809D109
:1034E00003E001250BE0002509E001250120264924
:1034F000087004E0012500202349087000BF00BFC8
:1035000005B970BD2148046833E0FCF7FFFE0646AC
:10351000E06A50B3E06A401EE062E06A28BB94F8BB
:10352000300000F0370040B114F8300F00F0C80050
:10353000207001206070303C02E0002084F83100EF
:1035400094F8300000F0080078B93434A0781049BD
:10355000097808430E49087020780E49085C6178A4
:10356000084314F834190B4A505464693046FCF788
:10357000D1FE94F832003F28C7D100BFC1E7000058
:1035800078010020560100206C0100206801002015
:103590004D0100204E010020704770472DE9F04F8B
:1035A00005460F4690469946A87A19490E5C05F1E2
:1035B0000B00805D11F800B00BEBC60000F0FF0AB5
:1035C000144850F82A4000202034E0602760207C16
:1035D00020EA0800207484F81190207C203C00F040
:1035E000080068B994F836000B49097808430A497D
:1035F00008700A48805D94F83510084307498855DB
:103600002946204600F00CF85046BDE8F08F000037
:1036100026F6000850A100204D0100204E01002098
:1036200010B590F8342001F10B039B5C90F8354005
:10363000A34301F10B04A35423469B5C23B98B7A6B
:1036400090F83640A3438B7210BD000010B51B4AA2
:103650001268D061194A126892F8343000F10B02F6
:10366000D25C164B1B6893F835301A43134B1B681A
:1036700093F8344000F10B031A55827A0F4B1B6804
:1036800093F836301A4382720C4A126892F834105A
:103690000B4A525C094B1B6893F835309A43084B30
:1036A0005A541A46525C42B9044A126892F83630AB
:1036B000044A12789A43034B1A7010BD5C01002033
:1036C0004E0100204D010020014600228A72002098
:1036D00005E0002301F10B021354421CD0B208286C
:1036E000F7D37047F0B51446059E244F3F6897F80E
:1036F000307047F02007DFF884C0DCF800C08CF899
:1037000030700027DFF874C0DCF800C08CF831702E
:103710001A4F3F68FE62194F3F6879620C828B74C2
:10372000164F3F688F6047680F6000274F60C86082
:10373000456805B169604160104F3F6897F83420D3
:103740000F4FBF5CDFF834C0DCF800C09CF835C018
:1037500027EA0C07DFF828C00CF802706746BF5C48
:103760005FB9064F3F6897F836C0064F3F7827EAA3
:103770000C07DFF810C08CF80070F0BD5C01002071
:103780004E0100204D0100202DE9F041502111484B
:1037900000F06CF900250DE0681C86B20D4800EBC6
:1037A000051400EB06170020207067600AA0E06097
:1037B000681C85B2042DEFD3064800EB05140020E9
:1037C0002070606004A0E060024804490860BDE821
:1037D000F0810000009D00203F0000003801002023
:1037E000F0B506460F46B468002028346060278094
:1037F000207A00F0DF00207200206072207A283CDE
:1038000088B93434A0780B4909780843094908700D
:1038100020780949085C6178084314F83419064A8D
:103820005054012500E00025304600F007F82846F6
:10383000F0BD00004D0100204E01002030B50146D2
:103840004A6808682AB9CC68606028B100254560DC
:1038500002E0106000B142608B6800255D6230BDFF
:1038600070B5C821114800F001F900230FE0581C81
:1038700085B203EB83000D4901EB800405EB850065
:1038800001EB8006002020706660581C83B2092B73
:10389000EDD303EB8300054901EB80040020207089
:1038A000606008460249086070BD0000389C002036
:1038B0003401002000200A4908600A4908700A49BA
:1038C00008700A4908700A4908700A4908600A49DC
:1038D00008600A4908600A4908600A490870704788
:1038E00078010020490100204A01002057010020F2
:1038F0005601002030010020580100204401002022
:10390000400100204801002000210A4A11700020D7
:1039100004E00021084A1154411CC8B20828F8D319
:103920000021064A1170064A1170064A1160064AC3
:10393000116070474D0100204E0100204B01002016
:103940004C010020640100205C01002070B54FF4A0
:103950007C71194800F08AF84FF48071174800F024
:1039600085F8002413E0601CC5B2C4EBC40000EB72
:103970004000114901EB8003C5EBC50000EB40009E
:1039800001EB80065E610EA0D864601CC4B20B2CF3
:10399000E9D3C4EBC40000EB4000074901EB80030E
:1039A0000020586106A0D86400200649086002483B
:1039B0000549086070BD000050A2002050A1002001
:1039C0003F000000680100206001002000B587B0C2
:1039D0000320002180220A4BCDE90132CDE90310FA
:1039E0004FF6FF703F23074A00900748FFF76AFA37
:1039F00006AA06A13F20FFF76FFB07B000BD00003D
:103A0000509F00204CA10020C93C000875432F4F57
:103A1000532D49492049646C6500000000B587B00A
:103A20000320002180220A4BCDE90132CDE90310A9
:103A30004FF6FE703E23074A00900748FFF742FA10
:103A400006AA06A13E20FFF747FB07B000BD000015
:103A5000509D00204C9F0020093D000875432F4FCA
:103A6000532D4949205374617400000004E0002282
:103A700000F8012B4A1E91B20029F8D170470000CE
:103A800010B518210448FFF7F1FF03480349086007
:103A900003A00968486110BD40A600207001002005
:103AA0003F0000002DE9F04178211048FFF7DEFFCC
:103AB00000240DE0601C86B204EB44000B4901EBCE
:103AC000C00506EB460001EBC0072F60601C84B206
:103AD000042CEFD304EB4400044901EBC0050020A3
:103AE0002860084602490860BDE8F08158A6002019
:103AF0007401002010B50024FCF708FC04461348AC
:103B00000078F8B912480078E0B900F02DF81148B3
:103B10001149097850F82100104908600E480078D2
:103B20000F49097888420DD00C480068806B401C12
:103B30000A49096888630B480068401C0949086005
:103B4000FCF7FDFB2046FCF7E5FB10BD490100201A
:103B50004A01002050A100204C01002064010020F7
:103B60004B010020300100200649074A1278885C8A
:103B70000649095C034A515C01EBC001044A11701B
:103B80007047000026F600084D0100204E0100207D
:103B90004C0100202DE9F84F05460F469046994606
:103BA000DDE90AAB00200090FCF7B0FB00903F4835
:103BB0000468002C74D0183454F8040C3B49086095
:103BC0000098FCF7A7FB44F8187CA5760020207627
:103BD0006076606144F814BC44F80CAC44F8108C76
:103BE0000C9824F8080C24F8069C0020E077E810D4
:103BF000207705F00700E076217F01208840A0773C
:103C0000E17E01208840607700206060E060A06075
:103C10002062A0626062E062206325A06063183CBD
:103C2000002606E0002104F1500040F82610701C28
:103C3000C6B2002EF6D02046FFF7F2F82046FFF776
:103C40009DF9FCF763FB00901A4840F825401A489C
:103C5000006860610020A0611748006810B1164834
:103C600000688461144804603434A07813490978EA
:103C700008431249087020781149085C61780843AC
:103C800014F834190E4A50540E480078401C0D495F
:103C900008700098FCF73EFB0020BDE8F88FFFE7B6
:103CA0000098FCF737FB4220F7E700006001002096
:103CB0003F00000050A10020680100204D010020BD
:103CC0004E01002057010020002400BF00BFFCF778
:103CD0001DFB044605480068401C04490860204656
:103CE000FCF718FBFFF7F7F9F1E700005801002097
:103CF00010B504480068FFF727FAFF20FFF740F9E6
:103D000010BD00005C010020002400BF02E0C820BC
:103D1000FFF790FB194800780028F8D01848006891
:103D20006421B0FBF1F0164908600846006828B924
:103D3000002014490870FF20FFF726FB00BFFCF7A6
:103D4000E5FA0446104800681049086000200E4952
:103D500008602046FCF7DEFA0C480068084909684C
:103D6000B0FBF1F0C0F1640006490870FFF7EDF90F
:103D700000F00EF86420FFF75DFBE0E7480100204B
:103D8000400100203C010020580100204401002097
:103D90007CB5002514E069462846FFF7D7F90646AA
:103DA00066B9094850F8254044B1012C06D0D4E941
:103DB000020100EB810060640198A064681CC5B238
:103DC0003F2DE8D97CBD000050A1002002F0010386
:103DD00043B102F002032BB102E0491E002308C0E8
:103DE0000029FAD17047000010B5044600BF05480D
:103DF000008800F040000028F9D02146014801F079
:103E00003DF910BD0048004029B1064A126802433E
:103E1000044B1A6004E0034A12688243014B1A60A3
:103E2000704700003038024029B1064A1268024348
:103E3000044B1A6004E0034A12688243014B1A6083
:103E4000704700003438024029B1064A1268024324
:103E5000044B1A6004E0034A12688243014B1A6063
:103E6000704700004038024029B1064A12680243F8
:103E7000044B1A6004E0034A12688243014B1A6043
:103E80007047000044380240F0B5002100220024B1
:103E9000022500260223324F3F6807F00C0121B1B2
:103EA000042905D0082937D105E02E4F076036E0F8
:103EB0002D4F076033E02A4F3F1F3F68C7F38056FE
:103EC000274F3F1F3F6807F03F036EB1264FB7FBF8
:103ED000F3F7DFF88CC0ACF1040CDCF800C0CCF3D5
:103EE000881C07FB0CF40CE01E4FB7FBF3F7DFF860
:103EF00070C0ACF1040CDCF800C0CCF3881C07FBEC
:103F00000CF4174F3F1F3F68C7F301477F1C7D002C
:103F1000B4FBF5F7076002E0124F076000BF00BF77
:103F20000F4F3F6807F0F0010909104F7A5C0768EE
:103F3000D74047600A4F3F6807F4E051890A0B4FAA
:103F40007A5C4768D7408760054F3F6807F4604157
:103F5000490B064F7A5C4768D740C760F0BD000048
:103F6000083802400024F40000127A0020010020EA
:103F700030B10749096841F00401054A116005E0C4
:103F80000349096821F00401014A116070470000EB
:103F90000008065001460020034A12680A400AB190
:103FA000012000E0002070470408065010B50024EE
:103FB00001214020FFF738FF0120FFF7D9FF03E080
:103FC000601C84B202F05CFE0120FFF7E3FF18B929
:103FD00042F210708442F3DB42F21070844201DB43
:103FE000012010BD0020FCE700B597B001210220A0
:103FF000FFF70AFF01218803FFF726FF05220C21A6
:104000004D48FDF7B4FD05220D214B48FDF7AFFDEE
:1040100005220E214848FDF7AAFD05220F2146483A
:10402000FDF7A5FD4FF47040159002208DF8580063
:1040300000208DF85A0003208DF8590001208DF8DA
:104040005B0015A93C48FDF74AFD0020ADF8400093
:10405000ADF84200ADF84400ADF84600ADF84800B8
:10406000ADF84A00ADF84C00ADF84E000720ADF8B1
:10407000500010A9314800F05CF901212F4800F0F0
:1040800043F9002000F062F8012211462B4800F0AD
:1040900047F90E208DF83C0001208DF83D000020EE
:1040A0008DF83E0001208DF83F000FA8FDF7FAFFC4
:1040B00001214805FFF7A8FE2148FDF7BFFB0020BE
:1040C00000901E480C3001901E4802900020039082
:1040D0004C200490002005904FF480600690002052
:1040E000079008904FF4807009904FF440300A9088
:1040F00004200B9003200C9000200D900E900022C5
:1041000011490F48FDF751FC01210D48FDF742FC14
:1041100069460B48FDF7B4FC012210210848FDF761
:1041200091FC012204210648FDF78CFC0121044882
:10413000FDF778FB17B000BD0004024000380040D6
:10414000586002407C010020C801002010B50446E0
:10415000074800884FF6C77108400549088008469F
:104160000088204308800121014800F0CDF810BDEF
:104170000038004000B597B001210320FFF744FE4E
:104180000121C803FFF760FE06220F214F48FDF70B
:10419000EEFC062203214E48FDF7E9FC062204212D
:1041A0004B48FDF7E4FC062205214948FDF7DFFCFA
:1041B0003820159002208DF8580000208DF85A0004
:1041C00003208DF8590001208DF85B0015A94048A7
:1041D000FDF785FC02208DF8580000208DF85A006C
:1041E0004FF40040159001208DF85B0015A9374869
:1041F000FDF775FC0020ADF840004FF48270ADF87B
:1042000042000020ADF84400ADF84600ADF848008B
:10421000ADF84A00ADF84C00ADF84E000720ADF8FF
:10422000500004202B49088010A92A48001F00F0E4
:1042300080F801212748001F00F066F8002000F0F8
:104240004FF8012202212348001F00F069F82F20B7
:104250008DF83C0004208DF83D0000208DF83E00D4
:1042600001208DF83F000FA8FDF71CFF0121480534
:10427000FFF7CAFD1848FDF7E1FA00200090154845
:104280000830019015480290402003904C20049083
:10429000002005904FF48060069000200790089061
:1042A00009904FF440300A9004200B9003200C90AA
:1042B00000200D900E9069460748FDF7E1FB0122B2
:1042C00010210548FDF7BEFB17B000BD00000240FD
:1042D00000040240043C0040B8600240D00E0020C0
:1042E00010B50446074800884FF6C77108400549D5
:1042F000088008460088204308800121014800F01A
:1043000003F810BD003C004021B1028842F0400299
:10431000028004E002884FF6BF731A4002807047A3
:104320001AB183880B43838002E083888B438380A8
:10433000704710B50022028802F441520B884C8865
:1043400023438C882343CC8823430C8923434C8903
:1043500023438C892343CC8923431A430280838BD4
:104360004FF2FF74234083830B8A038210BD704792
:104370000CB50020019000903448006840F4803073
:104380003249086000BF3148006800F400300090F6
:104390000198401C0190009818B90198B0F5A04F01
:1043A000F1D12A48006800F4003010B101200090DB
:1043B00001E0002000900098012846D123484030B9
:1043C000006840F080502149403108602048006872
:1043D00040F440401E4908601C48083000681B49F2
:1043E000083108600846006840F40040086008464C
:1043F000006840F4A05008601648091F0860081FB4
:10440000006840F08070091F086000BF0F48006816
:1044100000F000700028F9D040F205700E490860E5
:104420000A480830006820F0030008490831086095
:104430000846006840F00200086000BF03480830EA
:10444000006800F00C000828F8D10CBD00380240CC
:104450000070004008544007003C0240042808D186
:104460004FF0E021096941F004014FF0E0221161B1
:1044700007E04FF0E021096921F004014FF0E0224C
:104480001161704710B5FEF765F8FFF70FF8FEF7FA
:1044900073F810BD10B51548006840F4700013495A
:1044A00008601348006840F00100114908600020CE
:1044B0000F49083108600E4800680E4908400C4951
:1044C00008600D48091D0860081F006820F480205E
:1044D000091F0860002006490C310860FFF748FFFB
:1044E0004FF0006001498039086010BD88ED00E0A0
:1044F00000380240FFFFF6FE1030002470B504467D
:104500006FF00400FFF7AAFFE11704EB5171CD1023
:104510004FF47A7045434FF0E020006940F002000C
:104520004FF0E021086108464561006940F0010054
:10453000086170BDF0B50C46154600210022068CBE
:104540004FF6FE773E400684018B028C4FF60C76C8
:1045500031407E1C06EA03162E4331434FF6F576B2
:10456000324044F00106324301830284F0BDF0B5CD
:104570000C461546002100220026078C4FF6EF7CE2
:1045800007EA0C070784018B028C4FF6FF7707EAD6
:10459000041640F6FF4739404FF6FF7707EA033726
:1045A00039434FF6FF7707EA052739434FF65F7720
:1045B0003A4046F010073A4301830284F0BDF0B55B
:1045C0000C461546002100220026078C4FF6FF6C92
:1045D00007EA0C070784818B028C4FF6FF7707EA06
:1045E00004264FF60C7739404FF6FF7707EA03179A
:1045F0002F4339434FF2FF573A4046F480773A430E
:1046000081830284F0BDF0B50C46154600210022DE
:104610000026078C4EF6FF7C07EA0C070784818B87
:10462000028C4FF6FF7707EA043640F6FF47394021
:104630004FF6FF7707EA052739434FF6FF7707EA7A
:104640000337394345F6FF773A4046F480573A43FB
:1046500081830284F0BD000010B50421080700F03A
:10466000A2F888B1FDF776FF0AA0FBF7BDFE002196
:104670000A48FDF7D7F80A4B01221146094800689D
:10468000FDF7B2FEFDF778FF0521880700F07CF802
:1046900010BD00002A2A2A2A00000000886002407B
:1046A000380000200C01002010B501210846FFF75A
:1046B000CBFB01210846FFF7C7FB01202C4908600E
:1046C000022008710320487100208871C8712948B0
:1046D000FDF705FA012200212648FDF748FA4FF0C0
:1046E000FF30254948605320088000204880088119
:1046F0004FF0804000F042F90421080700F008F96B
:104700004021080600F0F2F88021C80500F0F7F813
:1047100000201A4908804880012088800020C88035
:1047200008814FF0804000F04FF8002014490880C5
:1047300042F2107088600020888101204880800744
:1047400000F082F801220421080700F074F801212A
:10475000880700F01CF81C200A49087004204870E3
:10476000002088700120C8700846FDF79BFC10BD32
:104770003000002000000240A40E0020B00E0020F7
:10478000BC0E00202C000020CA430282704721B1D9
:10479000028842F00102028004E002884FF6FE73B4
:1047A0001A400280704730B50246002000230024E2
:1047B000158A05EA0103958905EA010413B10CB1D4
:1047C000012000E0002030BD70B505460C46208871
:1047D00050B92389A28861882846FFF7ABFEE1889B
:1047E000284600F09EF825E0208804280AD1238975
:1047F000A28861882846FFF7BAFEE188284600F0C3
:1048000099F817E0208808280AD12389A2886188AE
:104810002846FFF7D4FEE188284600F098F809E022
:104820002389A28861882846FFF7EDFEE1882846A3
:1048300000F096F870BD1AB183890B43838102E0C2
:1048400083898B438381704770B500240022002345
:10485000058C4FF6EF7635400584028C8388048BF7
:1048600048F6FF752C404FF6FF452C400D884FF65B
:10487000FF7606EA05252C434FF6DF752A408D8921
:1048800006EA05152A434D8806EA05152A43154D03
:10489000A84202D0144DA8421DD14FF67F752A4080
:1048A000CD894FF6FF7606EA05152A434FF6BF7508
:1048B0002A408D8806EA05152A434FF6FF352B401E
:1048C0004FF2FF752B400D8A06EA85052B434D8A72
:1048D00006EA85052B43838004838D688563028403
:1048E00070BD000000000140000401400A460021A4
:1048F00001894FF68F731940114301817047028976
:104900004FF67F731A40028102890A430281704781
:1049100002894FF6F8731A40028102890A43028124
:104920007047028B4FF6F3731A400283028B0A43DF
:1049300002837047028B4FF2FF331A400283028BCF
:104940004FF6FF7303EA01231A4302837047828BF9
:104950004FF6F3731A408283828B0A438283704737
:10496000828B4FF2FF331A408283828B4FF6FF73A4
:1049700003EA01231A438283704700000022028861
:10498000184B98420ED0184B98420BD0B0F1804F84
:1049900008D0164B984205D0154B984202D0154BC3
:1049A000984204D14FF68F731A404B881A43124B2A
:1049B000984207D0114B984204D04FF6FF431A405B
:1049C0000B891A4302804B68C3620B880385054B31
:1049D000984202D0044B984201D18B7A038601237E
:1049E0008382704700000140000401400004004041
:1049F00000080040000C004000100040001400407F
:104A000010B5044601210846FFF7FEF901211020E8
:104A1000FFF72AFA072209215448FDF7A8F80722D0
:104A20000A215248FDF7A3F84FF4C06050490860CE
:104A3000022008714871002088710120C8714B481C
:104A4000FDF74DF84B48046000204A498880C88033
:104A5000088188810C204881474800F0A5FA01218F
:104A6000454800F03DFA01224021434800F044FA55
:104A700001228021404800F03FFA012240F2244107
:104A80003D4800F06CFA25203C490870032048702E
:104A9000002088700120C8700846FDF703FB012143
:104AA0008805FFF7B1F93648FCF7C8FE4FF0006003
:104AB000344908603048001D486033488860002051
:104AC000C86064200861002048614FF480608861FC
:104AD0000020C86108624FF4807048624FF4403093
:104AE00088620420C862032008630020486388634A
:104AF0002348FCF7C5FF01212148FCF793FE4FF046
:104B00000060204908601C48001D48601F488860FC
:104B10004020C8604FF448700861002048614FF49D
:104B2000806088610020C861086248624FF44030AC
:104B300088620420C86203200863002048638863F9
:104B40000F487830FCF79CFF012210210C48783088
:104B5000FCF778FF462009490870042048700120BE
:104B60008870C8700846FDF79DFA10BD000002402D
:104B70000400002098050020001001400C000020D7
:104B800040640240A80500201402002078020020A2
:104B900010B5044601210846FFF736F90121480403
:104BA000FFF752F9072202212E48FCF7E0FF072207
:104BB00003212C48FCF7DBFF0C202B490860022066
:104BC00008714871002088710120C8712548FCF7E0
:104BD00086FF26480460002024498880C880088118
:104BE00088810C204881224800F0DEF9012120480C
:104BF00000F076F9012240211D4800F07DF90121E5
:104C00004805FFF701F91B48FCF718FE4FF000605C
:104C1000194908601648001D48601848886000203F
:104C2000C8604FF480600861002048614FF48060E4
:104C300088610020C86108624FF4807048624FF4B8
:104C4000403088620420C862032008630020486363
:104C500088630848FCF714FF01210648FCF7E2FDD1
:104C600010BD00000000024010000020E40D0020F4
:104C70000044004088600240F40D0020E40500205C
:104C800010B5044601210220FFF7BEF80121880477
:104C9000FFF7DAF807220B213748FCF768FF0722F5
:104CA0000A213548FCF763FF4FF440603349086040
:104CB000022008714871002088710120C8712E48B7
:104CC000FCF70DFF2E48046000202D498880C88025
:104CD000088188810C2048812A4800F065F901216B
:104CE000284800F0FDF801224021264800F004F990
:104CF000012240F22441234800F031F927202249C3
:104D0000087004204870002088700120C870084690
:104D1000FDF7C8F901218805FFF776F81B48FCF775
:104D20008DFD4FF000601A4908601648001D48606C
:104D3000184888600020C86014200861002048617D
:104D40004FF4806088610020C86108624FF4807071
:104D500048624FF4403088620420C8620320086330
:104D60000020486388630948FCF78AFE0121074850
:104D7000FCF758FD10BD0000000402401C0000209C
:104D8000580E002000480040240000202860024007
:104D9000680E0020300E002070B5002540F224413E
:104DA000164800F0B2F8002825D000211448FCF77E
:104DB00039FD1248058885881148FCF702FEC0F1CC
:104DC000640529460FA0FBF70FFB002406E01448FA
:104DD000015D14A0FBF708FB601C84B2AC42F6D363
:104DE00011A0FBF701FB64210548FCF775FE0121CA
:104DF0000348FCF717FD00BF70BD00000010014024
:104E0000406402400D0A5541525431205265636599
:104E1000697665204C656E6774683A25640D0A00F2
:104E200014020020256320000D0A000010B540F296
:104E300024410A4800F069F868B108480488001D58
:104E400004880748FCF7BDFDC0F5806084B22146A8
:104E500004A0FBF7C9FA00BF10BD000000440040E9
:104E6000886002400D0A25640D0A000070B5002517
:104E700040F22441144800F048F818B300211348C8
:104E8000FCF7D0FC10480588001D05880F48FCF78A
:104E900098FDC0F1140529460DA0FBF7A5FA0024E2
:104EA00006E00D48015D0DA0FBF79EFA601C84B280
:104EB000AC42F6D314210548FCF70EFE012103484D
:104EC000FCF7B0FC00BF70BD004800402860024005
:104ED0000D0A25640D0A0000300E00202563200015
:104EE00021B1828942F40052828104E082894DF628
:104EF000FF731A40828170471AB1838A0B43838201
:104F000002E0838A8B438382704770B50246002497
:104F100000230025002040F66A16B14200D100BFF0
:104F2000C1F3421501F01F03012606FA03F3012D18
:104F300002D19689334006E0022D02D1168A334011
:104F400001E0968A33400C12012606FA04F4168812
:104F5000344013B10CB1012000E0002070BDF0B569
:104F60000346002400260025002040F66A17B942B7
:104F700000D100BF1846C1F3421401F01F060127FB
:104F800007FA06F5012C01D10C3004E0022C01D106
:104F9000103000E014301AB107682F43076002E0B8
:104FA0000768AF430760F0BD2DE9FF4705460E4691
:104FB0000024A14600BFA046B08900B100BF2C8AE2
:104FC00024F44054F08804432C82AC8941F20C60F4
:104FD0008443B08831890843718908430443AC8114
:104FE000AC8A24F44074B0890443AC826846FEF76E
:104FF0004BFF2048854202D01F48854202D1DDF890
:105000000C9001E0DDF80890A88900F4004040B160
:1050100009EBC90000EB091031684900B0FBF1F75A
:1050200007E009EBC90000EB091031688900B0FB0B
:10503000F1F76420B7FBF0F004012009642101FBC3
:105040001078A88900F4004040B1322000EBC8007D
:10505000B0FBF1F000F00700044308E0322000EB61
:1050600008106421B0FBF1F000F00F0004432C8124
:10507000BDE8FF870010014000140140C1F30802A1
:105080008280704700BFFEE703B40198410000989A
:1050900050EAC12018BF04204A0D18BF40F001009B
:1050A00040F2FF72B2EB515F08BF40F002000128EE
:1050B00008BF052002B0704710B5B94A2DED020BAC
:1050C0002DED0C8B82B00F9921F000409FEDB6CBF7
:1050D00090422CDBA0F140530E9AA3F17F631A4358
:1050E0000FD0B349884202DC16D10E98A0B19DEDD5
:1050F0000E0B02B0BDEC0C8B02B0BDE8104000F00E
:10510000D3BD0029C1BF9FEDAC0B02B0BDEC0C8B31
:1051100002B0C8BF10BD16E00120FBF7AFFA02B025
:10512000BDEC0C8B02B0BDE8104000F0C9BDA44A34
:105130009FEDA59B9FEDA6AB90425EDAA6499FED41
:10514000A8CB814208DBB0EE4C0AF0EE6C0A02B04C
:10515000BDEC0C8B02B010BD9DED0E0B53EC102B73
:1051600051EC100B09F062FF41EC180B9E48062130
:10517000B0EE480AF0EE680A784400F081FC53EC87
:10518000182B51EC100B09F051FF41EC1B0B974809
:10519000B0EE480AF0EE680A0421784400F070FC92
:1051A00053EC182B51EC100B09F040FF53EC192B6A
:1051B00009F05EFC41EC100B51EC1B0B53EC102B77
:1051C00009F00AFD41EC100B53EC102B9DED0E0B7A
:1051D00051EC100B09F02AFF53EC1A2B0AF05AF885
:1051E0009DED0E1B53EC112B0AF054F853EC1C2BC5
:1051F0000AF050F841EC100BA9E79FED7D8B9FED75
:105200007EBB9DED0E0B002953EC192B51EC100BBE
:1052100052DA09F02DFC53EC182B09F007FF41EC92
:10522000180B77480621B0EE480AF0EE680A784479
:1052300000F026FC53EC182B51EC100B09F0F6FE95
:1052400041EC1D0B6F48B0EE480AF0EE680A0421ED
:10525000784400F015FC53EC182B51EC100B09F0BE
:10526000E5FE53EC192B09F003FC41EC190B51EC52
:10527000180B03F0CDFE41EC180B53EC192B51EC3D
:105280001D0B09F0A9FC53EC182B09F0CFFE53ECD1
:105290001A2B0AF0D7F841EC100B51EC180B53EC19
:1052A000102B09F0E5FB53EC1B2B09F0BFFE53EC70
:1052B0001C2B09F0EFFF6DE009F0ECFF53EC182B0D
:1052C00009F0B4FE41EC180B03F0A2FE41EC1A0BFE
:1052D00000208DED00AB00909DED000B51EC1A0B02
:1052E00053EC102B09F0C4FB9DED000B41EC1C0BA3
:1052F00053EC102B51EC100B09F098FE53EC182BCB
:1053000009F0C8FF53EC1C2B09F066FC41EC1C0BA8
:105310003D48B0EE480AF0EE680A0621784400F0F5
:10532000AFFB53EC182B51EC100B09F07FFE41EC56
:105330001D0B3648B0EE480AF0EE680A04217844A6
:1053400000F09EFB53EC182B51EC100B09F06EFE95
:1053500053EC192B09F08CFB41EC100B51EC1D0B9D
:1053600053EC102B09F038FC53EC1A2B09F05EFEBD
:1053700053EC1C2B09F07CFB41EC100B53EC102B75
:105380009DED000B51EC100B09F072FB53EC1B2B45
:1053900009F04CFE41EC100BD9E6000000000000C3
:1053A0000000F03F00000000182D4454FB2109408C
:1053B0000000F07F0000000000000000000000007E
:1053C0000000E03F00000000000000000000F03F8F
:1053D000075C143326A6913C0000603C00000000EE
:1053E000182D4454FB21F93FD4A50000E2A500008C
:1053F000000000000000E03F00000000000000404E
:105400001EA500002CA5000030A400003EA4000052
:1054100010B52F499FED2C1B2DED020B84B0059884
:1054200020F000408842D8BF9DED040B2DDD2949B6
:10543000884209D1049840B94FF00100FBF71EF9EA
:1054400000F03EFC06B010BD05DB9DED040B00F046
:105450002BFC06B010BD68469DED040B00F03CF837
:1054600010F0030004BF9DED021B9DED000B0CD05E
:1054700001280ED09DED021B9DED000B022817D0D8
:10548000012000F079FB06B010BD00F041FA06B033
:1054900010BD9DED021B9DED000B012000F06CFB8B
:1054A00051EC100B09F0D8FA06B041EC100B10BD0E
:1054B00000F02EFA51EC100B09F0CEFA06B041ECD8
:1054C000100B10BD000000000000000000000000F4
:1054D000FB21E93F0000F07F2DE9F14F04462DED5F
:1054E000020B2DED088B8AB09FEDE70B80ED020BD0
:1054F000139EE74826F0004585420ADC9DED120B1D
:10550000002084ED000B0AB0BDEC088B03B0BDE8B1
:10551000F08FE0489FEDE0AB9FEDE1BBA84247DD97
:10552000E14F9FEDE39B9FEDE48B9DED120B53EC60
:105530001A2B51EC100B002E1CDD09F083FF41ECFF
:10554000100BBD4208D053EC1B2B51EC100B09F093
:1055500079FFC4E900010BE053EC192B51EC100B5F
:1055600009F070FF53EC182B09F06CFFC4E900013F
:105570000120C8E709F07CFA41EC100BBD4208D0CD
:1055800053EC1B2B51EC100B09F072FAC4E900012B
:105590000BE053EC192B51EC100B09F069FA53ECAA
:1055A000182B09F065FAC4E900014FF0FF30AAE7B3
:1055B000C348A84279DB9DED120B51EC100B01F0B2
:1055C0006AFB41EC180B9FEDC00B53EC102B09F05C
:1055D0002DFD9FEDBF1B53EC112B09F049FA09F08B
:1055E0008FFC074609F0BBFC41EC190B53EC1A2B5E
:1055F00009F01CFD53EC182B09F04CFE41EC180B84
:1056000053EC1B2B51EC190B09F010FDDFF8C8A26D
:1056100041EC100B4FEA15580125FA4453EC102BBE
:1056200051EC180B09F00EFF032DC4E900013DD029
:10563000C1F30A5005EB4511A8EB00001139814276
:1056400034DA0AEB051BB0EE48AA9BED000BF0EE36
:1056500068AA53EC102B51EC190B09F0E7FC41EC54
:105660001B0B51EC1A0B53EC1B2B09F0EBFE41EC1E
:10567000180B51EC1A0B53EC182B09F0E3FE53EC0A
:105680001B2B09F0DFFE9BED020B41EC1A0B53ECD8
:10569000102B51EC190B09F0C9FC53EC1A2B09F033
:1056A000D1FE41EC100B6D1CB8E70EE0002EA8BF38
:1056B0003846BFF628AF94ED000B51EC100B09F003
:1056C000CBF9C4E9000178421DE7C6F3130040F4AA
:1056D000801EC6F30A50A0F2F530471100F01F05F6
:1056E000C5F12000DDF848B0089000200690079032
:1056F0000520EC467949002D07EB0002794408BFEC
:1057000051F8221009D051F8223001EB8201AB4050
:105710004A68089922FA01F11943A1FB0E26A1FB60
:105720000B131A449A4234BF0123002303EB0608EB
:105730000CEB8003D3E901A60E448E4234BF012155
:10574000002192448A4411B1924502D903E0924566
:1057500001D2012100E00021C3E901A641444CF837
:105760002010011EA0F10100C4DC029800F10050DD
:10577000850F0298DDE903678000DDF8148009F0E9
:10578000EEFB41EC1A0B304609F000FC9FED541B78
:1057900053EC112B09F04AFC41EC1B0B384609F085
:1057A000F5FB9FED511B53EC112B09F03FFC41EC35
:1057B000180B404609F0EAFB9FED4D1B53EC112BF3
:1057C00009F034FC41EC190B51EC180B53EC192B7C
:1057D00009F04EF953EC1B2B09F04AF953EC1A2B44
:1057E00009F046F9CDE90801002008909DED080B6D
:1057F00053EC1A2B51EC100B09F024FE53EC1B2B2D
:1058000009F020FE53EC182B09F01CFE53EC192B69
:1058100009F040FD9FED381B53EC112B09F006FCFD
:105820009FED370B41EC180B53EC102B9DED080B43
:1058300051EC100B09F0FAFB53EC182B09F018F996
:105840009FED310B41EC180B53EC102B9DED080B29
:1058500051EC100B09F0EAFB53EC182B09F008F996
:1058600041EC100B139810F0004F06D06D4251EC34
:10587000100B09F0F1F841EC100B284684ED000BF9
:1058800041E60000000000000000000000000000F1
:10589000FB21E93F7CD9024000004054FB21F93F45
:1058A0003163621A61B4D03DFB21F93F0000000072
:1058B0000000601A61B4D03D7370032E8A19A33BB7
:1058C000FB2139410000000083C8C96D305FE43F0F
:1058D000000000000000E03FB2A1000000A10000B5
:1058E000000000000000103E000000000000103C1E
:1058F000000000000000103A182D4454FB21F93D2F
:105900003326A611460B113C00000054FB21F93D43
:1059100010B52DED040B2DED088B82B0B0EE419A41
:10592000F0EE619A0B9820F000449FED4BABB4F180
:10593000795F11DA9DED0A0B51EC100B09F0E0FADA
:10594000002801BFB0EE4A0AF0EE6A0A02B0BDECD0
:10595000088B04BF04B010BD9DED0A0B53EC102B57
:1059600051EC100B09F062FB41EC180B3C4806218E
:10597000B0EE480AF0EE680A784400F081F853EC83
:10598000182B51EC100B09F051FB9DED0A0B41EC6B
:105990001B0B53EC192B51EC100B09F047FB41EC9E
:1059A000190B53EC1B2B51EC180B09F03FFB53EC7C
:1059B000192B09F047FD9FED2C0B41EC190B53EC13
:1059C000102B51EC180B09F031FB41EC100B28485F
:1059D000844210DA53EC192B51EC100B09F032FD14
:1059E00053EC1A2B09F056FC41EC100B02B0BDEC45
:1059F000088B04B010BD1F48A042BCBF9FED1E1B0A
:105A00008DED001B06DBA4F5001001900020009036
:105A10009DED001B51EC100B53EC112B09F012FD06
:105A20009DED000B41EC180B53EC102B51EC1A0BB5
:105A300009F008FD41EC1A0B53EC192B51EC180B33
:105A400009F000FD53EC1A2B09F024FC41EC100B7B
:105A5000CCE7000000000000000000000000F03F64
:105A6000249E000000000000000000000000E03F55
:105A70003333D33F0000E93F000000000000D23F75
:105A800070B504462DED028B4D1E00EBC500B0EE47
:105A9000408AF0EE608A90ED000B35F0060017D0DA
:105AA00053EC182B51EC100B09F0C0FA41EC100B21
:105AB0006D1E04EBC50090ED001B51EC100B53EC78
:105AC000112B08F0D5FF41EC100B35F00600E7D1A3
:105AD000022D36D0042D1CD0062D1CBFBDEC028B30
