:020000040800F2
:100000007024002039020008ED0E00088D0E000853
:10001000E90E0008AD060008ED2F00080000000002
:10002000000000000000000000000000892400081B
:100030006509000800000000C9020008A1250008A9
:10004000530200085302000853020008530200083C
:10005000530200085302000853020008530200082C
:10006000530200085302000853020008530200081C
:100070005302000853020008B106000853020008AA
:1000800053020008530200085302000853020008FC
:1000900053020008530200085302000853020008EC
:1000A00053020008530200085302000853020008DC
:1000B0007527000853020008530200085302000885
:1000C00053020008530200085302000853020008BC
:1000D00053020008212D0008952D0008D52D000899
:1000E000530200085302000853020008530200089C
:1000F000530200085302000853020008530200088C
:10010000530200085302000853020008530200087B
:10011000530200085302000853020008530200086B
:10012000530200085302000853020008530200085B
:10013000530200085302000853020008530200084B
:10014000530200085302000853020008530200083B
:10015000530200085302000853020008530200082B
:10016000530200085302000853020008530200081B
:10017000530200085302000853020008530200080B
:10018000530200085302000800F002F800F044F89F
:100190000AA090E8000C82448344AAF10107DA45E2
:1001A00001D100F039F8AFF2090EBAE80F0013F0F0
:1001B000010F18BFFB1A43F0010318471C3300005E
:1001C0003C330000103A24BF78C878C1FAD85207EF
:1001D00024BF30C830C144BF04680C6070470000C1
:1001E0000023002400250026103A28BF78C1FBD840
:1001F000520728BF30C148BF0B607047642900F028
:100200000981632900F0A881002070471FB503F021
:10021000DEF81FBD10B510BD00F0DCF91146FFF788
:10022000F5FF03F085F800F0FAF903B4FFF7F2FFE9
:1002300003BC02F0DDFE0000094880470948004782
:10024000FEE7FEE7FEE7FEE7FEE7FEE7FEE7FEE786
:10025000FEE7FEE704480549054A064B70470000E3
:10026000B125000889010008701E002070240020BC
:100270007020002070200020EFF3108072B67047CD
:1002800080F310887047264C4FF6FF7525604FF0BD
:10029000000484F30988234C4FF001052570224C9B
:1002A0004FF08055256062B6FEE730B41E4C4FF02B
:1002B0008055256030BC704730B41B4C4FF08055E2
:1002C000256030BC704700BF72B6EFF3098050B1B3
:1002D0001EF0100F08BF20ED108A203880E8F00FC4
:1002E00012490968086000B5114880475DF804EBC1
:1002F000104811490A7802700C4810490A680260D7
:10030000106890E8F00F20301EF0100F08BFB0EC1E
:10031000108A80F309884EF0040E62B6704700BF61
:1003200022ED00E07200002004ED00E078000020E3
:10033000A91A000867000020680000208000002043
:100340000FB4044910B503AA029800F011F910BCCB
:100350005DF814FB100000202DE9F0410E46044624
:10036000002020622046E168884730B3252805D068
:10037000D4E901219047206A401CF2E7E168204659
:1003800000278847050018D0A5F14100192802D898
:1003900020354FF400673246294620462760FFF794
:1003A0002DFF40B1012804D0F61D26F007060836BF
:1003B000D8E7361DD6E72846DAE7206ABDE8F0819F
:1003C00070B50C460546012A05D02878800600D570
:1003D000EA69002302E0012305E05B1C934202D29C
:1003E000E05C0028F9D1A869E618C01AA861286A5B
:1003F000184428622846AFF3008004E0D5E90121C3
:1004000014F8010B9047B442F8D32846AFF30080AC
:1004100070BD00002DE9F0410646002410687529E2
:10042000314616A510D0AFF30080002802DA404212
:1004300013A507E031688A0701D512A502E0490734
:1004400004D511A5012401E0AFF3008000210A22A8
:1004500006F1240709E0B0FBF2FCB0FBF2F302FB6B
:100460001C00303078541846491C0028F3D123462C
:100470002A463046BDE8F04100F00BB8000000000D
:100480002D0000002B000000200000007047704786
:1004900070472DE9F0470D4699469246044600F113
:1004A00024080168880604D5E06921F01001216064
:1004B00000E00120A84201DD471B00E00027A16900
:1004C0007A1902EB0900081AA0612078C00602D44C
:1004D0002046AFF30080002608E0D4E901211AF895
:1004E00006009047206A401C761C20624E45F4DBD3
:1004F0002078C0060AD52046AFF3008006E0D4E994
:10050000012130209047206A401C2062381EA7F14C
:100510000107F4DC07E0D4E9012118F80500904751
:10052000206A401C2062281EA5F10105F3DC20464C
:10053000AFF300802078000602D50220BDE8F087E6
:100540000120FBE710B5436913B1AFF3008001E070
:10055000FFF736FF012010BD127800F124010A7068
:1005600000224A700122EDE711684FF0FF32E9E7FF
:10057000074B70B50D467B4400F015F8044628463D
:1005800000F024F810B14FF0FF3070BD204670BD70
:10059000172B000000487047101E002001694A1CFC
:1005A00002610878704700B58FB0CDE901310021B4
:1005B000059105497944CDE9031011466846FFF7D6
:1005C000CBFE0FB000BD0000E5FFFFFF007B00F099
:1005D000800070477546FFF7DDFFAE4605006946AF
:1005E000534620F00700854618B020B5FFF732FECD
:1005F000BDE820404FF000064FF000074FF0000824
:100600004FF0000B21F00701AC46ACE8C009ACE8A4
:10061000C009ACE8C009ACE8C0098D46704710B508
:100620000446AFF300802046BDE81040FFF7FDBD53
:1006300008B500F09BFE6946002000F09FFC1149C0
:1006400008606946002000F099FC0F4908603C23CF
:100650000E4A00210E4800F021FF0F230D4A002111
:100660000D4800F01BFF0A230C4A00210C4800F043
:1006700015FF0B230B4A00210B4800F00FFF00F081
:10068000E7FE08BD30000020340000208C0D002063
:10069000A13200088C0E0020693000088C11002067
:1006A000F92F00088C1300206531000800BFFEE719
:1006B00010B50849084800F0F5F850B1054906485A
:1006C00000F010F8054B012211460548006800F0C3
:1006D000B1FD10BD008000185860024000000020ED
:1006E000300000200246094B9A4201D2084801E03E
:1006F0000648103801F000531BB1064B0B40C36095
:1007000002E0044B0B40836070470000106402401D
:10071000006002407D0F7D0F21B1026842F00102AE
:10072000026003E0026822F00102026070470000EC
:10073000016821F0010101600021016041608160D8
:10074000C1600161212141614A49884204D13D21B2
:10075000484A103A91608CE046491831884205D1E8
:100760004FF47461434A103A916082E0414930315C
:10077000884205D14FF474113E4A103A916078E0F6
:100780003C494831884205D14FF07461394A103AEA
:1007900091606EE037496031884204D13649354A6C
:1007A000103AD16065E033497831884204D1334949
:1007B000304A103AD1605CE02E499031884204D131
:1007C0002F492C4A103AD16053E02A49A831884277
:1007D00005D14FF03D51274A103AD16049E02949EF
:1007E000884204D13D21274A083A116041E0254959
:1007F0001831884205D14FF47461224A083A1160D9
:1008000037E020493031884205D14FF474111D4A38
:10081000083A11602DE01B494831884205D14FF05C
:100820007461184A083A116023E016496031884221
:1008300004D11149134A121F11601AE0114978318D
:10084000884204D10D490F4A121F116011E00D4971
:100850009031884204D10A490A4A121F116008E007
:100860000849A831884204D14FF03D51054A121F72
:1008700011607047106002403D000020400F0020D2
:1008800000003D20106402400146486880B2704775
:10089000014600200A6802F400220AB1012000E0AB
:1008A0000020704770B50246002000240025124E3B
:1008B000B24201D2114B01E00F4B103B104E0E40E3
:1008C00036B11E2606EAD124166806EA040502E0BF
:1008D000566906F0800501F000560EB15C6800E034
:1008E0001C68084E344004EA010616B10DB101201F
:1008F00000E0002070BD0000106402400060024073
:100900003C0F3C0F7D0F7D0F10B500220268134B8A
:100910001A40CC680B6823434C6923438C692343FA
:10092000CC6923430C6A23434C6A23438C6A2343D8
:100930004C6B23438C6B23431A430260426922F0C1
:100940000702D1E90B3423431A4342610B69436028
:100950004B6883608B68C36010BD00003F801CF053
:10096000416070477047F0B50A460021002300241B
:1009700000BF3DE0012505FA01F3156805EA03040F
:100980009C4234D105684F000326BE40B543056044
:1009900015794E00B5400668354305601579012D7F
:1009A00002D01579022D16D185684F000326BE406E
:1009B000B543856055794E00B540866835438560FE
:1009C000456801268E40B5434560456896798E405E
:1009D000B6B235434560C5684F000326BE40B543F7
:1009E000C560D5794E00B540C6683543C560491C21
:1009F0001029BFD3F0BDF0B5002300244D07ED0E44
:100A000002FA05F3CE1000F1200555F826504E07E6
:100A1000F70E0F26BE40B543CF1000F1200646F872
:100A20002750CE1000F1200555F8265045EA030462
:100A3000CE1000F1200545F82640F0BD41837047F7
:100A4000018370472DE9F04385B003461646002424
:100A5000002500270020002212E213F802C0BCF19A
:100A60002C0F04D013F802C0BCF12A0F7DD10D2D3C
:100A70007CD2DFE805F07B0741468A8FDADFF9F8A0
:100A8000F7F6F5009DF801C0ACF1300C9DF8008040
:100A9000A8F1300808EB88080CEB480C4FEA0C6909
:100AA0009DF803C0ACF1300C9DF80280A8F130082D
:100AB00008EB88080CEB480C09EB0C499DF805C0C5
:100AC000ACF1300C9DF80480A8F1300808EB8808E0
:100AD0000CEB480C09EB0C299DF808C0ACF1300C6C
:100AE0009DF80780A8F1300808EB88080CEB480C4B
:100AF000CC44C1F800C0A2E19DF800C081F804C058
:100B00009DE19DF805C0ACF1300C4FF47A781CFBE8
:100B100008F89DF806C0ACF1300C0CEBCC0909EBE1
:100B20000C1C08EB8C089DF807C0ACF1300C0CEBEA
:100B30008C0C08EB4C089DF808C0ACF1300CC44498
:100B4000C1F808C09DF800C0ACF1300C4FF4167825
:100B50001CFB08F89DF801C0ACF1300CCCEB0C1C70
:100B600008EB8C089DF802C001E07CE166E1ACF185
:100B7000300C0CEB8C0C08EB4C089DF803C0ACF16E
:100B8000300CC444A1F806C059E19DF800C081F8BA
:100B90000CC054E19DF806C0ACF1300C4FF47A78EB
:100BA0001CFB08F89DF807C0ACF1300C0CEBCC092D
:100BB00009EB0C1C08EB8C089DF808C0ACF1300C5C
:100BC0000CEB8C0C08EB4C089DF809C0ACF1300C18
:100BD000C444C1F810C09DF800C0ACF1300C41F223
:100BE00070781CFB08F89DF801C0ACF1300CCCEB20
:100BF0000C1C0CEB8C0C08EBCC089DF802C0ACF183
:100C0000300CCCEB0C1C08EB8C089DF803C0ACF14D
:100C1000300C0CEB8C0C08EB4C089DF804C0ACF1CC
:100C2000300CC444A1F80EC009E19DF800C081F861
:100C300014C004E1002003E000F1010C0CF0FF00FF
:100C40001DF800C0BCF12E0F01D00428F4DB0428ED
:100C500056DA012809D0022816D003284ED12BE0FD
:100C6000E7E0E1E0DFE0B2E04BE09DF802C0ACF18C
:100C7000300C9DF80080A8F1300808EB88080CEBD8
:100C8000480CA1F816C03AE09DF800C0ACF1300C59
:100C90004FF064081CFB08F89DF801C0ACF1300C63
:100CA0000CEB8C0C08EB4C089DF803C0ACF1300C3D
:100CB000C444A1F816C022E09DF800C0ACF1300C8D
:100CC0004FF47A781CFB08F89DF801C0ACF1300CA9
:100CD0000CEBCC0909EB0C1C08EB8C089DF802C04E
:100CE000ACF1300C0CEB8C0C08EB4C089DF804C0FC
:100CF000ACF1300CC444A1F816C000E000BF00BF46
:100D00009DE0002003E000F1010C0CF0FF001DF855
:100D100000C0BCF12E0F01D00428F4DB042851DA06
:100D2000012804D0022811D0032849D126E09DF8DB
:100D300002C0ACF1300C9DF80080A8F1300808EB3F
:100D400088080CEB480CA1F818C03AE09DF800C0E8
:100D5000ACF1300C4FF064081CFB08F89DF801C0A2
:100D6000ACF1300C0CEB8C0C08EB4C089DF803C07C
:100D7000ACF1300CC444A1F818C022E09DF800C0CA
:100D8000ACF1300C4FF47A781CFB08F89DF801C0E8
:100D9000ACF1300C0CEBCC0909EB0C1C08EB8C080B
:100DA0009DF802C0ACF1300C0CEB8C0C08EB4C083D
:100DB0009DF804C0ACF1300CC444A1F818C000E0A8
:100DC00000BF03E04FF0000CA1F818C037E09DF819
:100DD00001C0ACF1300C9DF80080A8F1300808EBA0
:100DE00088080CEB480C4FEA0C499DF803C0ACF1A5
:100DF000300C9DF80280A8F1300808EB88080CEB55
:100E0000480C09EB0C299DF805C0ACF1300C9DF89D
:100E10000480A8F1300808EB88080CEB480CCC449F
:100E2000C1F81CC00BE00AE09DF800C081F824C0A6
:100E300005E09DF800C081F820C000E000BF00BFC1
:100E400007E04FF0000C0DF804C0A4F1010C0CF009
:100E5000FF04002CF5D1A4468DF800C005F1010C6B
:100E60000CF0FF0508E013F80290A44604F1010815
:100E700008F0FF040DF80C9002F1010C1FFA8CF23F
:100E8000B242FFF6EAAD05B0BDE8F08300BFFEE771
:100E90001CB50121042001F053FA4FF4707000904A
:100EA00003208DF8050000208DF8060001208DF844
:100EB00007008DF8040069460A48FFF754FD042036
:100EC000009003208DF8050000208DF80600012019
:100ED0008DF807008DF8040069460248FFF743FDCE
:100EE0001CBD00000008024000BFFEE77047000084
:100EF00070B5002100230F22C4781CB3174C24685E
:100F000004F4E064C4F5E064C4F30721C1F104040F
:100F1000E3B20A4144789C40E1B284781440214312
:100F20000C07210E0E4C05786155047804F01F055E
:100F30000124AC4005786D11AD0005F1E025C5F840
:100F4000004109E0047804F01F050124AC40054D80
:100F50000678761145F8264070BD00000CED00E0E3
:100F600000E400E080E100E002490143024A116030
:100F7000704700000000FA050CED00E02DE9F0419B
:100F800006460D4600271348007820B1102028702F
:100F90000020BDE8F081FFF76FF907460E480468AE
:100FA00084B1006840680C490860052020702681E3
:100FB0000020606009A0E0603846FFF761F900207A
:100FC000287004E03846FFF75BF97220287020464D
:100FD000DFE7000065000020540000203F00000013
:100FE0002DE9F04F89B005460F4691469A46129E6C
:100FF000002002908C48007828B102203070002038
:1010000009B0BDE8F08F8948007818B10D20307024
:101010000020F5E72878052803D001203070002053
:10102000EEE709F0800BBBF1000F04D009F07F0957
:101030004FF0010801E04FF00008FFF71DF90290A2
:10104000B9F1000F4AD0B9F1010F68D0B9F1020F20
:1010500003D0B9F1030F76D120E0288900EA070414
:10106000BC420FD1B8F1010F02D12889A0432881D9
:101070006F48006804850298FFF702F9002030707D
:101080002046BDE74B463A4604A92846CDF800A0C5
:1010900000F0D6FD0298FFF7F3F869E0288900EA2E
:1010A00007047CB1B8F1010F02D12889A04328813F
:1010B0005F48006804850298FFF7E2F8002030706E
:1010C00020469DE74B463A4604A92846CDF800A0A5
:1010D00000F0B6FD0298FFF7D3F849E0288927EA27
:1010E0000004BC420FD1B8F1010F02D1288920437E
:1010F00028814F48006804850298FFF7C1F8002056
:10110000307020467CE74B463A4604A92846CDF885
:1011100000A000F095FD0298FFF7B2F828E02889BA
:1011200027EA000484B1B8F1010F02D128892043D5
:1011300028813F48006804850298FFF7A1F8002045
:10114000307020465CE70BE04B463A4604A928463F
:10115000CDF800A000F074FD0298FFF791F807E0C9
:101160000298FFF78DF800246F203070204647E783
:1011700000BF00F05BFFFFF77FF802902C4800688B
:1011800090F8310020B32A48006890F831000390AD
:1011900000202749096881F8310004A800F0FCFD0F
:1011A00000202349096881F830000298FFF768F8A9
:1011B00000240398012805D0022802D10E203070A7
:1011C00003E000BF0A20307000BF00BF204617E7D1
:1011D00017480068048DB8F1010F1ED1B9F1000F56
:1011E0000ED0B9F1010F0CD0B9F1020F03D0B9F153
:1011F000030F0AD100E000BF2889A04328810BE03B
:1012000000BF28892043288106E00298FFF738F8BC
:101210006F2030700020F3E600BF0298FFF730F82F
:10122000002030702046EBE66500002066000020BC
:10123000780000202DE9FC5F0446894692461E4650
:10124000002000902078052804D001203070002074
:10125000BDE8FC9FFFF710F80090BAF1000F03D033
:10126000BAF1010F0AD104E0208920EA09002081A7
:101270000BE0208940EA0900208106E00098FEF793
:10128000FFFF712030700020E2E700BF4FF0000B3D
:10129000656855E0A87C40B3012838D0022802D008
:1012A000032844D111E02089298A00EA0107288A0D
:1012B000B84209D13946284600F040FD8046B8F1D1
:1012C000010F01D14FF0010B38E02089298A00EA93
:1012D00001074FB13946284600F030FD8046B8F18D
:1012E000010F01D14FF0010B28E0288A218920EA63
:1012F0000107288AB84209D13946284600F01EFD68
:101300008046B8F1010F01D14FF0010B16E0288A99
:10131000218920EA01074FB13946284600F00EFD29
:101320008046B8F1010F01D14FF0010B06E00098A3
:10133000FEF7A6FF6F203070002089E700BF2D6800
:10134000002DA7D10098FEF79BFFBBF1010F01D143
:1013500000F06CFEFEF790FF00902089019000984D
:10136000FEF78EFF00203070019871E710B500F095
:1013700013F800F04DFD00F075FD00F095FD00F054
:101380001DFD00F0AFFC00F029FE00F0CDFD00F0E7
:10139000F3FD00F002F810BD704770470648007872
:1013A000012808D105480078FF2804D203480078B6
:1013B000401C024908707047720000206500002040
:1013C00010B500241A480078012830D1FEF754FFE8
:1013D00004461848007820B116480078401E154988
:1013E000087014480078F8B913480078E0B900F0A4
:1013F00057FE12481249097850F821001149086037
:101400000F4800781049097888420DD00D480068CF
:10141000806B401C0B49096888630C480068401CBD
:101420000A490860FEF748FF2046FEF729FF10BD75
:10143000720000206500002066000020A81800202F
:101440006800002080000020670000204C00002081
:1014500010B50B48007890B900F022FE09480078DA
:101460000949087009480749097850F821000849D6
:1014700008600846006807490860FEF704FF10BDD1
:10148000720000206800002067000020A8180020DB
:101490008000002078000020704700002DE9FE4FFA
:1014A00006460F4690461C464FF00009FEF7E4FE44
:1014B00081461F48007828B14846FEF7E1FE3C20EF
:1014C000BDE8FE8F1B4850F8240060BB012019497D
:1014D00041F824004846FEF7D3FE00234246394631
:1014E000304600F0B5F98246002000900190034696
:1014F000024651460290204600F0E8FD054635B907
:101500000D48007801280CD100F090FD09E0FEF7AD
:10151000B3FE81460020074941F824004846FEF703
:10152000AFFE2846CCE74846FEF7AAFE2820C7E7CC
:1015300065000020A8180020720000202DE9F04F5F
:1015400085B081468A4693461C46DDE90F78129D98
:1015500000200390FEF790FE03902348007830B1FE
:101560000398FEF78DFE3C2005B0BDE8F08F1F48C4
:1015700050F8240088BB01201C4941F8240003983E
:10158000FEF77EFE2A464146384600F0BBFE2B465B
:101590005A465146484600F05BF904901198CDE94F
:1015A000008002953A4620460E9B049900F08EFD7D
:1015B000064636B90E48007801280CD100F036FDF9
:1015C00009E0FEF759FE03900020084941F8240085
:1015D0000398FEF755FE3046C6E7FFE70398FEF78F
:1015E0004FFE2820C0E7000065000020A81800205A
:1015F00072000020704700002DE9F04105460027E9
:101600004748007810B14020BDE8F0813F2D01D15E
:101610003E20F9E7FEF730FE0746FF2D03D1414893
:10162000006890F83250404850F8254024B93846B8
:10163000FEF726FE4320E7E7012C04D13846FEF7EB
:101640001FFE3D20E0E714F8340F3849085C61784C
:1016500088432178354A505414F834091146085CFF
:1016600030B994F836103248007888433049087011
:10167000E06918B12046E16900F0CCFA666A16B15B
:10168000304600F089FB0020E06284F8300084F8E6
:10169000310028480078FF2804D226480078401CF2
:1016A000244908703846FEF7EBFD00F0B2FAFEF769
:1016B000E3FD07461F48007820B11E480078401E11
:1016C0001C490870204600F041F81B480078401E75
:1016D000194908700020144941F82500A06930B963
:1016E00000206169886115496069086005E0D4E9F6
:1016F00005014861D4E905108861114800686061FE
:101700000F4804600FA0E0643846FEF7B9FD0E48AC
:101710000078012801D100F089FC002074E7000066
:101720006500002078000020A81800206A00002032
:101730006900002066000020730000208400002063
:101740007C0000203F0000007200002070477047BE
:101750002DE9F04106460F4614464FF000081548A3
:10176000007818B112202070BDE8F081FEF784FDEA
:101770008046FF2E03D11048006890F832600F4871
:1017800050F826502DB94046FEF77AFD43202070D0
:10179000EAE7012D05D14046FEF772FD4320207097
:1017A000E2E7EF644046FEF76BFD0020207000BFCB
:1017B000DAE700006500002078000020A81800206B
:1017C000704770472DE9F04707460D464FF0000A75
:1017D000002028606860FEF74FFD8246FF2F03D18E
:1017E0001948006890F83270184850F827402CB912
:1017F0005046FEF745FD4320BDE8F087012C04D19B
:101800005046FEF73DFD4320F6E7207C00F0010046
:1018100020B95046FEF734FD4520EDE70026D4F808
:101820000C90D4F808805046FEF72AFD00E0761CA4
:1018300058F8041B0029FAD0B0002860A9EB060074
:10184000800068600020D7E778000020A8180020FA
:1018500070B5044610460026051F28462E604FF43A
:101860008056051F28462E601526051F28462E6027
:101870001426051F28462E601326051F28462E60B5
:101880001226051F28462E601126051F28462E60A9
:101890001026051F28462E600926051F28462E60A3
:1018A0000826051F28462E600726051F28462E609D
:1018B0000626051F28462E600526051F28462E6091
:1018C0000426051F28462E600326051F28462E6085
:1018D0000226051F28462E600126051F28462E6079
:1018E0000026051F28462E604FF080750560051FF5
:1018F00028462C60414E051F28462E604FF01236B8
:10190000051F28462E604FF00336051F28462E601F
:101910004FF00236051F28462E607610051F284618
:101920002E60051F284629603126051F28462E6097
:101930003026051F28462E602926051F28462E60C2
:101940002826051F28462E602726051F28462E60BC
:101950002626051F28462E602526051F28462E60B0
:101960002426051F28462E602326051F28462E60A4
:101970002226051F28462E602126051F28462E6098
:101980002026051F28462E601926051F28462E6092
:101990001826051F28462E601726051F28462E608C
:1019A0001626051F28462E604FF01136051F2846C3
:1019B0002E604FF01036051F28462E604FF0093676
:1019C000051F28462E604FF00836051F28462E605A
:1019D0004FF00736051F28462E604FF00636051FCC
:1019E00028462E604FF00536051F28462E604FF022
:1019F0000436051F28462E6070BD0000292200080D
:101A00002DE9F04105464FF00008FEF735FC804611
:101A1000FF2D05D12048006890F83250012608E0DB
:101A20001D48006890F83200A84201D1012600E06C
:101A300000261A4850F825402CB94046FEF720FCF5
:101A40004820BDE8F081012C04D14046FEF718FC87
:101A50004320F6E794F834701148C05D94F83510CF
:101A600088430F49C8550846C05D30B994F8361010
:101A70000C48007888430B49087094F8300040F017
:101A8000080084F830004046FEF7FAFB012E01D131
:101A900000F0CCFA0020D4E778000020A81800203D
:101AA0006A000020690000207047000070B50546FC
:101AB00000261748007800B170BD1648007800B1C4
:101AC000FAE71DB3FEF7D8FB06461348006890F806
:101AD00034401248005D1049096891F83510884378
:101AE0000E4908550846005D40B90B48006890F85B
:101AF00036100B480078884309490870064800688A
:101B0000C5623046FEF7BCFB00F090FA00BFD3E799
:101B10006500002066000020780000206A00002098
:101B20006900002070B5002600F072F8FEF7A4FBF3
:101B3000064631480068401C2F4908603046FEF7D1
:101B40009FFB2E480078012853D12D48007820B102
:101B5000012804D0022809D103E001250BE000256B
:101B600009E0012501202649087004E00125002034
:101B70002349087000BF00BF05B970BD2148046843
:101B800033E0FEF779FB0646E06A50B3E06A401E98
:101B9000E062E06A28BB94F8300000F0370040B102
:101BA00014F8300F00F0C800207001206070303C45
:101BB00002E0002084F8310094F8300000F00800C2
:101BC00078B93434A0781049097808430E49087070
:101BD00020780E49085C6178084314F834190B4AE0
:101BE000505464693046FEF74BFB94F832003F28AE
:101BF000C7D100BFC1E700009000002072000020A4
:101C00008800002084000020690000206A00002075
:101C10007047704710B590F8342001F10B039B5CBE
:101C200090F83540A34301F10B04A35423469B5C79
:101C300023B98B7A90F83640A3438B7210BD000015
:101C4000F0B51446059E244F3F6897F8307047F072
:101C50002007DFF884C0DCF800C08CF83070002763
:101C6000DFF874C0DCF800C08CF831701A4F3F68A0
:101C7000FE62194F3F6879620C828B74164F3F6881
:101C80008F6047680F6000274F60C860456805B1E6
:101C900069604160104F3F6897F834200F4FBF5C78
:101CA000DFF834C0DCF800C09CF835C027EA0C0728
:101CB000DFF828C00CF802706746BF5C5FB9064FBA
:101CC0003F6897F836C0064F3F7827EA0C07DFF8E1
:101CD00010C08CF80070F0BD780000206A00002071
:101CE000690000202DE9F0415021114800F06CF905
:101CF00000250DE0681C86B20D4800EB051400EBD2
:101D000006170020207067600AA0E060681C85B29A
:101D1000042DEFD3064800EB05140020207060600E
:101D200004A0E060024804490860BDE8F0810000BA
:101D3000581400203F00000054000020F0B5064673
:101D40000F46B4680020283460602780207A00F0B5
:101D5000DF00207200206072207A283C88B9343479
:101D6000A0780B4909780843094908702078094987
:101D7000085C6178084314F83419064A5054012568
:101D800000E00025304600F007F82846F0BD0000CE
:101D9000690000206A00002030B501464A680868E2
:101DA0002AB9CC68606028B10025456002E0106067
:101DB00000B142608B6800255D6230BD70B5C821FE
:101DC000114800F001F900230FE0581C85B203EB25
:101DD00083000D4901EB800405EB850001EB8006D3
:101DE000002020706660581C83B2092BEDD303EBF2
:101DF0008300054901EB80040020207060600846E4
:101E00000249086070BD00009013002050000020BF
:101E100000200A4908600A4908700A4908700A49FE
:101E200008700A4908700A4908600A4908600A49A6
:101E300008600A4908600A4908707047900000204D
:101E40006500002066000020730000207200002062
:101E50004C00002074000020600000205C00002086
:101E60006400002000210A4A1170002004E00021D3
:101E7000084A1154411CC8B20828F8D30021064A68
:101E80001170064A1170064A1160064A11607047C7
:101E9000690000206A000020670000206800002020
:101EA000800000207800002070B54FF47C71194844
:101EB00000F08AF84FF48071174800F085F800248C
:101EC00013E0601CC5B2C4EBC40000EB4000114934
:101ED00001EB8003C5EBC50000EB400001EB800681
:101EE0005E610EA0D864601CC4B20B2CE9D3C4EBB5
:101EF000C40000EB4000074901EB8003002058615B
:101F000006A0D86400200649086002480549086018
:101F100070BD0000A8190020A81800203F00000094
:101F2000840000207C00002000B587B00320002141
:101F300080220A4BCDE90132CDE903104FF6FF7044
:101F40003F23074A00900748FFF7F8FA06AA06A1C0
:101F50003F20FFF7FDFB07B000BD0000A8160020E2
:101F6000A41800200122000875432F4F532D494922
:101F70002049646C6500000000B587B00320002193
:101F800080220A4BCDE90132CDE903104FF6FE70F5
:101F90003E23074A00900748FFF7D0FA06AA06A199
:101FA0003E20FFF7D5FB07B000BD0000A8140020BD
:101FB000A41600204122000875432F4F532D494994
:101FC000205374617400000004E0002200F8012B2B
:101FD0004A1E91B20029F8D1704700002DE9F04166
:101FE00078211048FFF7F0FF00240DE0601C86B256
:101FF00004EB44000B4901EBC00506EB460001EB86
:10200000C0072F60601C84B2042CEFD304EB4400A3
:10201000044901EBC0050020286008460249086019
:10202000BDE8F081981D00208C00002010B5002430
:10203000FEF722F9044613480078F8B912480078F0
:10204000E0B900F02DF811481149097850F8210045
:10205000104908600E4800780F49097888420DD071
:102060000C480068806B401C0A49096888630B486B
:102070000068401C09490860FEF717F92046FEF782
:10208000FFF810BD6500002066000020A8180020A1
:102090006800002080000020670000204C00002025
:1020A0000649074A1278885C0649095C034A515C74
:1020B00001EBC001044A117070470000D8330008DA
:1020C000690000206A000020680000202DE9F84F18
:1020D00005460F4690469946DDE90AAB0020009080
:1020E000FEF7CAF800903F480468002C74D01834FA
:1020F00054F8040C3B4908600098FEF7C1F844F816
:10210000187CA576002020766076606144F814BCC7
:1021100044F80CAC44F8108C0C9824F8080C24F803
:10212000069C0020E077E810207705F00700E076B5
:10213000217F01208840A077E17E012088406077E0
:1021400000206060E060A0602062A0626062E062E7
:10215000206325A06063183C002606E0002104F1FE
:10216000500040F82610701CC6B2002EF6D0204653
:10217000FFF792F92046FFF73DFAFEF77DF8009051
:102180001A4840F825401A48006860610020A061A4
:102190001748006810B1164800688461144804604C
:1021A0003434A0781349097808431249087020781C
:1021B0001149085C6178084314F834190E4A5054E8
:1021C0000E480078401C0D4908700098FEF758F83A
:1021D0000020BDE8F88FFFE70098FEF751F8422095
:1021E000F7E700007C0000203F000000A818002056
:1021F00084000020690000206A0000207300002095
:10220000002400BF00BFFEF737F804460548006809
:10221000401C044908602046FEF732F8FFF797FAA1
:10222000F1E700007400002010B504480068FFF7D3
:10223000C7FAFF20FFF7E0F910BD0000780000208A
:10224000002400BF02E0C820FFF730FC19480078E6
:102250000028F8D0184800686421B0FBF1F0164956
:1022600008600846006828B9002014490870FF205B
:10227000FFF7C6FB00BFFDF7FFFF044610480068EC
:102280001049086000200E4908602046FDF7F8FF5D
:102290000C48006808490968B0FBF1F0C0F164001F
:1022A00006490870FFF78DFA00F00EF86420FFF77A
:1022B000FDFBE0E7640000205C00002058000020E7
:1022C00074000020600000207CB5002514E0694601
:1022D0002846FFF777FA064666B9094850F82540C0
:1022E00044B1012C06D0D4E9020100EB8100606406
:1022F0000198A064681CC5B23F2DE8D97CBD0000E0
:10230000A818002002F0010343B102F002032BB130
:1023100002E0491E002308C00029FAD170470000DE
:1023200010B5044600BF0548008800F040000028B2
:10233000F9D02146014800F055FE10BD00100140C3
:1023400029B1064A12680243044B1A6004E0034AAA
:1023500012688243014B1A60704700003038024017
:1023600029B1064A12680243044B1A6004E0034A8A
:1023700012688243014B1A607047000040380240E7
:1023800029B1064A12680243044B1A6004E0034A6A
:1023900012688243014B1A607047000044380240C3
:1023A000F0B5002100220024022500260223324F2E
:1023B0003F6807F00C0121B1042905D0082937D165
:1023C00005E02E4F076036E02D4F076033E02A4FBF
:1023D0003F1F3F68C7F38056274F3F1F3F6807F0F6
:1023E0003F036EB1264FB7FBF3F7DFF88CC0ACF1BB
:1023F000040CDCF800C0CCF3881C07FB0CF40CE0E8
:102400001E4FB7FBF3F7DFF870C0ACF1040CDCF83B
:1024100000C0CCF3881C07FB0CF4174F3F1F3F682C
:10242000C7F301477F1C7D00B4FBF5F7076002E0AE
:10243000124F076000BF00BF0F4F3F6807F0F00169
:102440000909104F7A5C0768D74047600A4F3F6818
:1024500007F4E051890A0B4F7A5C4768D7408760E0
:10246000054F3F6807F46041490B064F7A5C4768A7
:10247000D740C760F0BD0000083802400024F400D7
:1024800000127A003C000020704700000CB50020CC
:10249000019000903448006840F480303249086070
:1024A00000BF3148006800F4003000900198401CE3
:1024B0000190009818B90198B0F5A04FF1D12A48C1
:1024C000006800F4003010B10120009001E000200D
:1024D00000900098012846D123484030006840F021
:1024E00080502149403108602048006840F4404055
:1024F0001E4908601C48083000681B490831086004
:102500000846006840F4004008600846006840F44F
:10251000A05008601648091F0860081F006840F0B6
:102520008070091F086000BF0F48006800F000704D
:102530000028F9D040F205700E4908600A480830BA
:10254000006820F003000849083108600846006868
:1025500040F00200086000BF03480830006800F047
:102560000C000828F8D10CBD003802400070004073
:1025700008544007003C0240042808D14FF0E021F5
:10258000096941F004014FF0E022116107E04FF0CA
:10259000E021096921F004014FF0E0221161704748
:1025A00010B5FEF7FBFEFFF7BDFAFEF709FF10BD01
:1025B00010B51548006840F47000134908601348CE
:1025C000006840F001001149086000200F490831FF
:1025D00008600E4800680E4908400C4908600D4824
:1025E000091D0860081F006820F48020091F08608A
:1025F000002006490C310860FFF748FF4FF00060EB
:1026000001498039086010BD88ED00E000380240C3
:10261000FFFFF6FE1030002470B504466FF0040092
:10262000FFF7AAFFE11704EB5171CD104FF47A7058
:1026300045434FF0E020006940F002004FF0E021F8
:10264000086108464561006940F00100086170BDFD
:10265000F0B50C46154600210022068C4FF6FE7799
:102660003E400684018B028C4FF60C7631407E1C76
:1026700006EA03162E4331434FF6F576324044F016
:102680000106324301830284F0BDF0B50C461546C5
:10269000002100220026078C4FF6EF7C07EA0C078A
:1026A0000784018B028C4FF6FF7707EA041640F689
:1026B000FF4739404FF6FF7707EA033739434FF6B4
:1026C000FF7707EA052739434FF65F773A4046F030
:1026D00010073A4301830284F0BDF0B50C4615465D
:1026E000002100220026078C4FF6FF6C07EA0C073A
:1026F0000784818B028C4FF6FF7707EA04264FF69A
:102700000C7739404FF6FF7707EA03172F43394319
:102710004FF2FF573A4046F480773A438183028470
:10272000F0BDF0B50C461546002100220026078CAE
:102730004EF6FF7C07EA0C070784818B028C4FF66C
:10274000FF7707EA043640F6FF4739404FF6FF7738
:1027500007EA052739434FF6FF7707EA033739437E
:1027600045F6FF773A4046F480573A438183028426
:10277000F0BD000010B50421080700F0A0F868B112
:1027800009A0FDF7DDFD00210A48FDF7C5FF0A4B52
:102790000122114609480068FEF74CFD0521880713
:1027A00000F07EF810BD00000D0A2A2A2A2A0D0A20
:1027B00000000000886002402C000020340000204F
:1027C00010B501210846FFF7CBFD01210846FFF7B0
:1027D000C7FD01202C4908600220087103204871C0
:1027E00000208871C8712948FEF7BDF80122002138
:1027F0002648FEF700F94FF0FF3025494860532086
:1028000008800020488008814FF0804000F042F9A5
:102810000421080700F008F94021080600F0F2F84A
:102820008021C80500F0F7F800201A490880488088
:10283000012088800020C88008814FF0804000F08F
:102840004FF800201449088042F210708860002080
:10285000888101204880800700F082F8012204214D
:10286000080700F074F80121880700F01CF81C200C
:102870000A49087004204870002088700120C87040
:102880000846FEF735FB10BD240000200000024082
:10289000640C0020700C00207C0C00202000002024
:1028A000CA430282704721B1028842F001020280CD
:1028B00004E002884FF6FE731A400280704730B57C
:1028C0000246002000230024158A05EA01039589A9
:1028D00005EA010413B10CB1012000E0002030BD75
:1028E00070B505460C46208850B92389A2886188B6
:1028F0002846FFF7ADFEE188284600F09EF825E067
:10290000208804280AD12389A28861882846FFF7F5
:10291000BCFEE188284600F099F817E020880828D6
:102920000AD12389A28861882846FFF7D6FEE1886C
:10293000284600F098F809E02389A2886188284693
:10294000FFF7EFFEE188284600F096F870BD1AB157
:1029500083890B43838102E083898B4383817047A2
:1029600070B5002400220023058C4FF6EF76354029
:102970000584028C8388048B48F6FF752C404FF643
:10298000FF452C400D884FF6FF7606EA05252C43BF
:102990004FF6DF752A408D8906EA05152A434D88D2
:1029A00006EA05152A43154DA84202D0144DA84247
:1029B0001DD14FF67F752A40CD894FF6FF7606EA86
:1029C00005152A434FF6BF752A408D8806EA05157E
:1029D0002A434FF6FF352B404FF2FF752B400D8AEF
:1029E00006EA85052B434D8A06EA85052B4383803D
:1029F00004838D688563028470BD0000000001407F
:102A0000000401400A46002101894FF68F731940E6
:102A100011430181704702894FF67F731A4002818A
:102A200002890A430281704702894FF6F8731A40FF
:102A3000028102890A4302817047028B4FF6F373C9
:102A40001A400283028B0A4302837047028B4FF2C3
:102A5000FF331A400283028B4FF6FF7303EA012310
:102A60001A4302837047828B4FF6F3731A408283B6
:102A7000828B0A4382837047828B4FF2FF331A4066
:102A80008283828B4FF6FF7303EA01231A4382830A
:102A90007047000000220288184B98420ED0184B55
:102AA00098420BD0B0F1804F08D0164B984205D019
:102AB000154B984202D0154B984204D14FF68F73B4
:102AC0001A404B881A43124B984207D0114B984238
:102AD00004D04FF6FF431A400B891A4302804B681B
:102AE000C3620B880385054B984202D0044B984281
:102AF00001D18B7A03860123838270470000014055
:102B0000000401400004004000080040000C0040A8
:102B1000001000400014004010B504460121084692
:102B2000FFF70EFC01211020FFF72AFC07220921E4
:102B30003748FDF760FF07220A213548FDF75BFFA4
:102B40004FF4C060334908600220087148710020CA
:102B500088710120C8712E48FDF705FF2E480460DA
:102B600000202D498880C880088188810C204881F8
:102B70002A4800F0CDF90121284800F065F901222A
:102B80004021264800F06CF9012240F224412348FC
:102B900000F099F925202249087002204870002091
:102BA00088700120C8700846FEF7A2F90121880547
:102BB000FFF7C6FB1B48FDF7BBFD4FF000601A494D
:102BC00008601648001D4860184888600020C860EA
:102BD00014200861002048614FF480608861002063
:102BE000C86108624FF4807048624FF440308862D8
:102BF0000420C862032008630020486388630948F2
:102C0000FDF782FE01210748FDF786FD10BD00009B
:102C100000000240040000202001002000100140BC
:102C20000C0000204064024030010020F800002029
:102C300010B5044601210846FFF782FB0121480434
:102C4000FFF78EFB072202212E48FDF7D4FE072254
:102C500003212C48FDF7CFFE0C202B4908600220F1
:102C600008714871002088710120C8712548FDF75E
:102C70007AFE26480460002024498880C8800881A4
:102C800088810C204881224800F042F90121204827
:102C900000F0DAF8012240211D4800F0E1F801219E
:102CA0004805FFF74DFB1B48FDF742FD4FF0006064
:102CB000194908601648001D4860184888600020BF
:102CC000C8604FF480600861002048614FF4806064
:102CD00088610020C86108624FF4807048624FF438
:102CE000403088620420C8620320086300204863E3
:102CF00088630848FDF708FE01210648FDF70CFD32
:102D000010BD00000000024014000020C009002097
:102D10000044004088600240D00900206C0100207F
:102D200070B5002540F22441144800F0A2F810B319
:102D300000211348FDF7F0FC1048058885881048ED
:102D4000FDF7A2FDC0F1140529460EA0FDF7F8FA23
:102D5000002406E00D48015D0DA0FDF7F1FA601CAE
:102D600084B2AC42F6D314210548FDF7F9FD0121E8
:102D70000348FDF7D1FC00BF70BD0000001001400A
:102D8000406402400D0A25640D0A0000F80000208E
:102D90002563200010B540F224410A4800F069F88C
:102DA00068B108480488001D04880748FDF76CFDD9
:102DB000C0F5806084B2214604A0FDF7C1FA00BFCF
:102DC00010BD000000440040886002400D0A2564E8
:102DD0000D0A000070B5002540F22441144800F0AF
:102DE00048F818B300211348FDF796FC10480588F1
:102DF000001D05880F48FDF747FDC0F11405294661
:102E00000DA0FDF79DFA002406E00D48015D0DA020
:102E1000FDF796FA601C84B2AC42F6D31421054843
:102E2000FDF79EFD01210348FDF776FC00BF70BD54
:102E300000480040286002400D0A25640D0A000089
:102E40000C0A00202563200021B1828942F400523F
:102E5000828104E082894DF6FF731A4082817047B7
:102E60001AB1838A0B43838202E0838A8B43838275
:102E7000704770B50246002400230025002040F66C
:102E80006A16B14200D100BFC1F3421501F01F0321
:102E9000012606FA03F3012D02D19689334006E09C
:102EA000022D02D1168A334001E0968A33400C127B
:102EB000012606FA04F41688344013B10CB101203F
:102EC00000E0002070BDF0B5034600240026002578
:102ED000002040F66A17B94200D100BF1846C1F37E
:102EE000421401F01F06012707FA06F5012C01D153
:102EF0000C3004E0022C01D1103000E014301AB183
:102F000007682F43076002E00768AF430760F0BD22
:102F10002DE9FF4705460E460024A14600BFA04606
:102F2000B08900B100BF2C8A24F44054F0880443D7
:102F30002C82AC8941F20C608443B088318908430B
:102F4000718908430443AC81AC8A24F44074B0898D
:102F50000443AC826846FFF723FA2048854202D03A
:102F60001F48854202D1DDF80C9001E0DDF80890A1
:102F7000A88900F4004040B109EBC90000EB09103A
:102F800031684900B0FBF1F707E009EBC90000EB3D
:102F9000091031688900B0FBF1F76420B7FBF0F04D
:102FA00004012009642101FB1078A88900F4004085
:102FB00040B1322000EBC800B0FBF1F000F0070098
:102FC000044308E0322000EB08106421B0FBF1F06C
:102FD00000F00F0004432C81BDE8FF870010014082
:102FE00000140140C1F308028280704700BFFEE771
:102FF000014600BF704700001CB500BF002429E057
:1030000001A8002382220121009013480068FDF7E7
:10301000E7FF1248FDF73CFC01280CD1002404E036
:103020000F49085DFFF77CF9641C322CF8D361204E
:10303000FFF776F90BE0002404E00A49085DFFF78A
:103040006FF9641C322CF8D36220FFF769F9032072
:10305000FEF72CFDD4E7000030000020586002404D
:1030600094000020C600002000BF0CE0064890ED50
:10307000000ADFED060A30EE200A80ED000A4FF468
:10308000FA70FEF713FDF1E7380000200AD7233C61
:1030900000BF054A128802F04002002AF9D0C2B2ED
:1030A000014B9A8070470000001001402DE9F04F5D
:1030B0008CB005460F4690460024A3460026A14644
:1030C000002000900190824600BF3AE0285D24284D
:1030D00024D1601D1FFA80F906E0601C84B2285DCF
:1030E000A9EB04010DF801004C45F6DB9DF800004A
:1030F000432824D19DF801004D2820D19DF80200DD
:1031000052281CD19DF80300502818D19DF80400C6
:10311000472814D1012605EB040B10E0012E08D13D
:10312000285D0A2805D1601E285C0D2801D10226E1
:1031300009E0012E03D10AF1010000F0FF0A601C32
:1031400084B2BC42C2DB00BF022E08D1524602A9A3
:103150005846FDF777FC02A9404600F007F90CB08D
:10316000BDE8F08F8CB000BF002482E00BA80023E4
:103170008222012100903F480068FDF731FF3E4860
:10318000FDF782FBC0F58065012409E03B48005D46
:10319000242800D106E03949085DFFF7C1F8641C16
:1031A000AC42F3D300BFA2B201A93448FDF74AFCF8
:1031B000334A4FF4FA713148FFF778FF31A0019993
:1031C000FDF7BEF89DF808102EA0FDF7B9F8BDF880
:1031D0000A102CA0FDF7B4F82AA00399FDF7B0F867
:1031E0009DF8181027A0FDF7ABF8BDF8121025A028
:1031F000FDF7A6F823A00599FDF7A2F89DF8181091
:1032000020A0FDF79DF8BDF81A101EA0FDF798F854
:10321000BDF81C101BA0FDF793F81AA00899FDF744
:103220008FF89DF8241017A0FDF78AF8BDF8261036
:1032300014A0FDF785F89DF8281012A0FDF780F87E
:1032400012A0FDF77DF80E48017D0EA0FDF778F87D
:103250000B4881680BA0FDF773F80948016809A0C5
:10326000FDF76EF801210448FDF756FA0320FEF73A
:103270001DFC7BE734000020886002406C010020C8
:103280006C0900200D0A2564000000000D0A20478B
:1032900050535F496E666F6D6174696F6E3A0000DE
:1032A00043E040212148FDF7CBFB4FF47A70FEF755
:1032B000FDFB80211D48FDF7C3FB4FF47A70FEF73C
:1032C000F5FB4FF480711948FDF7BAFB4FF47A70A3
:1032D000FEF7ECFB4FF400711448FDF7B1FB4FF41F
:1032E0007A70FEF7E3FB40211048FDF7A7FB4FF48F
:1032F0007A70FEF7DBFB80210C48FDF79FFB4FF453
:103300007A70FEF7D3FB4FF480710848FDF796FB07
:103310004FF47A70FEF7CAFB4FF400710348FDF7D3
:103320008DFB4FF47A70FEF7C1FBBAE7000802404C
:103330004FF48060FDF718FEA820FFF76DF9FDF748
:10334000A7FD04210848FDF77BFB4FF4E130FFF7B0
:10335000E3FB4FF41650FFF76BFCFFF731FAFDF774
:1033600067F900BFFEE700000008024010B50A8BB5
:103370008283CA8A4283CA8840F2712462438B687E
:1033800003EB021282600A7B0AB1012200E00022F4
:103390000273CA8940F2712462430B6903EB021283
:1033A00002600A7D0AB1012200E0002202718A8BCC
:1033B000120A0275CA69130C43750A68130E8375E5
:1033C0000A68130CC3750A88130A037610BD4FF000
:1033D0004070E1EE100A7047000001000200010099
:1033E00003000100020001000400010002000100CE
:1033F00003000100020001000500010002000100BD
:1034000003000100020001000400010002000100AD
:10341000030001000200010006000100020001009B
:10342000030001000200010004000100020001008D
:10343000030001000200010005000100020001007C
:10344000030001000200010004000100020001006D
:10345000030001000200010007000100020001005A
:10346000030001000200010004000100020001004D
:10347000030001000200010005000100020001003C
:10348000030001000200010004000100020001002D
:10349000030001000200010006000100020001001B
:1034A000030001000200010004000100020001000D
:1034B00003000100020001000500010002000100FC
:1034C00003000100020001000400010002000100ED
:1034D0000300010002000100F83400080000002091
:1034E00094000000C40100088C35000894000020FE
:1034F000DC230000E00100080000000000000000E4
:1035000000000000000000000000000000000000BB
:1035100000000000000000000000000000000000AB
:10352000000000000000000000000000000000009B
:103530000AD7233C00000000010203040102030437
:10354000060708090000000000000000000000005D
:10355000000000000000000000000000000000006B
:10356000000000000000000000000000000000005B
:10357000000000000000000000000000000000004B
:0C3580000000000000000000000000003F
:040000050800018965
:00000001FF
